{
	"data": {
		"bytecode": {
			"linkReferences": {},
			"object": "60c060405234801561001057600080fd5b5073b3dccb4cf7a26f6cf6b120cf5a73875b7bbc655b7301be23585060835e02b77ef475b0cc51aa1e07098173ffffffffffffffffffffffffffffffffffffffff1660a08173ffffffffffffffffffffffffffffffffffffffff16815250508073ffffffffffffffffffffffffffffffffffffffff1660808173ffffffffffffffffffffffffffffffffffffffff168152505050507f2ed0feb3e7fd2022120aa84fab1945545a9f2ffc9076fd6156fa96eaff4c131160001b60058190555067016345785d8a000060068190555033600160006101000a81548173ffffffffffffffffffffffffffffffffffffffff021916908373ffffffffffffffffffffffffffffffffffffffff160217905550600160038190555060805160a05161129561015a6000396000818161047a01526108c00152600081816106ca015261088401526112956000f3fe6080604052600436106100c25760003560e01c80638da5cb5b1161007f578063be71248a11610059578063be71248a14610258578063dbdff2c11461026f578063e97dcb621461029a578063f71d96cb146102a4576100c2565b80638da5cb5b146101d957806394985ddd146102045780639be064c11461022d576100c2565b806312065fe0146100c7578063281d098d146100f257806342619f661461012f5780635d495aea1461015a5780636d6fe230146101715780638b5b9ccc146101ae575b600080fd5b3480156100d357600080fd5b506100dc6102e1565b6040516100e99190610aff565b60405180910390f35b3480156100fe57600080fd5b5061011960048036038101906101149190610b4b565b6102e9565b6040516101269190610bb9565b60405180910390f35b34801561013b57600080fd5b50610144610326565b6040516101519190610aff565b60405180910390f35b34801561016657600080fd5b5061016f61032c565b005b34801561017d57600080fd5b5061019860048036038101906101939190610b4b565b610391565b6040516101a59190610bb9565b60405180910390f35b3480156101ba57600080fd5b506101c36103c4565b6040516101d09190610c92565b60405180910390f35b3480156101e557600080fd5b506101ee610452565b6040516101fb9190610cd5565b60405180910390f35b34801561021057600080fd5b5061022b60048036038101906102269190610d26565b610478565b005b34801561023957600080fd5b50610242610514565b60405161024f9190610aff565b60405180910390f35b34801561026457600080fd5b5061026d61051a565b005b34801561027b57600080fd5b506102846106c3565b6040516102919190610d75565b60405180910390f35b6102a26107b6565b005b3480156102b057600080fd5b506102cb60048036038101906102c69190610b4b565b61082e565b6040516102d89190610bb9565b60405180910390f35b600047905090565b60006004600083815260200190815260200160002060009054906101000a900473ffffffffffffffffffffffffffffffffffffffff169050919050565b60075481565b600160009054906101000a900473ffffffffffffffffffffffffffffffffffffffff1673ffffffffffffffffffffffffffffffffffffffff163373ffffffffffffffffffffffffffffffffffffffff161461038657600080fd5b61038e6106c3565b50565b60046020528060005260406000206000915054906101000a900473ffffffffffffffffffffffffffffffffffffffff1681565b6060600280548060200260200160405190810160405280929190818152602001828054801561044857602002820191906000526020600020905b8160009054906101000a900473ffffffffffffffffffffffffffffffffffffffff1673ffffffffffffffffffffffffffffffffffffffff16815260200190600101908083116103fe575b5050505050905090565b600160009054906101000a900473ffffffffffffffffffffffffffffffffffffffff1681565b7f000000000000000000000000000000000000000000000000000000000000000073ffffffffffffffffffffffffffffffffffffffff163373ffffffffffffffffffffffffffffffffffffffff1614610506576040517f08c379a00000000000000000000000000000000000000000000000000000000081526004016104fd90610ded565b60405180910390fd5b610510828261086d565b5050565b60035481565b600060028054905060075461052f9190610e3c565b90506002818154811061054557610544610e6d565b5b9060005260206000200160009054906101000a900473ffffffffffffffffffffffffffffffffffffffff1673ffffffffffffffffffffffffffffffffffffffff166108fc479081150290604051600060405180830381858888f193505050501580156105b5573d6000803e3d6000fd5b50600281815481106105ca576105c9610e6d565b5b9060005260206000200160009054906101000a900473ffffffffffffffffffffffffffffffffffffffff1660046000600354815260200190815260200160002060006101000a81548173ffffffffffffffffffffffffffffffffffffffff021916908373ffffffffffffffffffffffffffffffffffffffff1602179055506003600081548092919061065b90610ecb565b9190505550600067ffffffffffffffff81111561067b5761067a610f14565b5b6040519080825280602002602001820160405280156106a95781602001602082028036833780820191505090505b50600290805190602001906106bf929190610a3f565b5050565b60006006547f000000000000000000000000000000000000000000000000000000000000000073ffffffffffffffffffffffffffffffffffffffff166370a08231306040518263ffffffff1660e01b81526004016107219190610cd5565b602060405180830381865afa15801561073e573d6000803e3d6000fd5b505050506040513d601f19601f820116820180604052508101906107629190610f58565b10156107a3576040517f08c379a000000000000000000000000000000000000000000000000000000000815260040161079a90610fd1565b60405180910390fd5b6107b1600554600654610880565b905090565b662386f26fc1000034116107c957600080fd5b6002339080600181540180825580915050600190039060005260206000200160009091909190916101000a81548173ffffffffffffffffffffffffffffffffffffffff021916908373ffffffffffffffffffffffffffffffffffffffff160217905550565b6002818154811061083e57600080fd5b906000526020600020016000915054906101000a900473ffffffffffffffffffffffffffffffffffffffff1681565b8060078190555061087c61051a565b5050565b60007f000000000000000000000000000000000000000000000000000000000000000073ffffffffffffffffffffffffffffffffffffffff16634000aea07f0000000000000000000000000000000000000000000000000000000000000000848660006040516020016108f4929190610ff1565b6040516020818303038152906040526040518463ffffffff1660e01b8152600401610921939291906110b3565b6020604051808303816000875af1158015610940573d6000803e3d6000fd5b505050506040513d601f19601f820116820180604052508101906109649190611129565b50600061098684600030600080898152602001908152602001600020546109d0565b90506001600080868152602001908152602001600020546109a79190611156565b600080868152602001908152602001600020819055506109c78482610a0c565b91505092915050565b6000848484846040516020016109e994939291906111ac565b6040516020818303038152906040528051906020012060001c9050949350505050565b60008282604051602001610a21929190611233565b60405160208183030381529060405280519060200120905092915050565b828054828255906000526020600020908101928215610ab8579160200282015b82811115610ab75782518260006101000a81548173ffffffffffffffffffffffffffffffffffffffff021916908373ffffffffffffffffffffffffffffffffffffffff16021790555091602001919060010190610a5f565b5b509050610ac59190610ac9565b5090565b5b80821115610ae2576000816000905550600101610aca565b5090565b6000819050919050565b610af981610ae6565b82525050565b6000602082019050610b146000830184610af0565b92915050565b600080fd5b610b2881610ae6565b8114610b3357600080fd5b50565b600081359050610b4581610b1f565b92915050565b600060208284031215610b6157610b60610b1a565b5b6000610b6f84828501610b36565b91505092915050565b600073ffffffffffffffffffffffffffffffffffffffff82169050919050565b6000610ba382610b78565b9050919050565b610bb381610b98565b82525050565b6000602082019050610bce6000830184610baa565b92915050565b600081519050919050565b600082825260208201905092915050565b6000819050602082019050919050565b610c0981610b98565b82525050565b6000610c1b8383610c00565b60208301905092915050565b6000602082019050919050565b6000610c3f82610bd4565b610c498185610bdf565b9350610c5483610bf0565b8060005b83811015610c85578151610c6c8882610c0f565b9750610c7783610c27565b925050600181019050610c58565b5085935050505092915050565b60006020820190508181036000830152610cac8184610c34565b905092915050565b6000610cbf82610b78565b9050919050565b610ccf81610cb4565b82525050565b6000602082019050610cea6000830184610cc6565b92915050565b6000819050919050565b610d0381610cf0565b8114610d0e57600080fd5b50565b600081359050610d2081610cfa565b92915050565b60008060408385031215610d3d57610d3c610b1a565b5b6000610d4b85828601610d11565b9250506020610d5c85828601610b36565b9150509250929050565b610d6f81610cf0565b82525050565b6000602082019050610d8a6000830184610d66565b92915050565b600082825260208201905092915050565b7f4f6e6c7920565246436f6f7264696e61746f722063616e2066756c66696c6c00600082015250565b6000610dd7601f83610d90565b9150610de282610da1565b602082019050919050565b60006020820190508181036000830152610e0681610dca565b9050919050565b7f4e487b7100000000000000000000000000000000000000000000000000000000600052601260045260246000fd5b6000610e4782610ae6565b9150610e5283610ae6565b925082610e6257610e61610e0d565b5b828206905092915050565b7f4e487b7100000000000000000000000000000000000000000000000000000000600052603260045260246000fd5b7f4e487b7100000000000000000000000000000000000000000000000000000000600052601160045260246000fd5b6000610ed682610ae6565b91507fffffffffffffffffffffffffffffffffffffffffffffffffffffffffffffffff821415610f0957610f08610e9c565b5b600182019050919050565b7f4e487b7100000000000000000000000000000000000000000000000000000000600052604160045260246000fd5b600081519050610f5281610b1f565b92915050565b600060208284031215610f6e57610f6d610b1a565b5b6000610f7c84828501610f43565b91505092915050565b7f4e6f7420656e6f756768204c696e6b20696e20636f6e74726163740000000000600082015250565b6000610fbb601b83610d90565b9150610fc682610f85565b602082019050919050565b60006020820190508181036000830152610fea81610fae565b9050919050565b60006040820190506110066000830185610d66565b6110136020830184610af0565b9392505050565b600081519050919050565b600082825260208201905092915050565b60005b83811015611054578082015181840152602081019050611039565b83811115611063576000848401525b50505050565b6000601f19601f8301169050919050565b60006110858261101a565b61108f8185611025565b935061109f818560208601611036565b6110a881611069565b840191505092915050565b60006060820190506110c86000830186610cc6565b6110d56020830185610af0565b81810360408301526110e7818461107a565b9050949350505050565b60008115159050919050565b611106816110f1565b811461111157600080fd5b50565b600081519050611123816110fd565b92915050565b60006020828403121561113f5761113e610b1a565b5b600061114d84828501611114565b91505092915050565b600061116182610ae6565b915061116c83610ae6565b9250827fffffffffffffffffffffffffffffffffffffffffffffffffffffffffffffffff038211156111a1576111a0610e9c565b5b828201905092915050565b60006080820190506111c16000830187610d66565b6111ce6020830186610af0565b6111db6040830185610cc6565b6111e86060830184610af0565b95945050505050565b6000819050919050565b61120c61120782610cf0565b6111f1565b82525050565b6000819050919050565b61122d61122882610ae6565b611212565b82525050565b600061123f82856111fb565b60208201915061124f828461121c565b602082019150819050939250505056fea2646970667358221220074e5f32ad7215b47f67b5f37ccd7c3e2822f32728ade492fb8e3bd3ad1efc9064736f6c634300080b0033",
			"opcodes": "PUSH1 0xC0 PUSH1 0x40 MSTORE CALLVALUE DUP1 ISZERO PUSH2 0x10 JUMPI PUSH1 0x0 DUP1 REVERT JUMPDEST POP PUSH20 0xB3DCCB4CF7A26F6CF6B120CF5A73875B7BBC655B PUSH20 0x1BE23585060835E02B77EF475B0CC51AA1E0709 DUP2 PUSH20 0xFFFFFFFFFFFFFFFFFFFFFFFFFFFFFFFFFFFFFFFF AND PUSH1 0xA0 DUP2 PUSH20 0xFFFFFFFFFFFFFFFFFFFFFFFFFFFFFFFFFFFFFFFF AND DUP2 MSTORE POP POP DUP1 PUSH20 0xFFFFFFFFFFFFFFFFFFFFFFFFFFFFFFFFFFFFFFFF AND PUSH1 0x80 DUP2 PUSH20 0xFFFFFFFFFFFFFFFFFFFFFFFFFFFFFFFFFFFFFFFF AND DUP2 MSTORE POP POP POP POP PUSH32 0x2ED0FEB3E7FD2022120AA84FAB1945545A9F2FFC9076FD6156FA96EAFF4C1311 PUSH1 0x0 SHL PUSH1 0x5 DUP2 SWAP1 SSTORE POP PUSH8 0x16345785D8A0000 PUSH1 0x6 DUP2 SWAP1 SSTORE POP CALLER PUSH1 0x1 PUSH1 0x0 PUSH2 0x100 EXP DUP2 SLOAD DUP2 PUSH20 0xFFFFFFFFFFFFFFFFFFFFFFFFFFFFFFFFFFFFFFFF MUL NOT AND SWAP1 DUP4 PUSH20 0xFFFFFFFFFFFFFFFFFFFFFFFFFFFFFFFFFFFFFFFF AND MUL OR SWAP1 SSTORE POP PUSH1 0x1 PUSH1 0x3 DUP2 SWAP1 SSTORE POP PUSH1 0x80 MLOAD PUSH1 0xA0 MLOAD PUSH2 0x1295 PUSH2 0x15A PUSH1 0x0 CODECOPY PUSH1 0x0 DUP2 DUP2 PUSH2 0x47A ADD MSTORE PUSH2 0x8C0 ADD MSTORE PUSH1 0x0 DUP2 DUP2 PUSH2 0x6CA ADD MSTORE PUSH2 0x884 ADD MSTORE PUSH2 0x1295 PUSH1 0x0 RETURN INVALID PUSH1 0x80 PUSH1 0x40 MSTORE PUSH1 0x4 CALLDATASIZE LT PUSH2 0xC2 JUMPI PUSH1 0x0 CALLDATALOAD PUSH1 0xE0 SHR DUP1 PUSH4 0x8DA5CB5B GT PUSH2 0x7F JUMPI DUP1 PUSH4 0xBE71248A GT PUSH2 0x59 JUMPI DUP1 PUSH4 0xBE71248A EQ PUSH2 0x258 JUMPI DUP1 PUSH4 0xDBDFF2C1 EQ PUSH2 0x26F JUMPI DUP1 PUSH4 0xE97DCB62 EQ PUSH2 0x29A JUMPI DUP1 PUSH4 0xF71D96CB EQ PUSH2 0x2A4 JUMPI PUSH2 0xC2 JUMP JUMPDEST DUP1 PUSH4 0x8DA5CB5B EQ PUSH2 0x1D9 JUMPI DUP1 PUSH4 0x94985DDD EQ PUSH2 0x204 JUMPI DUP1 PUSH4 0x9BE064C1 EQ PUSH2 0x22D JUMPI PUSH2 0xC2 JUMP JUMPDEST DUP1 PUSH4 0x12065FE0 EQ PUSH2 0xC7 JUMPI DUP1 PUSH4 0x281D098D EQ PUSH2 0xF2 JUMPI DUP1 PUSH4 0x42619F66 EQ PUSH2 0x12F JUMPI DUP1 PUSH4 0x5D495AEA EQ PUSH2 0x15A JUMPI DUP1 PUSH4 0x6D6FE230 EQ PUSH2 0x171 JUMPI DUP1 PUSH4 0x8B5B9CCC EQ PUSH2 0x1AE JUMPI JUMPDEST PUSH1 0x0 DUP1 REVERT JUMPDEST CALLVALUE DUP1 ISZERO PUSH2 0xD3 JUMPI PUSH1 0x0 DUP1 REVERT JUMPDEST POP PUSH2 0xDC PUSH2 0x2E1 JUMP JUMPDEST PUSH1 0x40 MLOAD PUSH2 0xE9 SWAP2 SWAP1 PUSH2 0xAFF JUMP JUMPDEST PUSH1 0x40 MLOAD DUP1 SWAP2 SUB SWAP1 RETURN JUMPDEST CALLVALUE DUP1 ISZERO PUSH2 0xFE JUMPI PUSH1 0x0 DUP1 REVERT JUMPDEST POP PUSH2 0x119 PUSH1 0x4 DUP1 CALLDATASIZE SUB DUP2 ADD SWAP1 PUSH2 0x114 SWAP2 SWAP1 PUSH2 0xB4B JUMP JUMPDEST PUSH2 0x2E9 JUMP JUMPDEST PUSH1 0x40 MLOAD PUSH2 0x126 SWAP2 SWAP1 PUSH2 0xBB9 JUMP JUMPDEST PUSH1 0x40 MLOAD DUP1 SWAP2 SUB SWAP1 RETURN JUMPDEST CALLVALUE DUP1 ISZERO PUSH2 0x13B JUMPI PUSH1 0x0 DUP1 REVERT JUMPDEST POP PUSH2 0x144 PUSH2 0x326 JUMP JUMPDEST PUSH1 0x40 MLOAD PUSH2 0x151 SWAP2 SWAP1 PUSH2 0xAFF JUMP JUMPDEST PUSH1 0x40 MLOAD DUP1 SWAP2 SUB SWAP1 RETURN JUMPDEST CALLVALUE DUP1 ISZERO PUSH2 0x166 JUMPI PUSH1 0x0 DUP1 REVERT JUMPDEST POP PUSH2 0x16F PUSH2 0x32C JUMP JUMPDEST STOP JUMPDEST CALLVALUE DUP1 ISZERO PUSH2 0x17D JUMPI PUSH1 0x0 DUP1 REVERT JUMPDEST POP PUSH2 0x198 PUSH1 0x4 DUP1 CALLDATASIZE SUB DUP2 ADD SWAP1 PUSH2 0x193 SWAP2 SWAP1 PUSH2 0xB4B JUMP JUMPDEST PUSH2 0x391 JUMP JUMPDEST PUSH1 0x40 MLOAD PUSH2 0x1A5 SWAP2 SWAP1 PUSH2 0xBB9 JUMP JUMPDEST PUSH1 0x40 MLOAD DUP1 SWAP2 SUB SWAP1 RETURN JUMPDEST CALLVALUE DUP1 ISZERO PUSH2 0x1BA JUMPI PUSH1 0x0 DUP1 REVERT JUMPDEST POP PUSH2 0x1C3 PUSH2 0x3C4 JUMP JUMPDEST PUSH1 0x40 MLOAD PUSH2 0x1D0 SWAP2 SWAP1 PUSH2 0xC92 JUMP JUMPDEST PUSH1 0x40 MLOAD DUP1 SWAP2 SUB SWAP1 RETURN JUMPDEST CALLVALUE DUP1 ISZERO PUSH2 0x1E5 JUMPI PUSH1 0x0 DUP1 REVERT JUMPDEST POP PUSH2 0x1EE PUSH2 0x452 JUMP JUMPDEST PUSH1 0x40 MLOAD PUSH2 0x1FB SWAP2 SWAP1 PUSH2 0xCD5 JUMP JUMPDEST PUSH1 0x40 MLOAD DUP1 SWAP2 SUB SWAP1 RETURN JUMPDEST CALLVALUE DUP1 ISZERO PUSH2 0x210 JUMPI PUSH1 0x0 DUP1 REVERT JUMPDEST POP PUSH2 0x22B PUSH1 0x4 DUP1 CALLDATASIZE SUB DUP2 ADD SWAP1 PUSH2 0x226 SWAP2 SWAP1 PUSH2 0xD26 JUMP JUMPDEST PUSH2 0x478 JUMP JUMPDEST STOP JUMPDEST CALLVALUE DUP1 ISZERO PUSH2 0x239 JUMPI PUSH1 0x0 DUP1 REVERT JUMPDEST POP PUSH2 0x242 PUSH2 0x514 JUMP JUMPDEST PUSH1 0x40 MLOAD PUSH2 0x24F SWAP2 SWAP1 PUSH2 0xAFF JUMP JUMPDEST PUSH1 0x40 MLOAD DUP1 SWAP2 SUB SWAP1 RETURN JUMPDEST CALLVALUE DUP1 ISZERO PUSH2 0x264 JUMPI PUSH1 0x0 DUP1 REVERT JUMPDEST POP PUSH2 0x26D PUSH2 0x51A JUMP JUMPDEST STOP JUMPDEST CALLVALUE DUP1 ISZERO PUSH2 0x27B JUMPI PUSH1 0x0 DUP1 REVERT JUMPDEST POP PUSH2 0x284 PUSH2 0x6C3 JUMP JUMPDEST PUSH1 0x40 MLOAD PUSH2 0x291 SWAP2 SWAP1 PUSH2 0xD75 JUMP JUMPDEST PUSH1 0x40 MLOAD DUP1 SWAP2 SUB SWAP1 RETURN JUMPDEST PUSH2 0x2A2 PUSH2 0x7B6 JUMP JUMPDEST STOP JUMPDEST CALLVALUE DUP1 ISZERO PUSH2 0x2B0 JUMPI PUSH1 0x0 DUP1 REVERT JUMPDEST POP PUSH2 0x2CB PUSH1 0x4 DUP1 CALLDATASIZE SUB DUP2 ADD SWAP1 PUSH2 0x2C6 SWAP2 SWAP1 PUSH2 0xB4B JUMP JUMPDEST PUSH2 0x82E JUMP JUMPDEST PUSH1 0x40 MLOAD PUSH2 0x2D8 SWAP2 SWAP1 PUSH2 0xBB9 JUMP JUMPDEST PUSH1 0x40 MLOAD DUP1 SWAP2 SUB SWAP1 RETURN JUMPDEST PUSH1 0x0 SELFBALANCE SWAP1 POP SWAP1 JUMP JUMPDEST PUSH1 0x0 PUSH1 0x4 PUSH1 0x0 DUP4 DUP2 MSTORE PUSH1 0x20 ADD SWAP1 DUP2 MSTORE PUSH1 0x20 ADD PUSH1 0x0 KECCAK256 PUSH1 0x0 SWAP1 SLOAD SWAP1 PUSH2 0x100 EXP SWAP1 DIV PUSH20 0xFFFFFFFFFFFFFFFFFFFFFFFFFFFFFFFFFFFFFFFF AND SWAP1 POP SWAP2 SWAP1 POP JUMP JUMPDEST PUSH1 0x7 SLOAD DUP2 JUMP JUMPDEST PUSH1 0x1 PUSH1 0x0 SWAP1 SLOAD SWAP1 PUSH2 0x100 EXP SWAP1 DIV PUSH20 0xFFFFFFFFFFFFFFFFFFFFFFFFFFFFFFFFFFFFFFFF AND PUSH20 0xFFFFFFFFFFFFFFFFFFFFFFFFFFFFFFFFFFFFFFFF AND CALLER PUSH20 0xFFFFFFFFFFFFFFFFFFFFFFFFFFFFFFFFFFFFFFFF AND EQ PUSH2 0x386 JUMPI PUSH1 0x0 DUP1 REVERT JUMPDEST PUSH2 0x38E PUSH2 0x6C3 JUMP JUMPDEST POP JUMP JUMPDEST PUSH1 0x4 PUSH1 0x20 MSTORE DUP1 PUSH1 0x0 MSTORE PUSH1 0x40 PUSH1 0x0 KECCAK256 PUSH1 0x0 SWAP2 POP SLOAD SWAP1 PUSH2 0x100 EXP SWAP1 DIV PUSH20 0xFFFFFFFFFFFFFFFFFFFFFFFFFFFFFFFFFFFFFFFF AND DUP2 JUMP JUMPDEST PUSH1 0x60 PUSH1 0x2 DUP1 SLOAD DUP1 PUSH1 0x20 MUL PUSH1 0x20 ADD PUSH1 0x40 MLOAD SWAP1 DUP2 ADD PUSH1 0x40 MSTORE DUP1 SWAP3 SWAP2 SWAP1 DUP2 DUP2 MSTORE PUSH1 0x20 ADD DUP3 DUP1 SLOAD DUP1 ISZERO PUSH2 0x448 JUMPI PUSH1 0x20 MUL DUP3 ADD SWAP2 SWAP1 PUSH1 0x0 MSTORE PUSH1 0x20 PUSH1 0x0 KECCAK256 SWAP1 JUMPDEST DUP2 PUSH1 0x0 SWAP1 SLOAD SWAP1 PUSH2 0x100 EXP SWAP1 DIV PUSH20 0xFFFFFFFFFFFFFFFFFFFFFFFFFFFFFFFFFFFFFFFF AND PUSH20 0xFFFFFFFFFFFFFFFFFFFFFFFFFFFFFFFFFFFFFFFF AND DUP2 MSTORE PUSH1 0x20 ADD SWAP1 PUSH1 0x1 ADD SWAP1 DUP1 DUP4 GT PUSH2 0x3FE JUMPI JUMPDEST POP POP POP POP POP SWAP1 POP SWAP1 JUMP JUMPDEST PUSH1 0x1 PUSH1 0x0 SWAP1 SLOAD SWAP1 PUSH2 0x100 EXP SWAP1 DIV PUSH20 0xFFFFFFFFFFFFFFFFFFFFFFFFFFFFFFFFFFFFFFFF AND DUP2 JUMP JUMPDEST PUSH32 0x0 PUSH20 0xFFFFFFFFFFFFFFFFFFFFFFFFFFFFFFFFFFFFFFFF AND CALLER PUSH20 0xFFFFFFFFFFFFFFFFFFFFFFFFFFFFFFFFFFFFFFFF AND EQ PUSH2 0x506 JUMPI PUSH1 0x40 MLOAD PUSH32 0x8C379A000000000000000000000000000000000000000000000000000000000 DUP2 MSTORE PUSH1 0x4 ADD PUSH2 0x4FD SWAP1 PUSH2 0xDED JUMP JUMPDEST PUSH1 0x40 MLOAD DUP1 SWAP2 SUB SWAP1 REVERT JUMPDEST PUSH2 0x510 DUP3 DUP3 PUSH2 0x86D JUMP JUMPDEST POP POP JUMP JUMPDEST PUSH1 0x3 SLOAD DUP2 JUMP JUMPDEST PUSH1 0x0 PUSH1 0x2 DUP1 SLOAD SWAP1 POP PUSH1 0x7 SLOAD PUSH2 0x52F SWAP2 SWAP1 PUSH2 0xE3C JUMP JUMPDEST SWAP1 POP PUSH1 0x2 DUP2 DUP2 SLOAD DUP2 LT PUSH2 0x545 JUMPI PUSH2 0x544 PUSH2 0xE6D JUMP JUMPDEST JUMPDEST SWAP1 PUSH1 0x0 MSTORE PUSH1 0x20 PUSH1 0x0 KECCAK256 ADD PUSH1 0x0 SWAP1 SLOAD SWAP1 PUSH2 0x100 EXP SWAP1 DIV PUSH20 0xFFFFFFFFFFFFFFFFFFFFFFFFFFFFFFFFFFFFFFFF AND PUSH20 0xFFFFFFFFFFFFFFFFFFFFFFFFFFFFFFFFFFFFFFFF AND PUSH2 0x8FC SELFBALANCE SWAP1 DUP2 ISZERO MUL SWAP1 PUSH1 0x40 MLOAD PUSH1 0x0 PUSH1 0x40 MLOAD DUP1 DUP4 SUB DUP2 DUP6 DUP9 DUP9 CALL SWAP4 POP POP POP POP ISZERO DUP1 ISZERO PUSH2 0x5B5 JUMPI RETURNDATASIZE PUSH1 0x0 DUP1 RETURNDATACOPY RETURNDATASIZE PUSH1 0x0 REVERT JUMPDEST POP PUSH1 0x2 DUP2 DUP2 SLOAD DUP2 LT PUSH2 0x5CA JUMPI PUSH2 0x5C9 PUSH2 0xE6D JUMP JUMPDEST JUMPDEST SWAP1 PUSH1 0x0 MSTORE PUSH1 0x20 PUSH1 0x0 KECCAK256 ADD PUSH1 0x0 SWAP1 SLOAD SWAP1 PUSH2 0x100 EXP SWAP1 DIV PUSH20 0xFFFFFFFFFFFFFFFFFFFFFFFFFFFFFFFFFFFFFFFF AND PUSH1 0x4 PUSH1 0x0 PUSH1 0x3 SLOAD DUP2 MSTORE PUSH1 0x20 ADD SWAP1 DUP2 MSTORE PUSH1 0x20 ADD PUSH1 0x0 KECCAK256 PUSH1 0x0 PUSH2 0x100 EXP DUP2 SLOAD DUP2 PUSH20 0xFFFFFFFFFFFFFFFFFFFFFFFFFFFFFFFFFFFFFFFF MUL NOT AND SWAP1 DUP4 PUSH20 0xFFFFFFFFFFFFFFFFFFFFFFFFFFFFFFFFFFFFFFFF AND MUL OR SWAP1 SSTORE POP PUSH1 0x3 PUSH1 0x0 DUP2 SLOAD DUP1 SWAP3 SWAP2 SWAP1 PUSH2 0x65B SWAP1 PUSH2 0xECB JUMP JUMPDEST SWAP2 SWAP1 POP SSTORE POP PUSH1 0x0 PUSH8 0xFFFFFFFFFFFFFFFF DUP2 GT ISZERO PUSH2 0x67B JUMPI PUSH2 0x67A PUSH2 0xF14 JUMP JUMPDEST JUMPDEST PUSH1 0x40 MLOAD SWAP1 DUP1 DUP3 MSTORE DUP1 PUSH1 0x20 MUL PUSH1 0x20 ADD DUP3 ADD PUSH1 0x40 MSTORE DUP1 ISZERO PUSH2 0x6A9 JUMPI DUP2 PUSH1 0x20 ADD PUSH1 0x20 DUP3 MUL DUP1 CALLDATASIZE DUP4 CALLDATACOPY DUP1 DUP3 ADD SWAP2 POP POP SWAP1 POP JUMPDEST POP PUSH1 0x2 SWAP1 DUP1 MLOAD SWAP1 PUSH1 0x20 ADD SWAP1 PUSH2 0x6BF SWAP3 SWAP2 SWAP1 PUSH2 0xA3F JUMP JUMPDEST POP POP JUMP JUMPDEST PUSH1 0x0 PUSH1 0x6 SLOAD PUSH32 0x0 PUSH20 0xFFFFFFFFFFFFFFFFFFFFFFFFFFFFFFFFFFFFFFFF AND PUSH4 0x70A08231 ADDRESS PUSH1 0x40 MLOAD DUP3 PUSH4 0xFFFFFFFF AND PUSH1 0xE0 SHL DUP2 MSTORE PUSH1 0x4 ADD PUSH2 0x721 SWAP2 SWAP1 PUSH2 0xCD5 JUMP JUMPDEST PUSH1 0x20 PUSH1 0x40 MLOAD DUP1 DUP4 SUB DUP2 DUP7 GAS STATICCALL ISZERO DUP1 ISZERO PUSH2 0x73E JUMPI RETURNDATASIZE PUSH1 0x0 DUP1 RETURNDATACOPY RETURNDATASIZE PUSH1 0x0 REVERT JUMPDEST POP POP POP POP PUSH1 0x40 MLOAD RETURNDATASIZE PUSH1 0x1F NOT PUSH1 0x1F DUP3 ADD AND DUP3 ADD DUP1 PUSH1 0x40 MSTORE POP DUP2 ADD SWAP1 PUSH2 0x762 SWAP2 SWAP1 PUSH2 0xF58 JUMP JUMPDEST LT ISZERO PUSH2 0x7A3 JUMPI PUSH1 0x40 MLOAD PUSH32 0x8C379A000000000000000000000000000000000000000000000000000000000 DUP2 MSTORE PUSH1 0x4 ADD PUSH2 0x79A SWAP1 PUSH2 0xFD1 JUMP JUMPDEST PUSH1 0x40 MLOAD DUP1 SWAP2 SUB SWAP1 REVERT JUMPDEST PUSH2 0x7B1 PUSH1 0x5 SLOAD PUSH1 0x6 SLOAD PUSH2 0x880 JUMP JUMPDEST SWAP1 POP SWAP1 JUMP JUMPDEST PUSH7 0x2386F26FC10000 CALLVALUE GT PUSH2 0x7C9 JUMPI PUSH1 0x0 DUP1 REVERT JUMPDEST PUSH1 0x2 CALLER SWAP1 DUP1 PUSH1 0x1 DUP2 SLOAD ADD DUP1 DUP3 SSTORE DUP1 SWAP2 POP POP PUSH1 0x1 SWAP1 SUB SWAP1 PUSH1 0x0 MSTORE PUSH1 0x20 PUSH1 0x0 KECCAK256 ADD PUSH1 0x0 SWAP1 SWAP2 SWAP1 SWAP2 SWAP1 SWAP2 PUSH2 0x100 EXP DUP2 SLOAD DUP2 PUSH20 0xFFFFFFFFFFFFFFFFFFFFFFFFFFFFFFFFFFFFFFFF MUL NOT AND SWAP1 DUP4 PUSH20 0xFFFFFFFFFFFFFFFFFFFFFFFFFFFFFFFFFFFFFFFF AND MUL OR SWAP1 SSTORE POP JUMP JUMPDEST PUSH1 0x2 DUP2 DUP2 SLOAD DUP2 LT PUSH2 0x83E JUMPI PUSH1 0x0 DUP1 REVERT JUMPDEST SWAP1 PUSH1 0x0 MSTORE PUSH1 0x20 PUSH1 0x0 KECCAK256 ADD PUSH1 0x0 SWAP2 POP SLOAD SWAP1 PUSH2 0x100 EXP SWAP1 DIV PUSH20 0xFFFFFFFFFFFFFFFFFFFFFFFFFFFFFFFFFFFFFFFF AND DUP2 JUMP JUMPDEST DUP1 PUSH1 0x7 DUP2 SWAP1 SSTORE POP PUSH2 0x87C PUSH2 0x51A JUMP JUMPDEST POP POP JUMP JUMPDEST PUSH1 0x0 PUSH32 0x0 PUSH20 0xFFFFFFFFFFFFFFFFFFFFFFFFFFFFFFFFFFFFFFFF AND PUSH4 0x4000AEA0 PUSH32 0x0 DUP5 DUP7 PUSH1 0x0 PUSH1 0x40 MLOAD PUSH1 0x20 ADD PUSH2 0x8F4 SWAP3 SWAP2 SWAP1 PUSH2 0xFF1 JUMP JUMPDEST PUSH1 0x40 MLOAD PUSH1 0x20 DUP2 DUP4 SUB SUB DUP2 MSTORE SWAP1 PUSH1 0x40 MSTORE PUSH1 0x40 MLOAD DUP5 PUSH4 0xFFFFFFFF AND PUSH1 0xE0 SHL DUP2 MSTORE PUSH1 0x4 ADD PUSH2 0x921 SWAP4 SWAP3 SWAP2 SWAP1 PUSH2 0x10B3 JUMP JUMPDEST PUSH1 0x20 PUSH1 0x40 MLOAD DUP1 DUP4 SUB DUP2 PUSH1 0x0 DUP8 GAS CALL ISZERO DUP1 ISZERO PUSH2 0x940 JUMPI RETURNDATASIZE PUSH1 0x0 DUP1 RETURNDATACOPY RETURNDATASIZE PUSH1 0x0 REVERT JUMPDEST POP POP POP POP PUSH1 0x40 MLOAD RETURNDATASIZE PUSH1 0x1F NOT PUSH1 0x1F DUP3 ADD AND DUP3 ADD DUP1 PUSH1 0x40 MSTORE POP DUP2 ADD SWAP1 PUSH2 0x964 SWAP2 SWAP1 PUSH2 0x1129 JUMP JUMPDEST POP PUSH1 0x0 PUSH2 0x986 DUP5 PUSH1 0x0 ADDRESS PUSH1 0x0 DUP1 DUP10 DUP2 MSTORE PUSH1 0x20 ADD SWAP1 DUP2 MSTORE PUSH1 0x20 ADD PUSH1 0x0 KECCAK256 SLOAD PUSH2 0x9D0 JUMP JUMPDEST SWAP1 POP PUSH1 0x1 PUSH1 0x0 DUP1 DUP7 DUP2 MSTORE PUSH1 0x20 ADD SWAP1 DUP2 MSTORE PUSH1 0x20 ADD PUSH1 0x0 KECCAK256 SLOAD PUSH2 0x9A7 SWAP2 SWAP1 PUSH2 0x1156 JUMP JUMPDEST PUSH1 0x0 DUP1 DUP7 DUP2 MSTORE PUSH1 0x20 ADD SWAP1 DUP2 MSTORE PUSH1 0x20 ADD PUSH1 0x0 KECCAK256 DUP2 SWAP1 SSTORE POP PUSH2 0x9C7 DUP5 DUP3 PUSH2 0xA0C JUMP JUMPDEST SWAP2 POP POP SWAP3 SWAP2 POP POP JUMP JUMPDEST PUSH1 0x0 DUP5 DUP5 DUP5 DUP5 PUSH1 0x40 MLOAD PUSH1 0x20 ADD PUSH2 0x9E9 SWAP5 SWAP4 SWAP3 SWAP2 SWAP1 PUSH2 0x11AC JUMP JUMPDEST PUSH1 0x40 MLOAD PUSH1 0x20 DUP2 DUP4 SUB SUB DUP2 MSTORE SWAP1 PUSH1 0x40 MSTORE DUP1 MLOAD SWAP1 PUSH1 0x20 ADD KECCAK256 PUSH1 0x0 SHR SWAP1 POP SWAP5 SWAP4 POP POP POP POP JUMP JUMPDEST PUSH1 0x0 DUP3 DUP3 PUSH1 0x40 MLOAD PUSH1 0x20 ADD PUSH2 0xA21 SWAP3 SWAP2 SWAP1 PUSH2 0x1233 JUMP JUMPDEST PUSH1 0x40 MLOAD PUSH1 0x20 DUP2 DUP4 SUB SUB DUP2 MSTORE SWAP1 PUSH1 0x40 MSTORE DUP1 MLOAD SWAP1 PUSH1 0x20 ADD KECCAK256 SWAP1 POP SWAP3 SWAP2 POP POP JUMP JUMPDEST DUP3 DUP1 SLOAD DUP3 DUP3 SSTORE SWAP1 PUSH1 0x0 MSTORE PUSH1 0x20 PUSH1 0x0 KECCAK256 SWAP1 DUP2 ADD SWAP3 DUP3 ISZERO PUSH2 0xAB8 JUMPI SWAP2 PUSH1 0x20 MUL DUP3 ADD JUMPDEST DUP3 DUP2 GT ISZERO PUSH2 0xAB7 JUMPI DUP3 MLOAD DUP3 PUSH1 0x0 PUSH2 0x100 EXP DUP2 SLOAD DUP2 PUSH20 0xFFFFFFFFFFFFFFFFFFFFFFFFFFFFFFFFFFFFFFFF MUL NOT AND SWAP1 DUP4 PUSH20 0xFFFFFFFFFFFFFFFFFFFFFFFFFFFFFFFFFFFFFFFF AND MUL OR SWAP1 SSTORE POP SWAP2 PUSH1 0x20 ADD SWAP2 SWAP1 PUSH1 0x1 ADD SWAP1 PUSH2 0xA5F JUMP JUMPDEST JUMPDEST POP SWAP1 POP PUSH2 0xAC5 SWAP2 SWAP1 PUSH2 0xAC9 JUMP JUMPDEST POP SWAP1 JUMP JUMPDEST JUMPDEST DUP1 DUP3 GT ISZERO PUSH2 0xAE2 JUMPI PUSH1 0x0 DUP2 PUSH1 0x0 SWAP1 SSTORE POP PUSH1 0x1 ADD PUSH2 0xACA JUMP JUMPDEST POP SWAP1 JUMP JUMPDEST PUSH1 0x0 DUP2 SWAP1 POP SWAP2 SWAP1 POP JUMP JUMPDEST PUSH2 0xAF9 DUP2 PUSH2 0xAE6 JUMP JUMPDEST DUP3 MSTORE POP POP JUMP JUMPDEST PUSH1 0x0 PUSH1 0x20 DUP3 ADD SWAP1 POP PUSH2 0xB14 PUSH1 0x0 DUP4 ADD DUP5 PUSH2 0xAF0 JUMP JUMPDEST SWAP3 SWAP2 POP POP JUMP JUMPDEST PUSH1 0x0 DUP1 REVERT JUMPDEST PUSH2 0xB28 DUP2 PUSH2 0xAE6 JUMP JUMPDEST DUP2 EQ PUSH2 0xB33 JUMPI PUSH1 0x0 DUP1 REVERT JUMPDEST POP JUMP JUMPDEST PUSH1 0x0 DUP2 CALLDATALOAD SWAP1 POP PUSH2 0xB45 DUP2 PUSH2 0xB1F JUMP JUMPDEST SWAP3 SWAP2 POP POP JUMP JUMPDEST PUSH1 0x0 PUSH1 0x20 DUP3 DUP5 SUB SLT ISZERO PUSH2 0xB61 JUMPI PUSH2 0xB60 PUSH2 0xB1A JUMP JUMPDEST JUMPDEST PUSH1 0x0 PUSH2 0xB6F DUP5 DUP3 DUP6 ADD PUSH2 0xB36 JUMP JUMPDEST SWAP2 POP POP SWAP3 SWAP2 POP POP JUMP JUMPDEST PUSH1 0x0 PUSH20 0xFFFFFFFFFFFFFFFFFFFFFFFFFFFFFFFFFFFFFFFF DUP3 AND SWAP1 POP SWAP2 SWAP1 POP JUMP JUMPDEST PUSH1 0x0 PUSH2 0xBA3 DUP3 PUSH2 0xB78 JUMP JUMPDEST SWAP1 POP SWAP2 SWAP1 POP JUMP JUMPDEST PUSH2 0xBB3 DUP2 PUSH2 0xB98 JUMP JUMPDEST DUP3 MSTORE POP POP JUMP JUMPDEST PUSH1 0x0 PUSH1 0x20 DUP3 ADD SWAP1 POP PUSH2 0xBCE PUSH1 0x0 DUP4 ADD DUP5 PUSH2 0xBAA JUMP JUMPDEST SWAP3 SWAP2 POP POP JUMP JUMPDEST PUSH1 0x0 DUP2 MLOAD SWAP1 POP SWAP2 SWAP1 POP JUMP JUMPDEST PUSH1 0x0 DUP3 DUP3 MSTORE PUSH1 0x20 DUP3 ADD SWAP1 POP SWAP3 SWAP2 POP POP JUMP JUMPDEST PUSH1 0x0 DUP2 SWAP1 POP PUSH1 0x20 DUP3 ADD SWAP1 POP SWAP2 SWAP1 POP JUMP JUMPDEST PUSH2 0xC09 DUP2 PUSH2 0xB98 JUMP JUMPDEST DUP3 MSTORE POP POP JUMP JUMPDEST PUSH1 0x0 PUSH2 0xC1B DUP4 DUP4 PUSH2 0xC00 JUMP JUMPDEST PUSH1 0x20 DUP4 ADD SWAP1 POP SWAP3 SWAP2 POP POP JUMP JUMPDEST PUSH1 0x0 PUSH1 0x20 DUP3 ADD SWAP1 POP SWAP2 SWAP1 POP JUMP JUMPDEST PUSH1 0x0 PUSH2 0xC3F DUP3 PUSH2 0xBD4 JUMP JUMPDEST PUSH2 0xC49 DUP2 DUP6 PUSH2 0xBDF JUMP JUMPDEST SWAP4 POP PUSH2 0xC54 DUP4 PUSH2 0xBF0 JUMP JUMPDEST DUP1 PUSH1 0x0 JUMPDEST DUP4 DUP2 LT ISZERO PUSH2 0xC85 JUMPI DUP2 MLOAD PUSH2 0xC6C DUP9 DUP3 PUSH2 0xC0F JUMP JUMPDEST SWAP8 POP PUSH2 0xC77 DUP4 PUSH2 0xC27 JUMP JUMPDEST SWAP3 POP POP PUSH1 0x1 DUP2 ADD SWAP1 POP PUSH2 0xC58 JUMP JUMPDEST POP DUP6 SWAP4 POP POP POP POP SWAP3 SWAP2 POP POP JUMP JUMPDEST PUSH1 0x0 PUSH1 0x20 DUP3 ADD SWAP1 POP DUP2 DUP2 SUB PUSH1 0x0 DUP4 ADD MSTORE PUSH2 0xCAC DUP2 DUP5 PUSH2 0xC34 JUMP JUMPDEST SWAP1 POP SWAP3 SWAP2 POP POP JUMP JUMPDEST PUSH1 0x0 PUSH2 0xCBF DUP3 PUSH2 0xB78 JUMP JUMPDEST SWAP1 POP SWAP2 SWAP1 POP JUMP JUMPDEST PUSH2 0xCCF DUP2 PUSH2 0xCB4 JUMP JUMPDEST DUP3 MSTORE POP POP JUMP JUMPDEST PUSH1 0x0 PUSH1 0x20 DUP3 ADD SWAP1 POP PUSH2 0xCEA PUSH1 0x0 DUP4 ADD DUP5 PUSH2 0xCC6 JUMP JUMPDEST SWAP3 SWAP2 POP POP JUMP JUMPDEST PUSH1 0x0 DUP2 SWAP1 POP SWAP2 SWAP1 POP JUMP JUMPDEST PUSH2 0xD03 DUP2 PUSH2 0xCF0 JUMP JUMPDEST DUP2 EQ PUSH2 0xD0E JUMPI PUSH1 0x0 DUP1 REVERT JUMPDEST POP JUMP JUMPDEST PUSH1 0x0 DUP2 CALLDATALOAD SWAP1 POP PUSH2 0xD20 DUP2 PUSH2 0xCFA JUMP JUMPDEST SWAP3 SWAP2 POP POP JUMP JUMPDEST PUSH1 0x0 DUP1 PUSH1 0x40 DUP4 DUP6 SUB SLT ISZERO PUSH2 0xD3D JUMPI PUSH2 0xD3C PUSH2 0xB1A JUMP JUMPDEST JUMPDEST PUSH1 0x0 PUSH2 0xD4B DUP6 DUP3 DUP7 ADD PUSH2 0xD11 JUMP JUMPDEST SWAP3 POP POP PUSH1 0x20 PUSH2 0xD5C DUP6 DUP3 DUP7 ADD PUSH2 0xB36 JUMP JUMPDEST SWAP2 POP POP SWAP3 POP SWAP3 SWAP1 POP JUMP JUMPDEST PUSH2 0xD6F DUP2 PUSH2 0xCF0 JUMP JUMPDEST DUP3 MSTORE POP POP JUMP JUMPDEST PUSH1 0x0 PUSH1 0x20 DUP3 ADD SWAP1 POP PUSH2 0xD8A PUSH1 0x0 DUP4 ADD DUP5 PUSH2 0xD66 JUMP JUMPDEST SWAP3 SWAP2 POP POP JUMP JUMPDEST PUSH1 0x0 DUP3 DUP3 MSTORE PUSH1 0x20 DUP3 ADD SWAP1 POP SWAP3 SWAP2 POP POP JUMP JUMPDEST PUSH32 0x4F6E6C7920565246436F6F7264696E61746F722063616E2066756C66696C6C00 PUSH1 0x0 DUP3 ADD MSTORE POP JUMP JUMPDEST PUSH1 0x0 PUSH2 0xDD7 PUSH1 0x1F DUP4 PUSH2 0xD90 JUMP JUMPDEST SWAP2 POP PUSH2 0xDE2 DUP3 PUSH2 0xDA1 JUMP JUMPDEST PUSH1 0x20 DUP3 ADD SWAP1 POP SWAP2 SWAP1 POP JUMP JUMPDEST PUSH1 0x0 PUSH1 0x20 DUP3 ADD SWAP1 POP DUP2 DUP2 SUB PUSH1 0x0 DUP4 ADD MSTORE PUSH2 0xE06 DUP2 PUSH2 0xDCA JUMP JUMPDEST SWAP1 POP SWAP2 SWAP1 POP JUMP JUMPDEST PUSH32 0x4E487B7100000000000000000000000000000000000000000000000000000000 PUSH1 0x0 MSTORE PUSH1 0x12 PUSH1 0x4 MSTORE PUSH1 0x24 PUSH1 0x0 REVERT JUMPDEST PUSH1 0x0 PUSH2 0xE47 DUP3 PUSH2 0xAE6 JUMP JUMPDEST SWAP2 POP PUSH2 0xE52 DUP4 PUSH2 0xAE6 JUMP JUMPDEST SWAP3 POP DUP3 PUSH2 0xE62 JUMPI PUSH2 0xE61 PUSH2 0xE0D JUMP JUMPDEST JUMPDEST DUP3 DUP3 MOD SWAP1 POP SWAP3 SWAP2 POP POP JUMP JUMPDEST PUSH32 0x4E487B7100000000000000000000000000000000000000000000000000000000 PUSH1 0x0 MSTORE PUSH1 0x32 PUSH1 0x4 MSTORE PUSH1 0x24 PUSH1 0x0 REVERT JUMPDEST PUSH32 0x4E487B7100000000000000000000000000000000000000000000000000000000 PUSH1 0x0 MSTORE PUSH1 0x11 PUSH1 0x4 MSTORE PUSH1 0x24 PUSH1 0x0 REVERT JUMPDEST PUSH1 0x0 PUSH2 0xED6 DUP3 PUSH2 0xAE6 JUMP JUMPDEST SWAP2 POP PUSH32 0xFFFFFFFFFFFFFFFFFFFFFFFFFFFFFFFFFFFFFFFFFFFFFFFFFFFFFFFFFFFFFFFF DUP3 EQ ISZERO PUSH2 0xF09 JUMPI PUSH2 0xF08 PUSH2 0xE9C JUMP JUMPDEST JUMPDEST PUSH1 0x1 DUP3 ADD SWAP1 POP SWAP2 SWAP1 POP JUMP JUMPDEST PUSH32 0x4E487B7100000000000000000000000000000000000000000000000000000000 PUSH1 0x0 MSTORE PUSH1 0x41 PUSH1 0x4 MSTORE PUSH1 0x24 PUSH1 0x0 REVERT JUMPDEST PUSH1 0x0 DUP2 MLOAD SWAP1 POP PUSH2 0xF52 DUP2 PUSH2 0xB1F JUMP JUMPDEST SWAP3 SWAP2 POP POP JUMP JUMPDEST PUSH1 0x0 PUSH1 0x20 DUP3 DUP5 SUB SLT ISZERO PUSH2 0xF6E JUMPI PUSH2 0xF6D PUSH2 0xB1A JUMP JUMPDEST JUMPDEST PUSH1 0x0 PUSH2 0xF7C DUP5 DUP3 DUP6 ADD PUSH2 0xF43 JUMP JUMPDEST SWAP2 POP POP SWAP3 SWAP2 POP POP JUMP JUMPDEST PUSH32 0x4E6F7420656E6F756768204C696E6B20696E20636F6E74726163740000000000 PUSH1 0x0 DUP3 ADD MSTORE POP JUMP JUMPDEST PUSH1 0x0 PUSH2 0xFBB PUSH1 0x1B DUP4 PUSH2 0xD90 JUMP JUMPDEST SWAP2 POP PUSH2 0xFC6 DUP3 PUSH2 0xF85 JUMP JUMPDEST PUSH1 0x20 DUP3 ADD SWAP1 POP SWAP2 SWAP1 POP JUMP JUMPDEST PUSH1 0x0 PUSH1 0x20 DUP3 ADD SWAP1 POP DUP2 DUP2 SUB PUSH1 0x0 DUP4 ADD MSTORE PUSH2 0xFEA DUP2 PUSH2 0xFAE JUMP JUMPDEST SWAP1 POP SWAP2 SWAP1 POP JUMP JUMPDEST PUSH1 0x0 PUSH1 0x40 DUP3 ADD SWAP1 POP PUSH2 0x1006 PUSH1 0x0 DUP4 ADD DUP6 PUSH2 0xD66 JUMP JUMPDEST PUSH2 0x1013 PUSH1 0x20 DUP4 ADD DUP5 PUSH2 0xAF0 JUMP JUMPDEST SWAP4 SWAP3 POP POP POP JUMP JUMPDEST PUSH1 0x0 DUP2 MLOAD SWAP1 POP SWAP2 SWAP1 POP JUMP JUMPDEST PUSH1 0x0 DUP3 DUP3 MSTORE PUSH1 0x20 DUP3 ADD SWAP1 POP SWAP3 SWAP2 POP POP JUMP JUMPDEST PUSH1 0x0 JUMPDEST DUP4 DUP2 LT ISZERO PUSH2 0x1054 JUMPI DUP1 DUP3 ADD MLOAD DUP2 DUP5 ADD MSTORE PUSH1 0x20 DUP2 ADD SWAP1 POP PUSH2 0x1039 JUMP JUMPDEST DUP4 DUP2 GT ISZERO PUSH2 0x1063 JUMPI PUSH1 0x0 DUP5 DUP5 ADD MSTORE JUMPDEST POP POP POP POP JUMP JUMPDEST PUSH1 0x0 PUSH1 0x1F NOT PUSH1 0x1F DUP4 ADD AND SWAP1 POP SWAP2 SWAP1 POP JUMP JUMPDEST PUSH1 0x0 PUSH2 0x1085 DUP3 PUSH2 0x101A JUMP JUMPDEST PUSH2 0x108F DUP2 DUP6 PUSH2 0x1025 JUMP JUMPDEST SWAP4 POP PUSH2 0x109F DUP2 DUP6 PUSH1 0x20 DUP7 ADD PUSH2 0x1036 JUMP JUMPDEST PUSH2 0x10A8 DUP2 PUSH2 0x1069 JUMP JUMPDEST DUP5 ADD SWAP2 POP POP SWAP3 SWAP2 POP POP JUMP JUMPDEST PUSH1 0x0 PUSH1 0x60 DUP3 ADD SWAP1 POP PUSH2 0x10C8 PUSH1 0x0 DUP4 ADD DUP7 PUSH2 0xCC6 JUMP JUMPDEST PUSH2 0x10D5 PUSH1 0x20 DUP4 ADD DUP6 PUSH2 0xAF0 JUMP JUMPDEST DUP2 DUP2 SUB PUSH1 0x40 DUP4 ADD MSTORE PUSH2 0x10E7 DUP2 DUP5 PUSH2 0x107A JUMP JUMPDEST SWAP1 POP SWAP5 SWAP4 POP POP POP POP JUMP JUMPDEST PUSH1 0x0 DUP2 ISZERO ISZERO SWAP1 POP SWAP2 SWAP1 POP JUMP JUMPDEST PUSH2 0x1106 DUP2 PUSH2 0x10F1 JUMP JUMPDEST DUP2 EQ PUSH2 0x1111 JUMPI PUSH1 0x0 DUP1 REVERT JUMPDEST POP JUMP JUMPDEST PUSH1 0x0 DUP2 MLOAD SWAP1 POP PUSH2 0x1123 DUP2 PUSH2 0x10FD JUMP JUMPDEST SWAP3 SWAP2 POP POP JUMP JUMPDEST PUSH1 0x0 PUSH1 0x20 DUP3 DUP5 SUB SLT ISZERO PUSH2 0x113F JUMPI PUSH2 0x113E PUSH2 0xB1A JUMP JUMPDEST JUMPDEST PUSH1 0x0 PUSH2 0x114D DUP5 DUP3 DUP6 ADD PUSH2 0x1114 JUMP JUMPDEST SWAP2 POP POP SWAP3 SWAP2 POP POP JUMP JUMPDEST PUSH1 0x0 PUSH2 0x1161 DUP3 PUSH2 0xAE6 JUMP JUMPDEST SWAP2 POP PUSH2 0x116C DUP4 PUSH2 0xAE6 JUMP JUMPDEST SWAP3 POP DUP3 PUSH32 0xFFFFFFFFFFFFFFFFFFFFFFFFFFFFFFFFFFFFFFFFFFFFFFFFFFFFFFFFFFFFFFFF SUB DUP3 GT ISZERO PUSH2 0x11A1 JUMPI PUSH2 0x11A0 PUSH2 0xE9C JUMP JUMPDEST JUMPDEST DUP3 DUP3 ADD SWAP1 POP SWAP3 SWAP2 POP POP JUMP JUMPDEST PUSH1 0x0 PUSH1 0x80 DUP3 ADD SWAP1 POP PUSH2 0x11C1 PUSH1 0x0 DUP4 ADD DUP8 PUSH2 0xD66 JUMP JUMPDEST PUSH2 0x11CE PUSH1 0x20 DUP4 ADD DUP7 PUSH2 0xAF0 JUMP JUMPDEST PUSH2 0x11DB PUSH1 0x40 DUP4 ADD DUP6 PUSH2 0xCC6 JUMP JUMPDEST PUSH2 0x11E8 PUSH1 0x60 DUP4 ADD DUP5 PUSH2 0xAF0 JUMP JUMPDEST SWAP6 SWAP5 POP POP POP POP POP JUMP JUMPDEST PUSH1 0x0 DUP2 SWAP1 POP SWAP2 SWAP1 POP JUMP JUMPDEST PUSH2 0x120C PUSH2 0x1207 DUP3 PUSH2 0xCF0 JUMP JUMPDEST PUSH2 0x11F1 JUMP JUMPDEST DUP3 MSTORE POP POP JUMP JUMPDEST PUSH1 0x0 DUP2 SWAP1 POP SWAP2 SWAP1 POP JUMP JUMPDEST PUSH2 0x122D PUSH2 0x1228 DUP3 PUSH2 0xAE6 JUMP JUMPDEST PUSH2 0x1212 JUMP JUMPDEST DUP3 MSTORE POP POP JUMP JUMPDEST PUSH1 0x0 PUSH2 0x123F DUP3 DUP6 PUSH2 0x11FB JUMP JUMPDEST PUSH1 0x20 DUP3 ADD SWAP2 POP PUSH2 0x124F DUP3 DUP5 PUSH2 0x121C JUMP JUMPDEST PUSH1 0x20 DUP3 ADD SWAP2 POP DUP2 SWAP1 POP SWAP4 SWAP3 POP POP POP JUMP INVALID LOG2 PUSH5 0x6970667358 0x22 SLT KECCAK256 SMOD 0x4E 0x5F ORIGIN 0xAD PUSH19 0x15B47F67B5F37CCD7C3E2822F32728ADE492FB DUP15 EXTCODESIZE 0xD3 0xAD 0x1E 0xFC SWAP1 PUSH5 0x736F6C6343 STOP ADDMOD SIGNEXTEND STOP CALLER "
		},
		"gasEstimates": {
			"creation": {
				"codeDepositCost": "951400",
				"executionCost": "infinite",
				"totalCost": "infinite"
			},
			"external": {
				"enter()": "48786",
				"getBalance()": "340",
				"getPlayers()": "infinite",
				"getRandomNumber()": "infinite",
				"getWinnerByLottery(uint256)": "2888",
				"lotteryHistory(uint256)": "2928",
				"lotteryID()": "2496",
				"owner()": "2537",
				"payWinner()": "infinite",
				"pickWinner()": "infinite",
				"players(uint256)": "5044",
				"randomResult()": "2474",
				"rawFulfillRandomness(bytes32,uint256)": "infinite"
			},
			"internal": {
				"fulfillRandomness(bytes32,uint256)": "infinite"
			}
		},
		"methodIdentifiers": {
			"enter()": "e97dcb62",
			"getBalance()": "12065fe0",
			"getPlayers()": "8b5b9ccc",
			"getRandomNumber()": "dbdff2c1",
			"getWinnerByLottery(uint256)": "281d098d",
			"lotteryHistory(uint256)": "6d6fe230",
			"lotteryID()": "9be064c1",
			"owner()": "8da5cb5b",
			"payWinner()": "be71248a",
			"pickWinner()": "5d495aea",
			"players(uint256)": "f71d96cb",
			"randomResult()": "42619f66",
			"rawFulfillRandomness(bytes32,uint256)": "94985ddd"
		}
	},
	"abi": [
		{
			"inputs": [],
			"stateMutability": "nonpayable",
			"type": "constructor"
		},
		{
			"inputs": [],
			"name": "enter",
			"outputs": [],
			"stateMutability": "payable",
			"type": "function"
		},
		{
			"inputs": [],
			"name": "getBalance",
			"outputs": [
				{
					"internalType": "uint256",
					"name": "",
					"type": "uint256"
				}
			],
			"stateMutability": "view",
			"type": "function"
		},
		{
			"inputs": [],
			"name": "getPlayers",
			"outputs": [
				{
					"internalType": "address payable[]",
					"name": "",
					"type": "address[]"
				}
			],
			"stateMutability": "view",
			"type": "function"
		},
		{
			"inputs": [],
			"name": "getRandomNumber",
			"outputs": [
				{
					"internalType": "bytes32",
					"name": "requestId",
					"type": "bytes32"
				}
			],
			"stateMutability": "nonpayable",
			"type": "function"
		},
		{
			"inputs": [
				{
					"internalType": "uint256",
					"name": "lotteryidentity",
					"type": "uint256"
				}
			],
			"name": "getWinnerByLottery",
			"outputs": [
				{
					"internalType": "address payable",
					"name": "",
					"type": "address"
				}
			],
			"stateMutability": "view",
			"type": "function"
		},
		{
			"inputs": [
				{
					"internalType": "uint256",
					"name": "",
					"type": "uint256"
				}
			],
			"name": "lotteryHistory",
			"outputs": [
				{
					"internalType": "address payable",
					"name": "",
					"type": "address"
				}
			],
			"stateMutability": "view",
			"type": "function"
		},
		{
			"inputs": [],
			"name": "lotteryID",
			"outputs": [
				{
					"internalType": "uint256",
					"name": "",
					"type": "uint256"
				}
			],
			"stateMutability": "view",
			"type": "function"
		},
		{
			"inputs": [],
			"name": "owner",
			"outputs": [
				{
					"internalType": "address",
					"name": "",
					"type": "address"
				}
			],
			"stateMutability": "view",
			"type": "function"
		},
		{
			"inputs": [],
			"name": "payWinner",
			"outputs": [],
			"stateMutability": "nonpayable",
			"type": "function"
		},
		{
			"inputs": [],
			"name": "pickWinner",
			"outputs": [],
			"stateMutability": "nonpayable",
			"type": "function"
		},
		{
			"inputs": [
				{
					"internalType": "uint256",
					"name": "",
					"type": "uint256"
				}
			],
			"name": "players",
			"outputs": [
				{
					"internalType": "address payable",
					"name": "",
					"type": "address"
				}
			],
			"stateMutability": "view",
			"type": "function"
		},
		{
			"inputs": [],
			"name": "randomResult",
			"outputs": [
				{
					"internalType": "uint256",
					"name": "",
					"type": "uint256"
				}
			],
			"stateMutability": "view",
			"type": "function"
		},
		{
			"inputs": [
				{
					"internalType": "bytes32",
					"name": "requestId",
					"type": "bytes32"
				},
				{
					"internalType": "uint256",
					"name": "randomness",
					"type": "uint256"
				}
			],
			"name": "rawFulfillRandomness",
			"outputs": [],
			"stateMutability": "nonpayable",
			"type": "function"
		}
	]
}