{
	"data": {
		"bytecode": {
			"linkReferences": {},
			"object": "6101606040523480156200001257600080fd5b506040516200505d3803806200505d83398181016040528101906200003891906200045a565b806004836040518060400160405280601181526020017f506f6c79426f6e6420476f7665726e6f720000000000000000000000000000008152508062000083620001b760201b60201c565b60008280519060200120905060008280519060200120905060007f8b73c3c69bb8fe3d512ecc4cf759cc79239f7b179b0ffacaa9a75d522b39400f90508260e081815250508161010081815250504660a08181525050620000ec818484620001f460201b60201c565b608081815250503073ffffffffffffffffffffffffffffffffffffffff1660c08173ffffffffffffffffffffffffffffffffffffffff1660601b8152505080610120818152505050505050508060009080519060200190620001509291906200037c565b50508073ffffffffffffffffffffffffffffffffffffffff166101408173ffffffffffffffffffffffffffffffffffffffff1660601b81525050506200019c816200023060201b60201c565b50620001ae81620002d260201b60201c565b5050506200077c565b60606040518060400160405280600181526020017f3100000000000000000000000000000000000000000000000000000000000000815250905090565b600083838346306040516020016200021195949392919062000528565b6040516020818303038152906040528051906020012090509392505050565b620002406200037360201b60201c565b81111562000285576040517f08c379a00000000000000000000000000000000000000000000000000000000081526004016200027c9062000585565b60405180910390fd5b60006003549050816003819055507f0553476bf02ef2726e8ce5ced78d63e26e602e4a2257b1f559418e24b46339978183604051620002c6929190620005a7565b60405180910390a15050565b7f08f74ea46ef7894f65eabfb5e6e695de773a000b47c529ab559178069b226401600460009054906101000a900473ffffffffffffffffffffffffffffffffffffffff168260405162000327929190620004fb565b60405180910390a180600460006101000a81548173ffffffffffffffffffffffffffffffffffffffff021916908373ffffffffffffffffffffffffffffffffffffffff16021790555050565b60006064905090565b8280546200038a9062000669565b90600052602060002090601f016020900481019282620003ae5760008555620003fa565b82601f10620003c957805160ff1916838001178555620003fa565b82800160010185558215620003fa579182015b82811115620003f9578251825591602001919060010190620003dc565b5b5090506200040991906200040d565b5090565b5b80821115620004285760008160009055506001016200040e565b5090565b6000815190506200043d8162000748565b92915050565b600081519050620004548162000762565b92915050565b60008060408385031215620004745762000473620006ce565b5b600062000484858286016200042c565b9250506020620004978582860162000443565b9150509250929050565b620004ac81620005e5565b82525050565b620004bd816200060d565b82525050565b6000620004d2604383620005d4565b9150620004df82620006d3565b606082019050919050565b620004f5816200065f565b82525050565b6000604082019050620005126000830185620004a1565b620005216020830184620004a1565b9392505050565b600060a0820190506200053f6000830188620004b2565b6200054e6020830187620004b2565b6200055d6040830186620004b2565b6200056c6060830185620004ea565b6200057b6080830184620004a1565b9695505050505050565b60006020820190508181036000830152620005a081620004c3565b9050919050565b6000604082019050620005be6000830185620004ea565b620005cd6020830184620004ea565b9392505050565b600082825260208201905092915050565b6000620005f2826200063f565b9050919050565b600062000606826200063f565b9050919050565b6000819050919050565b60006200062482620005e5565b9050919050565b60006200063882620005f9565b9050919050565b600073ffffffffffffffffffffffffffffffffffffffff82169050919050565b6000819050919050565b600060028204905060018216806200068257607f821691505b602082108114156200069957620006986200069f565b5b50919050565b7f4e487b7100000000000000000000000000000000000000000000000000000000600052602260045260246000fd5b600080fd5b7f476f7665726e6f72566f74657351756f72756d4672616374696f6e3a2071756f60008201527f72756d4e756d657261746f72206f7665722071756f72756d44656e6f6d696e6160208201527f746f720000000000000000000000000000000000000000000000000000000000604082015250565b620007538162000617565b81146200075f57600080fd5b50565b6200076d816200062b565b81146200077957600080fd5b50565b60805160a05160c05160601c60e05161010051610120516101405160601c614872620007eb600039600081816112d901528181611ad10152611b9601526000611e1e01526000611e6001526000611e3f01526000611d7401526000611dca01526000611df301526148726000f3fe6080604052600436106101c65760003560e01c80637b3c71d3116100f7578063c01f9e3711610095578063deaaa7cc11610064578063deaaa7cc14610731578063eb9019d41461075c578063f8ce560a14610799578063fc0c546a146107d65761020c565b8063c01f9e3714610661578063c59057e41461069e578063d33219b4146106db578063dd4e2ba5146107065761020c565b8063a7713a70116100d1578063a7713a70146105a5578063a890c910146105d0578063ab58fb8e146105f9578063b58131b0146106365761020c565b80637b3c71d3146105005780637d5e81e21461053d57806397c3d3341461057a5761020c565b80633932abb111610164578063438596321161013e578063438596321461041c578063544ffc9c1461045957806354fd4d501461049857806356781388146104c35761020c565b80633932abb1146103775780633bccf4fd146103a25780633e4f49e6146103df5761020c565b806306fdde03116101a057806306fdde03146102a2578063160cbed7146102cd5780632656227d1461030a5780632d63f6931461033a5761020c565b806301ffc9a71461021157806302a251a31461024e57806306f3f9e6146102795761020c565b3661020c573073ffffffffffffffffffffffffffffffffffffffff166101ea610801565b73ffffffffffffffffffffffffffffffffffffffff161461020a57600080fd5b005b600080fd5b34801561021d57600080fd5b5061023860048036038101906102339190612d95565b610810565b604051610245919061374c565b60405180910390f35b34801561025a57600080fd5b50610263610822565b6040516102709190613aa9565b60405180910390f35b34801561028557600080fd5b506102a0600480360381019061029b9190612def565b61082c565b005b3480156102ae57600080fd5b506102b76108b4565b6040516102c49190613887565b60405180910390f35b3480156102d957600080fd5b506102f460048036038101906102ef9190612ba9565b610946565b6040516103019190613aa9565b60405180910390f35b610324600480360381019061031f9190612ba9565b610c1e565b6040516103319190613aa9565b60405180910390f35b34801561034657600080fd5b50610361600480360381019061035c9190612def565b610d51565b60405161036e9190613aa9565b60405180910390f35b34801561038357600080fd5b5061038c610dbf565b6040516103999190613aa9565b60405180910390f35b3480156103ae57600080fd5b506103c960048036038101906103c49190612f3d565b610dc8565b6040516103d69190613aa9565b60405180910390f35b3480156103eb57600080fd5b5061040660048036038101906104019190612def565b610e52565b604051610413919061386c565b60405180910390f35b34801561042857600080fd5b50610443600480360381019061043e9190612e49565b610e64565b604051610450919061374c565b60405180910390f35b34801561046557600080fd5b50610480600480360381019061047b9190612def565b610ecf565b60405161048f93929190613b9d565b60405180910390f35b3480156104a457600080fd5b506104ad610f07565b6040516104ba9190613887565b60405180910390f35b3480156104cf57600080fd5b506104ea60048036038101906104e59190612e89565b610f44565b6040516104f79190613aa9565b60405180910390f35b34801561050c57600080fd5b5061052760048036038101906105229190612ec9565b610f75565b6040516105349190613aa9565b60405180910390f35b34801561054957600080fd5b50610564600480360381019061055f9190612c64565b610fdd565b6040516105719190613aa9565b60405180910390f35b34801561058657600080fd5b5061058f610ff5565b60405161059c9190613aa9565b60405180910390f35b3480156105b157600080fd5b506105ba610ffe565b6040516105c79190613aa9565b60405180910390f35b3480156105dc57600080fd5b506105f760048036038101906105f29190612dc2565b611008565b005b34801561060557600080fd5b50610620600480360381019061061b9190612def565b611090565b60405161062d9190613aa9565b60405180910390f35b34801561064257600080fd5b5061064b61116c565b6040516106589190613aa9565b60405180910390f35b34801561066d57600080fd5b5061068860048036038101906106839190612def565b61117c565b6040516106959190613aa9565b60405180910390f35b3480156106aa57600080fd5b506106c560048036038101906106c09190612ba9565b6111ea565b6040516106d29190613aa9565b60405180910390f35b3480156106e757600080fd5b506106f0611226565b6040516106fd91906135a7565b60405180910390f35b34801561071257600080fd5b5061071b611250565b6040516107289190613887565b60405180910390f35b34801561073d57600080fd5b5061074661128d565b6040516107539190613767565b60405180910390f35b34801561076857600080fd5b50610783600480360381019061077e9190612b69565b6112b1565b6040516107909190613aa9565b60405180910390f35b3480156107a557600080fd5b506107c060048036038101906107bb9190612def565b6112c5565b6040516107cd9190613aa9565b60405180910390f35b3480156107e257600080fd5b506107eb6112d7565b6040516107f89190613851565b60405180910390f35b600061080b6112fb565b905090565b600061081b82611325565b9050919050565b600061b2fa905090565b610834610801565b73ffffffffffffffffffffffffffffffffffffffff1661085261139f565b73ffffffffffffffffffffffffffffffffffffffff16146108a8576040517f08c379a000000000000000000000000000000000000000000000000000000000815260040161089f906138c9565b60405180910390fd5b6108b1816113a7565b50565b6060600080546108c39061414c565b80601f01602080910402602001604051908101604052809291908181526020018280546108ef9061414c565b801561093c5780601f106109115761010080835404028352916020019161093c565b820191906000526020600020905b81548152906001019060200180831161091f57829003601f168201915b5050505050905090565b600080610955868686866111ea565b90506004600781111561096b5761096a614217565b5b61097482610e52565b600781111561098657610985614217565b5b146109c6576040517f08c379a00000000000000000000000000000000000000000000000000000000081526004016109bd90613a29565b60405180910390fd5b6000600460009054906101000a900473ffffffffffffffffffffffffffffffffffffffff1673ffffffffffffffffffffffffffffffffffffffff1663f27a0c926040518163ffffffff1660e01b815260040160206040518083038186803b158015610a3057600080fd5b505afa158015610a44573d6000803e3d6000fd5b505050506040513d601f19601f82011682018060405250810190610a689190612e1c565b9050600460009054906101000a900473ffffffffffffffffffffffffffffffffffffffff1673ffffffffffffffffffffffffffffffffffffffff1663b1c5f4278888886000896040518663ffffffff1660e01b8152600401610ace95949392919061366e565b60206040518083038186803b158015610ae657600080fd5b505afa158015610afa573d6000803e3d6000fd5b505050506040513d601f19601f82011682018060405250810190610b1e9190612d68565b6005600084815260200190815260200160002081905550600460009054906101000a900473ffffffffffffffffffffffffffffffffffffffff1673ffffffffffffffffffffffffffffffffffffffff16638f2a0bb0888888600089876040518763ffffffff1660e01b8152600401610b9b969594939291906136d6565b600060405180830381600087803b158015610bb557600080fd5b505af1158015610bc9573d6000803e3d6000fd5b505050507f9a2e42fd6722813d69113e7d0079d3d940171428df7373df9c7f7617cfda2892828242610bfb9190613e63565b604051610c09929190613b74565b60405180910390a18192505050949350505050565b600080610c2d868686866111ea565b90506000610c3a82610e52565b905060046007811115610c5057610c4f614217565b5b816007811115610c6357610c62614217565b5b1480610c93575060056007811115610c7e57610c7d614217565b5b816007811115610c9157610c90614217565b5b145b610cd2576040517f08c379a0000000000000000000000000000000000000000000000000000000008152600401610cc990613a29565b60405180910390fd5b600180600084815260200190815260200160002060020160006101000a81548160ff0219169083151502179055507f712ae1383f79ac853f8d882153778e0260ef8f03b504e2866e0593e04d2b291f82604051610d2f9190613aa9565b60405180910390a1610d44828888888861143c565b8192505050949350505050565b6000610dae600160008481526020019081526020016000206000016040518060200160405290816000820160009054906101000a900467ffffffffffffffff1667ffffffffffffffff1667ffffffffffffffff1681525050611450565b67ffffffffffffffff169050919050565b60006001905090565b600080610e29610e217f150214d74d59b7d1e90c73fc22ef3d991dd0a76b046543d4d80ab92d2a50328f8989604051602001610e06939291906137d5565b6040516020818303038152906040528051906020012061145e565b868686611478565b9050610e46878288604051806020016040528060008152506114a3565b91505095945050505050565b6000610e5d826115f7565b9050919050565b60006002600084815260200190815260200160002060030160008373ffffffffffffffffffffffffffffffffffffffff1673ffffffffffffffffffffffffffffffffffffffff16815260200190815260200160002060009054906101000a900460ff16905092915050565b600080600080600260008681526020019081526020016000209050806000015481600101548260020154935093509350509193909250565b60606040518060400160405280600181526020017f3100000000000000000000000000000000000000000000000000000000000000815250905090565b600080610f4f61139f565b9050610f6c848285604051806020016040528060008152506114a3565b91505092915050565b600080610f8061139f565b9050610fd286828787878080601f016020809104026020016040519081016040528093929190818152602001838380828437600081840152601f19601f820116905080830192505050505050506114a3565b915050949350505050565b6000610feb8585858561172e565b9050949350505050565b60006064905090565b6000600354905090565b611010610801565b73ffffffffffffffffffffffffffffffffffffffff1661102e61139f565b73ffffffffffffffffffffffffffffffffffffffff1614611084576040517f08c379a000000000000000000000000000000000000000000000000000000000815260040161107b906138c9565b60405180910390fd5b61108d81611a2e565b50565b600080600460009054906101000a900473ffffffffffffffffffffffffffffffffffffffff1673ffffffffffffffffffffffffffffffffffffffff1663d45c443560056000868152602001908152602001600020546040518263ffffffff1660e01b81526004016111019190613767565b60206040518083038186803b15801561111957600080fd5b505afa15801561112d573d6000803e3d6000fd5b505050506040513d601f19601f820116820180604052508101906111519190612e1c565b9050600181146111615780611164565b60005b915050919050565b6000678ac7230489e80000905090565b60006111d9600160008481526020019081526020016000206001016040518060200160405290816000820160009054906101000a900467ffffffffffffffff1667ffffffffffffffff1667ffffffffffffffff1681525050611450565b67ffffffffffffffff169050919050565b6000848484846040516020016112039493929190613614565b6040516020818303038152906040528051906020012060001c9050949350505050565b6000600460009054906101000a900473ffffffffffffffffffffffffffffffffffffffff16905090565b60606040518060400160405280602081526020017f737570706f72743d627261766f2671756f72756d3d666f722c6162737461696e815250905090565b7f150214d74d59b7d1e90c73fc22ef3d991dd0a76b046543d4d80ab92d2a50328f81565b60006112bd8383611acd565b905092915050565b60006112d082611b82565b9050919050565b7f000000000000000000000000000000000000000000000000000000000000000081565b6000600460009054906101000a900473ffffffffffffffffffffffffffffffffffffffff16905090565b60007f6e665ced000000000000000000000000000000000000000000000000000000007bffffffffffffffffffffffffffffffffffffffffffffffffffffffff1916827bffffffffffffffffffffffffffffffffffffffffffffffffffffffff19161480611398575061139782611c58565b5b9050919050565b600033905090565b6113af610ff5565b8111156113f1576040517f08c379a00000000000000000000000000000000000000000000000000000000081526004016113e8906138e9565b60405180910390fd5b60006003549050816003819055507f0553476bf02ef2726e8ce5ced78d63e26e602e4a2257b1f559418e24b46339978183604051611430929190613b74565b60405180910390a15050565b6114498585858585611cd2565b5050505050565b600081600001519050919050565b600061147161146b611d70565b83611e8a565b9050919050565b600080600061148987878787611ebd565b9150915061149681611fca565b8192505050949350505050565b600080600160008781526020019081526020016000209050600160078111156114cf576114ce614217565b5b6114d887610e52565b60078111156114ea576114e9614217565b5b1461152a576040517f08c379a0000000000000000000000000000000000000000000000000000000008152600401611521906139a9565b60405180910390fd5b600061158886611579846000016040518060200160405290816000820160009054906101000a900467ffffffffffffffff1667ffffffffffffffff1667ffffffffffffffff1681525050611450565b67ffffffffffffffff166112b1565b90506115968787878461219f565b8573ffffffffffffffffffffffffffffffffffffffff167fb8e138887d0aa13bab447e82de9d5c1777041ecd21ca36ba824ff1e6c07ddda4888784886040516115e29493929190613bd4565b60405180910390a28092505050949350505050565b600080611603836123a5565b90506004600781111561161957611618614217565b5b81600781111561162c5761162b614217565b5b1461163a5780915050611729565b6000600560008581526020019081526020016000205490506000801b811415611667578192505050611729565b600460009054906101000a900473ffffffffffffffffffffffffffffffffffffffff1673ffffffffffffffffffffffffffffffffffffffff16632ab0f529826040518263ffffffff1660e01b81526004016116c29190613767565b60206040518083038186803b1580156116da57600080fd5b505afa1580156116ee573d6000803e3d6000fd5b505050506040513d601f19601f820116820180604052508101906117129190612d3b565b1561172257600792505050611729565b6005925050505b919050565b600061173861116c565b61174e336001436117499190613f82565b6112b1565b101561178f576040517f08c379a000000000000000000000000000000000000000000000000000000000815260040161178690613909565b60405180910390fd5b60006117a486868686805190602001206111ea565b905084518651146117ea576040517f08c379a00000000000000000000000000000000000000000000000000000000081526004016117e190613949565b60405180910390fd5b835186511461182e576040517f08c379a000000000000000000000000000000000000000000000000000000000815260040161182590613949565b60405180910390fd5b6000865111611872576040517f08c379a0000000000000000000000000000000000000000000000000000000008152600401611869906139c9565b60405180910390fd5b60006001600083815260200190815260200160002090506118d2816000016040518060200160405290816000820160009054906101000a900467ffffffffffffffff1667ffffffffffffffff1667ffffffffffffffff1681525050612582565b611911576040517f08c379a000000000000000000000000000000000000000000000000000000000815260040161190890613a89565b60405180910390fd5b600061192361191e610dbf565b61259c565b61192c4361259c565b6119369190613eb9565b9050600061194a611945610822565b61259c565b826119559190613eb9565b905061196d82846000016125f390919063ffffffff16565b61198381846001016125f390919063ffffffff16565b7f7d84a6263ae0d98d3329bd7b46bb4e8d6f98cd35a7adb45c274c8b7fd5ebd5e0846119ad61139f565b8b8b8d5167ffffffffffffffff8111156119ca576119c9614275565b5b6040519080825280602002602001820160405280156119fd57816020015b60608152602001906001900390816119e85790505b508c88888e604051611a1799989796959493929190613ac4565b60405180910390a183945050505050949350505050565b7f08f74ea46ef7894f65eabfb5e6e695de773a000b47c529ab559178069b226401600460009054906101000a900473ffffffffffffffffffffffffffffffffffffffff1682604051611a819291906135c2565b60405180910390a180600460006101000a81548173ffffffffffffffffffffffffffffffffffffffff021916908373ffffffffffffffffffffffffffffffffffffffff16021790555050565b60007f000000000000000000000000000000000000000000000000000000000000000073ffffffffffffffffffffffffffffffffffffffff16633a46b1a884846040518363ffffffff1660e01b8152600401611b2a9291906135eb565b60206040518083038186803b158015611b4257600080fd5b505afa158015611b56573d6000803e3d6000fd5b505050506040513d601f19601f82011682018060405250810190611b7a9190612e1c565b905092915050565b6000611b8c610ff5565b611b94610ffe565b7f000000000000000000000000000000000000000000000000000000000000000073ffffffffffffffffffffffffffffffffffffffff16638e539e8c856040518263ffffffff1660e01b8152600401611bed9190613aa9565b60206040518083038186803b158015611c0557600080fd5b505afa158015611c19573d6000803e3d6000fd5b505050506040513d601f19601f82011682018060405250810190611c3d9190612e1c565b611c479190613f28565b611c519190613ef7565b9050919050565b60007fbf26d897000000000000000000000000000000000000000000000000000000007bffffffffffffffffffffffffffffffffffffffffffffffffffffffff1916827bffffffffffffffffffffffffffffffffffffffffffffffffffffffff19161480611ccb5750611cca82612622565b5b9050919050565b600460009054906101000a900473ffffffffffffffffffffffffffffffffffffffff1673ffffffffffffffffffffffffffffffffffffffff1663e38335e5348686866000876040518763ffffffff1660e01b8152600401611d3795949392919061366e565b6000604051808303818588803b158015611d5057600080fd5b505af1158015611d64573d6000803e3d6000fd5b50505050505050505050565b60007f000000000000000000000000000000000000000000000000000000000000000073ffffffffffffffffffffffffffffffffffffffff163073ffffffffffffffffffffffffffffffffffffffff16148015611dec57507f000000000000000000000000000000000000000000000000000000000000000046145b15611e19577f00000000000000000000000000000000000000000000000000000000000000009050611e87565b611e847f00000000000000000000000000000000000000000000000000000000000000007f00000000000000000000000000000000000000000000000000000000000000007f000000000000000000000000000000000000000000000000000000000000000061268c565b90505b90565b60008282604051602001611e9f929190613570565b60405160208183030381529060405280519060200120905092915050565b6000807f7fffffffffffffffffffffffffffffff5d576e7357a4501ddfe92f46681b20a08360001c1115611ef8576000600391509150611fc1565b601b8560ff1614158015611f105750601c8560ff1614155b15611f22576000600491509150611fc1565b600060018787878760405160008152602001604052604051611f47949392919061380c565b6020604051602081039080840390855afa158015611f69573d6000803e3d6000fd5b505050602060405103519050600073ffffffffffffffffffffffffffffffffffffffff168173ffffffffffffffffffffffffffffffffffffffff161415611fb857600060019250925050611fc1565b80600092509250505b94509492505050565b60006004811115611fde57611fdd614217565b5b816004811115611ff157611ff0614217565b5b1415611ffc5761219c565b600160048111156120105761200f614217565b5b81600481111561202357612022614217565b5b1415612064576040517f08c379a000000000000000000000000000000000000000000000000000000000815260040161205b906138a9565b60405180910390fd5b6002600481111561207857612077614217565b5b81600481111561208b5761208a614217565b5b14156120cc576040517f08c379a00000000000000000000000000000000000000000000000000000000081526004016120c390613929565b60405180910390fd5b600360048111156120e0576120df614217565b5b8160048111156120f3576120f2614217565b5b1415612134576040517f08c379a000000000000000000000000000000000000000000000000000000000815260040161212b90613969565b60405180910390fd5b60048081111561214757612146614217565b5b81600481111561215a57612159614217565b5b141561219b576040517f08c379a0000000000000000000000000000000000000000000000000000000008152600401612192906139e9565b60405180910390fd5b5b50565b60006002600086815260200190815260200160002090508060030160008573ffffffffffffffffffffffffffffffffffffffff1673ffffffffffffffffffffffffffffffffffffffff16815260200190815260200160002060009054906101000a900460ff1615612245576040517f08c379a000000000000000000000000000000000000000000000000000000000815260040161223c90613989565b60405180910390fd5b60018160030160008673ffffffffffffffffffffffffffffffffffffffff1673ffffffffffffffffffffffffffffffffffffffff16815260200190815260200160002060006101000a81548160ff021916908315150217905550600060028111156122b3576122b2614217565b5b60ff168360ff1614156122e057818160000160008282546122d49190613e63565b9250508190555061239e565b600160028111156122f4576122f3614217565b5b60ff168360ff16141561232157818160010160008282546123159190613e63565b9250508190555061239d565b60028081111561233457612333614217565b5b60ff168360ff16141561236157818160020160008282546123559190613e63565b9250508190555061239c565b6040517f08c379a000000000000000000000000000000000000000000000000000000000815260040161239390613a69565b60405180910390fd5b5b5b5050505050565b60008060016000848152602001908152602001600020604051806080016040529081600082016040518060200160405290816000820160009054906101000a900467ffffffffffffffff1667ffffffffffffffff1667ffffffffffffffff16815250508152602001600182016040518060200160405290816000820160009054906101000a900467ffffffffffffffff1667ffffffffffffffff1667ffffffffffffffff168152505081526020016002820160009054906101000a900460ff161515151581526020016002820160019054906101000a900460ff161515151581525050905080604001511561249e57600791505061257d565b8060600151156124b257600291505061257d565b436124c08260000151611450565b67ffffffffffffffff16106124d957600091505061257d565b436124e78260200151611450565b67ffffffffffffffff161061250057600191505061257d565b61250d81602001516126c6565b156125425761251b836126f2565b801561252c575061252b83612739565b5b61253757600361253a565b60045b91505061257d565b6040517f08c379a000000000000000000000000000000000000000000000000000000000815260040161257490613a49565b60405180910390fd5b919050565b600080826000015167ffffffffffffffff16149050919050565b600067ffffffffffffffff80168211156125eb576040517f08c379a00000000000000000000000000000000000000000000000000000000081526004016125e290613a09565b60405180910390fd5b819050919050565b808260000160006101000a81548167ffffffffffffffff021916908367ffffffffffffffff1602179055505050565b60007f01ffc9a7000000000000000000000000000000000000000000000000000000007bffffffffffffffffffffffffffffffffffffffffffffffffffffffff1916827bffffffffffffffffffffffffffffffffffffffffffffffffffffffff1916149050919050565b600083838346306040516020016126a7959493929190613782565b6040516020818303038152906040528051906020012090509392505050565b60006126d182612764565b80156126eb575043826000015167ffffffffffffffff1611155b9050919050565b6000806002600084815260200190815260200160002090508060020154816001015461271e9190613e63565b61272f61272a85610d51565b6112c5565b1115915050919050565b6000806002600084815260200190815260200160002090508060000154816001015411915050919050565b600080826000015167ffffffffffffffff16119050919050565b600061279161278c84613c45565b613c20565b905080838252602082019050828560208602820111156127b4576127b36142ae565b5b60005b858110156127e457816127ca8882612970565b8452602084019350602083019250506001810190506127b7565b5050509392505050565b60006128016127fc84613c71565b613c20565b90508083825260208201905082856020860282011115612824576128236142ae565b5b60005b8581101561287257813567ffffffffffffffff81111561284a576128496142a9565b5b8086016128578982612a63565b85526020850194506020840193505050600181019050612827565b5050509392505050565b600061288f61288a84613c9d565b613c20565b905080838252602082019050828560208602820111156128b2576128b16142ae565b5b60005b858110156128e257816128c88882612b2a565b8452602084019350602083019250506001810190506128b5565b5050509392505050565b60006128ff6128fa84613cc9565b613c20565b90508281526020810184848401111561291b5761291a6142b3565b5b61292684828561410a565b509392505050565b600061294161293c84613cfa565b613c20565b90508281526020810184848401111561295d5761295c6142b3565b5b61296884828561410a565b509392505050565b60008135905061297f8161479b565b92915050565b600082601f83011261299a576129996142a9565b5b81356129aa84826020860161277e565b91505092915050565b600082601f8301126129c8576129c76142a9565b5b81356129d88482602086016127ee565b91505092915050565b600082601f8301126129f6576129f56142a9565b5b8135612a0684826020860161287c565b91505092915050565b600081519050612a1e816147b2565b92915050565b600081359050612a33816147c9565b92915050565b600081519050612a48816147c9565b92915050565b600081359050612a5d816147e0565b92915050565b600082601f830112612a7857612a776142a9565b5b8135612a888482602086016128ec565b91505092915050565b600081359050612aa0816147f7565b92915050565b60008083601f840112612abc57612abb6142a9565b5b8235905067ffffffffffffffff811115612ad957612ad86142a4565b5b602083019150836001820283011115612af557612af46142ae565b5b9250929050565b600082601f830112612b1157612b106142a9565b5b8135612b2184826020860161292e565b91505092915050565b600081359050612b398161480e565b92915050565b600081519050612b4e8161480e565b92915050565b600081359050612b6381614825565b92915050565b60008060408385031215612b8057612b7f6142bd565b5b6000612b8e85828601612970565b9250506020612b9f85828601612b2a565b9150509250929050565b60008060008060808587031215612bc357612bc26142bd565b5b600085013567ffffffffffffffff811115612be157612be06142b8565b5b612bed87828801612985565b945050602085013567ffffffffffffffff811115612c0e57612c0d6142b8565b5b612c1a878288016129e1565b935050604085013567ffffffffffffffff811115612c3b57612c3a6142b8565b5b612c47878288016129b3565b9250506060612c5887828801612a24565b91505092959194509250565b60008060008060808587031215612c7e57612c7d6142bd565b5b600085013567ffffffffffffffff811115612c9c57612c9b6142b8565b5b612ca887828801612985565b945050602085013567ffffffffffffffff811115612cc957612cc86142b8565b5b612cd5878288016129e1565b935050604085013567ffffffffffffffff811115612cf657612cf56142b8565b5b612d02878288016129b3565b925050606085013567ffffffffffffffff811115612d2357612d226142b8565b5b612d2f87828801612afc565b91505092959194509250565b600060208284031215612d5157612d506142bd565b5b6000612d5f84828501612a0f565b91505092915050565b600060208284031215612d7e57612d7d6142bd565b5b6000612d8c84828501612a39565b91505092915050565b600060208284031215612dab57612daa6142bd565b5b6000612db984828501612a4e565b91505092915050565b600060208284031215612dd857612dd76142bd565b5b6000612de684828501612a91565b91505092915050565b600060208284031215612e0557612e046142bd565b5b6000612e1384828501612b2a565b91505092915050565b600060208284031215612e3257612e316142bd565b5b6000612e4084828501612b3f565b91505092915050565b60008060408385031215612e6057612e5f6142bd565b5b6000612e6e85828601612b2a565b9250506020612e7f85828601612970565b9150509250929050565b60008060408385031215612ea057612e9f6142bd565b5b6000612eae85828601612b2a565b9250506020612ebf85828601612b54565b9150509250929050565b60008060008060608587031215612ee357612ee26142bd565b5b6000612ef187828801612b2a565b9450506020612f0287828801612b54565b935050604085013567ffffffffffffffff811115612f2357612f226142b8565b5b612f2f87828801612aa6565b925092505092959194509250565b600080600080600060a08688031215612f5957612f586142bd565b5b6000612f6788828901612b2a565b9550506020612f7888828901612b54565b9450506040612f8988828901612b54565b9350506060612f9a88828901612a24565b9250506080612fab88828901612a24565b9150509295509295909350565b6000612fc48383613010565b60208301905092915050565b6000612fdc8383613209565b905092915050565b6000612ff0838361326f565b905092915050565b60006130048383613534565b60208301905092915050565b61301981613fb6565b82525050565b61302881613fb6565b82525050565b600061303982613d6b565b6130438185613de1565b935061304e83613d2b565b8060005b8381101561307f5781516130668882612fb8565b975061307183613dad565b925050600181019050613052565b5085935050505092915050565b600061309782613d76565b6130a18185613df2565b9350836020820285016130b385613d3b565b8060005b858110156130ef57848403895281516130d08582612fd0565b94506130db83613dba565b925060208a019950506001810190506130b7565b50829750879550505050505092915050565b600061310c82613d81565b6131168185613e03565b93508360208202850161312885613d4b565b8060005b8581101561316457848403895281516131458582612fe4565b945061315083613dc7565b925060208a0199505060018101905061312c565b50829750879550505050505092915050565b600061318182613d8c565b61318b8185613e14565b935061319683613d5b565b8060005b838110156131c75781516131ae8882612ff8565b97506131b983613dd4565b92505060018101905061319a565b5085935050505092915050565b6131dd81613fda565b82525050565b6131ec81613fe6565b82525050565b6132036131fe82613fe6565b6141af565b82525050565b600061321482613d97565b61321e8185613e25565b935061322e818560208601614119565b613237816142c2565b840191505092915050565b61324b81614096565b82525050565b61325a816140a8565b82525050565b613269816140ba565b82525050565b600061327a82613da2565b6132848185613e36565b9350613294818560208601614119565b61329d816142c2565b840191505092915050565b60006132b382613da2565b6132bd8185613e47565b93506132cd818560208601614119565b6132d6816142c2565b840191505092915050565b60006132ee601883613e47565b91506132f9826142e0565b602082019050919050565b6000613311601883613e47565b915061331c82614309565b602082019050919050565b6000613334604383613e47565b915061333f82614332565b606082019050919050565b6000613357604383613e47565b9150613362826143a7565b606082019050919050565b600061337a601f83613e47565b91506133858261441c565b602082019050919050565b600061339d600283613e58565b91506133a882614445565b600282019050919050565b60006133c0602183613e47565b91506133cb8261446e565b604082019050919050565b60006133e3602283613e47565b91506133ee826144bd565b604082019050919050565b6000613406602783613e47565b91506134118261450c565b604082019050919050565b6000613429602383613e47565b91506134348261455b565b604082019050919050565b600061344c601883613e47565b9150613457826145aa565b602082019050919050565b600061346f602283613e47565b915061347a826145d3565b604082019050919050565b6000613492602683613e47565b915061349d82614622565b604082019050919050565b60006134b5602183613e47565b91506134c082614671565b604082019050919050565b60006134d8601d83613e47565b91506134e3826146c0565b602082019050919050565b60006134fb603583613e47565b9150613506826146e9565b604082019050919050565b600061351e602183613e47565b915061352982614738565b604082019050919050565b61353d8161406b565b82525050565b61354c8161406b565b82525050565b61355b816140f8565b82525050565b61356a81614089565b82525050565b600061357b82613390565b915061358782856131f2565b60208201915061359782846131f2565b6020820191508190509392505050565b60006020820190506135bc600083018461301f565b92915050565b60006040820190506135d7600083018561301f565b6135e4602083018461301f565b9392505050565b6000604082019050613600600083018561301f565b61360d6020830184613543565b9392505050565b6000608082019050818103600083015261362e818761302e565b905081810360208301526136428186613176565b90508181036040830152613656818561308c565b905061366560608301846131e3565b95945050505050565b600060a0820190508181036000830152613688818861302e565b9050818103602083015261369c8187613176565b905081810360408301526136b0818661308c565b90506136bf6060830185613260565b6136cc60808301846131e3565b9695505050505050565b600060c08201905081810360008301526136f0818961302e565b905081810360208301526137048188613176565b90508181036040830152613718818761308c565b90506137276060830186613260565b61373460808301856131e3565b61374160a0830184613543565b979650505050505050565b600060208201905061376160008301846131d4565b92915050565b600060208201905061377c60008301846131e3565b92915050565b600060a08201905061379760008301886131e3565b6137a460208301876131e3565b6137b160408301866131e3565b6137be6060830185613543565b6137cb608083018461301f565b9695505050505050565b60006060820190506137ea60008301866131e3565b6137f76020830185613543565b6138046040830184613561565b949350505050565b600060808201905061382160008301876131e3565b61382e6020830186613561565b61383b60408301856131e3565b61384860608301846131e3565b95945050505050565b60006020820190506138666000830184613242565b92915050565b60006020820190506138816000830184613251565b92915050565b600060208201905081810360008301526138a181846132a8565b905092915050565b600060208201905081810360008301526138c2816132e1565b9050919050565b600060208201905081810360008301526138e281613304565b9050919050565b6000602082019050818103600083015261390281613327565b9050919050565b600060208201905081810360008301526139228161334a565b9050919050565b600060208201905081810360008301526139428161336d565b9050919050565b60006020820190508181036000830152613962816133b3565b9050919050565b60006020820190508181036000830152613982816133d6565b9050919050565b600060208201905081810360008301526139a2816133f9565b9050919050565b600060208201905081810360008301526139c28161341c565b9050919050565b600060208201905081810360008301526139e28161343f565b9050919050565b60006020820190508181036000830152613a0281613462565b9050919050565b60006020820190508181036000830152613a2281613485565b9050919050565b60006020820190508181036000830152613a42816134a8565b9050919050565b60006020820190508181036000830152613a62816134cb565b9050919050565b60006020820190508181036000830152613a82816134ee565b9050919050565b60006020820190508181036000830152613aa281613511565b9050919050565b6000602082019050613abe6000830184613543565b92915050565b600061012082019050613ada600083018c613543565b613ae7602083018b61301f565b8181036040830152613af9818a61302e565b90508181036060830152613b0d8189613176565b90508181036080830152613b218188613101565b905081810360a0830152613b35818761308c565b9050613b4460c0830186613552565b613b5160e0830185613552565b818103610100830152613b6481846132a8565b90509a9950505050505050505050565b6000604082019050613b896000830185613543565b613b966020830184613543565b9392505050565b6000606082019050613bb26000830186613543565b613bbf6020830185613543565b613bcc6040830184613543565b949350505050565b6000608082019050613be96000830187613543565b613bf66020830186613561565b613c036040830185613543565b8181036060830152613c1581846132a8565b905095945050505050565b6000613c2a613c3b565b9050613c36828261417e565b919050565b6000604051905090565b600067ffffffffffffffff821115613c6057613c5f614275565b5b602082029050602081019050919050565b600067ffffffffffffffff821115613c8c57613c8b614275565b5b602082029050602081019050919050565b600067ffffffffffffffff821115613cb857613cb7614275565b5b602082029050602081019050919050565b600067ffffffffffffffff821115613ce457613ce3614275565b5b613ced826142c2565b9050602081019050919050565b600067ffffffffffffffff821115613d1557613d14614275565b5b613d1e826142c2565b9050602081019050919050565b6000819050602082019050919050565b6000819050602082019050919050565b6000819050602082019050919050565b6000819050602082019050919050565b600081519050919050565b600081519050919050565b600081519050919050565b600081519050919050565b600081519050919050565b600081519050919050565b6000602082019050919050565b6000602082019050919050565b6000602082019050919050565b6000602082019050919050565b600082825260208201905092915050565b600082825260208201905092915050565b600082825260208201905092915050565b600082825260208201905092915050565b600082825260208201905092915050565b600082825260208201905092915050565b600082825260208201905092915050565b600081905092915050565b6000613e6e8261406b565b9150613e798361406b565b9250827fffffffffffffffffffffffffffffffffffffffffffffffffffffffffffffffff03821115613eae57613ead6141b9565b5b828201905092915050565b6000613ec482614075565b9150613ecf83614075565b92508267ffffffffffffffff03821115613eec57613eeb6141b9565b5b828201905092915050565b6000613f028261406b565b9150613f0d8361406b565b925082613f1d57613f1c6141e8565b5b828204905092915050565b6000613f338261406b565b9150613f3e8361406b565b9250817fffffffffffffffffffffffffffffffffffffffffffffffffffffffffffffffff0483118215151615613f7757613f766141b9565b5b828202905092915050565b6000613f8d8261406b565b9150613f988361406b565b925082821015613fab57613faa6141b9565b5b828203905092915050565b6000613fc18261404b565b9050919050565b6000613fd38261404b565b9050919050565b60008115159050919050565b6000819050919050565b60007fffffffff0000000000000000000000000000000000000000000000000000000082169050919050565b600061402782613fc8565b9050919050565b600081905061403c82614787565b919050565b6000819050919050565b600073ffffffffffffffffffffffffffffffffffffffff82169050919050565b6000819050919050565b600067ffffffffffffffff82169050919050565b600060ff82169050919050565b60006140a1826140d4565b9050919050565b60006140b38261402e565b9050919050565b60006140cd6140c883614041565b6142d3565b9050919050565b60006140df826140e6565b9050919050565b60006140f18261404b565b9050919050565b600061410382614075565b9050919050565b82818337600083830152505050565b60005b8381101561413757808201518184015260208101905061411c565b83811115614146576000848401525b50505050565b6000600282049050600182168061416457607f821691505b6020821081141561417857614177614246565b5b50919050565b614187826142c2565b810181811067ffffffffffffffff821117156141a6576141a5614275565b5b80604052505050565b6000819050919050565b7f4e487b7100000000000000000000000000000000000000000000000000000000600052601160045260246000fd5b7f4e487b7100000000000000000000000000000000000000000000000000000000600052601260045260246000fd5b7f4e487b7100000000000000000000000000000000000000000000000000000000600052602160045260246000fd5b7f4e487b7100000000000000000000000000000000000000000000000000000000600052602260045260246000fd5b7f4e487b7100000000000000000000000000000000000000000000000000000000600052604160045260246000fd5b600080fd5b600080fd5b600080fd5b600080fd5b600080fd5b600080fd5b6000601f19601f8301169050919050565b60008160001b9050919050565b7f45434453413a20696e76616c6964207369676e61747572650000000000000000600082015250565b7f476f7665726e6f723a206f6e6c79476f7665726e616e63650000000000000000600082015250565b7f476f7665726e6f72566f74657351756f72756d4672616374696f6e3a2071756f60008201527f72756d4e756d657261746f72206f7665722071756f72756d44656e6f6d696e6160208201527f746f720000000000000000000000000000000000000000000000000000000000604082015250565b7f476f7665726e6f72436f6d7061746962696c697479427261766f3a2070726f7060008201527f6f73657220766f7465732062656c6f772070726f706f73616c2074687265736860208201527f6f6c640000000000000000000000000000000000000000000000000000000000604082015250565b7f45434453413a20696e76616c6964207369676e6174757265206c656e67746800600082015250565b7f1901000000000000000000000000000000000000000000000000000000000000600082015250565b7f476f7665726e6f723a20696e76616c69642070726f706f73616c206c656e677460008201527f6800000000000000000000000000000000000000000000000000000000000000602082015250565b7f45434453413a20696e76616c6964207369676e6174757265202773272076616c60008201527f7565000000000000000000000000000000000000000000000000000000000000602082015250565b7f476f7665726e6f72566f74696e6753696d706c653a20766f746520616c72656160008201527f6479206361737400000000000000000000000000000000000000000000000000602082015250565b7f476f7665726e6f723a20766f7465206e6f742063757272656e746c792061637460008201527f6976650000000000000000000000000000000000000000000000000000000000602082015250565b7f476f7665726e6f723a20656d7074792070726f706f73616c0000000000000000600082015250565b7f45434453413a20696e76616c6964207369676e6174757265202776272076616c60008201527f7565000000000000000000000000000000000000000000000000000000000000602082015250565b7f53616665436173743a2076616c756520646f65736e27742066697420696e203660008201527f3420626974730000000000000000000000000000000000000000000000000000602082015250565b7f476f7665726e6f723a2070726f706f73616c206e6f742073756363657373667560008201527f6c00000000000000000000000000000000000000000000000000000000000000602082015250565b7f476f7665726e6f723a20756e6b6e6f776e2070726f706f73616c206964000000600082015250565b7f476f7665726e6f72566f74696e6753696d706c653a20696e76616c696420766160008201527f6c756520666f7220656e756d20566f7465547970650000000000000000000000602082015250565b7f476f7665726e6f723a2070726f706f73616c20616c726561647920657869737460008201527f7300000000000000000000000000000000000000000000000000000000000000602082015250565b6008811061479857614797614217565b5b50565b6147a481613fb6565b81146147af57600080fd5b50565b6147bb81613fda565b81146147c657600080fd5b50565b6147d281613fe6565b81146147dd57600080fd5b50565b6147e981613ff0565b81146147f457600080fd5b50565b6148008161401c565b811461480b57600080fd5b50565b6148178161406b565b811461482257600080fd5b50565b61482e81614089565b811461483957600080fd5b5056fea26469706673582212200a58e9957f14571e611c0ab4715914fc549edf18ef40cdf4cdcaa762ab36222564736f6c63430008070033",
			"opcodes": "PUSH2 0x160 PUSH1 0x40 MSTORE CALLVALUE DUP1 ISZERO PUSH3 0x12 JUMPI PUSH1 0x0 DUP1 REVERT JUMPDEST POP PUSH1 0x40 MLOAD PUSH3 0x505D CODESIZE SUB DUP1 PUSH3 0x505D DUP4 CODECOPY DUP2 DUP2 ADD PUSH1 0x40 MSTORE DUP2 ADD SWAP1 PUSH3 0x38 SWAP2 SWAP1 PUSH3 0x45A JUMP JUMPDEST DUP1 PUSH1 0x4 DUP4 PUSH1 0x40 MLOAD DUP1 PUSH1 0x40 ADD PUSH1 0x40 MSTORE DUP1 PUSH1 0x11 DUP2 MSTORE PUSH1 0x20 ADD PUSH32 0x506F6C79426F6E6420476F7665726E6F72000000000000000000000000000000 DUP2 MSTORE POP DUP1 PUSH3 0x83 PUSH3 0x1B7 PUSH1 0x20 SHL PUSH1 0x20 SHR JUMP JUMPDEST PUSH1 0x0 DUP3 DUP1 MLOAD SWAP1 PUSH1 0x20 ADD KECCAK256 SWAP1 POP PUSH1 0x0 DUP3 DUP1 MLOAD SWAP1 PUSH1 0x20 ADD KECCAK256 SWAP1 POP PUSH1 0x0 PUSH32 0x8B73C3C69BB8FE3D512ECC4CF759CC79239F7B179B0FFACAA9A75D522B39400F SWAP1 POP DUP3 PUSH1 0xE0 DUP2 DUP2 MSTORE POP POP DUP2 PUSH2 0x100 DUP2 DUP2 MSTORE POP POP CHAINID PUSH1 0xA0 DUP2 DUP2 MSTORE POP POP PUSH3 0xEC DUP2 DUP5 DUP5 PUSH3 0x1F4 PUSH1 0x20 SHL PUSH1 0x20 SHR JUMP JUMPDEST PUSH1 0x80 DUP2 DUP2 MSTORE POP POP ADDRESS PUSH20 0xFFFFFFFFFFFFFFFFFFFFFFFFFFFFFFFFFFFFFFFF AND PUSH1 0xC0 DUP2 PUSH20 0xFFFFFFFFFFFFFFFFFFFFFFFFFFFFFFFFFFFFFFFF AND PUSH1 0x60 SHL DUP2 MSTORE POP POP DUP1 PUSH2 0x120 DUP2 DUP2 MSTORE POP POP POP POP POP POP POP DUP1 PUSH1 0x0 SWAP1 DUP1 MLOAD SWAP1 PUSH1 0x20 ADD SWAP1 PUSH3 0x150 SWAP3 SWAP2 SWAP1 PUSH3 0x37C JUMP JUMPDEST POP POP DUP1 PUSH20 0xFFFFFFFFFFFFFFFFFFFFFFFFFFFFFFFFFFFFFFFF AND PUSH2 0x140 DUP2 PUSH20 0xFFFFFFFFFFFFFFFFFFFFFFFFFFFFFFFFFFFFFFFF AND PUSH1 0x60 SHL DUP2 MSTORE POP POP POP PUSH3 0x19C DUP2 PUSH3 0x230 PUSH1 0x20 SHL PUSH1 0x20 SHR JUMP JUMPDEST POP PUSH3 0x1AE DUP2 PUSH3 0x2D2 PUSH1 0x20 SHL PUSH1 0x20 SHR JUMP JUMPDEST POP POP POP PUSH3 0x77C JUMP JUMPDEST PUSH1 0x60 PUSH1 0x40 MLOAD DUP1 PUSH1 0x40 ADD PUSH1 0x40 MSTORE DUP1 PUSH1 0x1 DUP2 MSTORE PUSH1 0x20 ADD PUSH32 0x3100000000000000000000000000000000000000000000000000000000000000 DUP2 MSTORE POP SWAP1 POP SWAP1 JUMP JUMPDEST PUSH1 0x0 DUP4 DUP4 DUP4 CHAINID ADDRESS PUSH1 0x40 MLOAD PUSH1 0x20 ADD PUSH3 0x211 SWAP6 SWAP5 SWAP4 SWAP3 SWAP2 SWAP1 PUSH3 0x528 JUMP JUMPDEST PUSH1 0x40 MLOAD PUSH1 0x20 DUP2 DUP4 SUB SUB DUP2 MSTORE SWAP1 PUSH1 0x40 MSTORE DUP1 MLOAD SWAP1 PUSH1 0x20 ADD KECCAK256 SWAP1 POP SWAP4 SWAP3 POP POP POP JUMP JUMPDEST PUSH3 0x240 PUSH3 0x373 PUSH1 0x20 SHL PUSH1 0x20 SHR JUMP JUMPDEST DUP2 GT ISZERO PUSH3 0x285 JUMPI PUSH1 0x40 MLOAD PUSH32 0x8C379A000000000000000000000000000000000000000000000000000000000 DUP2 MSTORE PUSH1 0x4 ADD PUSH3 0x27C SWAP1 PUSH3 0x585 JUMP JUMPDEST PUSH1 0x40 MLOAD DUP1 SWAP2 SUB SWAP1 REVERT JUMPDEST PUSH1 0x0 PUSH1 0x3 SLOAD SWAP1 POP DUP2 PUSH1 0x3 DUP2 SWAP1 SSTORE POP PUSH32 0x553476BF02EF2726E8CE5CED78D63E26E602E4A2257B1F559418E24B4633997 DUP2 DUP4 PUSH1 0x40 MLOAD PUSH3 0x2C6 SWAP3 SWAP2 SWAP1 PUSH3 0x5A7 JUMP JUMPDEST PUSH1 0x40 MLOAD DUP1 SWAP2 SUB SWAP1 LOG1 POP POP JUMP JUMPDEST PUSH32 0x8F74EA46EF7894F65EABFB5E6E695DE773A000B47C529AB559178069B226401 PUSH1 0x4 PUSH1 0x0 SWAP1 SLOAD SWAP1 PUSH2 0x100 EXP SWAP1 DIV PUSH20 0xFFFFFFFFFFFFFFFFFFFFFFFFFFFFFFFFFFFFFFFF AND DUP3 PUSH1 0x40 MLOAD PUSH3 0x327 SWAP3 SWAP2 SWAP1 PUSH3 0x4FB JUMP JUMPDEST PUSH1 0x40 MLOAD DUP1 SWAP2 SUB SWAP1 LOG1 DUP1 PUSH1 0x4 PUSH1 0x0 PUSH2 0x100 EXP DUP2 SLOAD DUP2 PUSH20 0xFFFFFFFFFFFFFFFFFFFFFFFFFFFFFFFFFFFFFFFF MUL NOT AND SWAP1 DUP4 PUSH20 0xFFFFFFFFFFFFFFFFFFFFFFFFFFFFFFFFFFFFFFFF AND MUL OR SWAP1 SSTORE POP POP JUMP JUMPDEST PUSH1 0x0 PUSH1 0x64 SWAP1 POP SWAP1 JUMP JUMPDEST DUP3 DUP1 SLOAD PUSH3 0x38A SWAP1 PUSH3 0x669 JUMP JUMPDEST SWAP1 PUSH1 0x0 MSTORE PUSH1 0x20 PUSH1 0x0 KECCAK256 SWAP1 PUSH1 0x1F ADD PUSH1 0x20 SWAP1 DIV DUP2 ADD SWAP3 DUP3 PUSH3 0x3AE JUMPI PUSH1 0x0 DUP6 SSTORE PUSH3 0x3FA JUMP JUMPDEST DUP3 PUSH1 0x1F LT PUSH3 0x3C9 JUMPI DUP1 MLOAD PUSH1 0xFF NOT AND DUP4 DUP1 ADD OR DUP6 SSTORE PUSH3 0x3FA JUMP JUMPDEST DUP3 DUP1 ADD PUSH1 0x1 ADD DUP6 SSTORE DUP3 ISZERO PUSH3 0x3FA JUMPI SWAP2 DUP3 ADD JUMPDEST DUP3 DUP2 GT ISZERO PUSH3 0x3F9 JUMPI DUP3 MLOAD DUP3 SSTORE SWAP2 PUSH1 0x20 ADD SWAP2 SWAP1 PUSH1 0x1 ADD SWAP1 PUSH3 0x3DC JUMP JUMPDEST JUMPDEST POP SWAP1 POP PUSH3 0x409 SWAP2 SWAP1 PUSH3 0x40D JUMP JUMPDEST POP SWAP1 JUMP JUMPDEST JUMPDEST DUP1 DUP3 GT ISZERO PUSH3 0x428 JUMPI PUSH1 0x0 DUP2 PUSH1 0x0 SWAP1 SSTORE POP PUSH1 0x1 ADD PUSH3 0x40E JUMP JUMPDEST POP SWAP1 JUMP JUMPDEST PUSH1 0x0 DUP2 MLOAD SWAP1 POP PUSH3 0x43D DUP2 PUSH3 0x748 JUMP JUMPDEST SWAP3 SWAP2 POP POP JUMP JUMPDEST PUSH1 0x0 DUP2 MLOAD SWAP1 POP PUSH3 0x454 DUP2 PUSH3 0x762 JUMP JUMPDEST SWAP3 SWAP2 POP POP JUMP JUMPDEST PUSH1 0x0 DUP1 PUSH1 0x40 DUP4 DUP6 SUB SLT ISZERO PUSH3 0x474 JUMPI PUSH3 0x473 PUSH3 0x6CE JUMP JUMPDEST JUMPDEST PUSH1 0x0 PUSH3 0x484 DUP6 DUP3 DUP7 ADD PUSH3 0x42C JUMP JUMPDEST SWAP3 POP POP PUSH1 0x20 PUSH3 0x497 DUP6 DUP3 DUP7 ADD PUSH3 0x443 JUMP JUMPDEST SWAP2 POP POP SWAP3 POP SWAP3 SWAP1 POP JUMP JUMPDEST PUSH3 0x4AC DUP2 PUSH3 0x5E5 JUMP JUMPDEST DUP3 MSTORE POP POP JUMP JUMPDEST PUSH3 0x4BD DUP2 PUSH3 0x60D JUMP JUMPDEST DUP3 MSTORE POP POP JUMP JUMPDEST PUSH1 0x0 PUSH3 0x4D2 PUSH1 0x43 DUP4 PUSH3 0x5D4 JUMP JUMPDEST SWAP2 POP PUSH3 0x4DF DUP3 PUSH3 0x6D3 JUMP JUMPDEST PUSH1 0x60 DUP3 ADD SWAP1 POP SWAP2 SWAP1 POP JUMP JUMPDEST PUSH3 0x4F5 DUP2 PUSH3 0x65F JUMP JUMPDEST DUP3 MSTORE POP POP JUMP JUMPDEST PUSH1 0x0 PUSH1 0x40 DUP3 ADD SWAP1 POP PUSH3 0x512 PUSH1 0x0 DUP4 ADD DUP6 PUSH3 0x4A1 JUMP JUMPDEST PUSH3 0x521 PUSH1 0x20 DUP4 ADD DUP5 PUSH3 0x4A1 JUMP JUMPDEST SWAP4 SWAP3 POP POP POP JUMP JUMPDEST PUSH1 0x0 PUSH1 0xA0 DUP3 ADD SWAP1 POP PUSH3 0x53F PUSH1 0x0 DUP4 ADD DUP9 PUSH3 0x4B2 JUMP JUMPDEST PUSH3 0x54E PUSH1 0x20 DUP4 ADD DUP8 PUSH3 0x4B2 JUMP JUMPDEST PUSH3 0x55D PUSH1 0x40 DUP4 ADD DUP7 PUSH3 0x4B2 JUMP JUMPDEST PUSH3 0x56C PUSH1 0x60 DUP4 ADD DUP6 PUSH3 0x4EA JUMP JUMPDEST PUSH3 0x57B PUSH1 0x80 DUP4 ADD DUP5 PUSH3 0x4A1 JUMP JUMPDEST SWAP7 SWAP6 POP POP POP POP POP POP JUMP JUMPDEST PUSH1 0x0 PUSH1 0x20 DUP3 ADD SWAP1 POP DUP2 DUP2 SUB PUSH1 0x0 DUP4 ADD MSTORE PUSH3 0x5A0 DUP2 PUSH3 0x4C3 JUMP JUMPDEST SWAP1 POP SWAP2 SWAP1 POP JUMP JUMPDEST PUSH1 0x0 PUSH1 0x40 DUP3 ADD SWAP1 POP PUSH3 0x5BE PUSH1 0x0 DUP4 ADD DUP6 PUSH3 0x4EA JUMP JUMPDEST PUSH3 0x5CD PUSH1 0x20 DUP4 ADD DUP5 PUSH3 0x4EA JUMP JUMPDEST SWAP4 SWAP3 POP POP POP JUMP JUMPDEST PUSH1 0x0 DUP3 DUP3 MSTORE PUSH1 0x20 DUP3 ADD SWAP1 POP SWAP3 SWAP2 POP POP JUMP JUMPDEST PUSH1 0x0 PUSH3 0x5F2 DUP3 PUSH3 0x63F JUMP JUMPDEST SWAP1 POP SWAP2 SWAP1 POP JUMP JUMPDEST PUSH1 0x0 PUSH3 0x606 DUP3 PUSH3 0x63F JUMP JUMPDEST SWAP1 POP SWAP2 SWAP1 POP JUMP JUMPDEST PUSH1 0x0 DUP2 SWAP1 POP SWAP2 SWAP1 POP JUMP JUMPDEST PUSH1 0x0 PUSH3 0x624 DUP3 PUSH3 0x5E5 JUMP JUMPDEST SWAP1 POP SWAP2 SWAP1 POP JUMP JUMPDEST PUSH1 0x0 PUSH3 0x638 DUP3 PUSH3 0x5F9 JUMP JUMPDEST SWAP1 POP SWAP2 SWAP1 POP JUMP JUMPDEST PUSH1 0x0 PUSH20 0xFFFFFFFFFFFFFFFFFFFFFFFFFFFFFFFFFFFFFFFF DUP3 AND SWAP1 POP SWAP2 SWAP1 POP JUMP JUMPDEST PUSH1 0x0 DUP2 SWAP1 POP SWAP2 SWAP1 POP JUMP JUMPDEST PUSH1 0x0 PUSH1 0x2 DUP3 DIV SWAP1 POP PUSH1 0x1 DUP3 AND DUP1 PUSH3 0x682 JUMPI PUSH1 0x7F DUP3 AND SWAP2 POP JUMPDEST PUSH1 0x20 DUP3 LT DUP2 EQ ISZERO PUSH3 0x699 JUMPI PUSH3 0x698 PUSH3 0x69F JUMP JUMPDEST JUMPDEST POP SWAP2 SWAP1 POP JUMP JUMPDEST PUSH32 0x4E487B7100000000000000000000000000000000000000000000000000000000 PUSH1 0x0 MSTORE PUSH1 0x22 PUSH1 0x4 MSTORE PUSH1 0x24 PUSH1 0x0 REVERT JUMPDEST PUSH1 0x0 DUP1 REVERT JUMPDEST PUSH32 0x476F7665726E6F72566F74657351756F72756D4672616374696F6E3A2071756F PUSH1 0x0 DUP3 ADD MSTORE PUSH32 0x72756D4E756D657261746F72206F7665722071756F72756D44656E6F6D696E61 PUSH1 0x20 DUP3 ADD MSTORE PUSH32 0x746F720000000000000000000000000000000000000000000000000000000000 PUSH1 0x40 DUP3 ADD MSTORE POP JUMP JUMPDEST PUSH3 0x753 DUP2 PUSH3 0x617 JUMP JUMPDEST DUP2 EQ PUSH3 0x75F JUMPI PUSH1 0x0 DUP1 REVERT JUMPDEST POP JUMP JUMPDEST PUSH3 0x76D DUP2 PUSH3 0x62B JUMP JUMPDEST DUP2 EQ PUSH3 0x779 JUMPI PUSH1 0x0 DUP1 REVERT JUMPDEST POP JUMP JUMPDEST PUSH1 0x80 MLOAD PUSH1 0xA0 MLOAD PUSH1 0xC0 MLOAD PUSH1 0x60 SHR PUSH1 0xE0 MLOAD PUSH2 0x100 MLOAD PUSH2 0x120 MLOAD PUSH2 0x140 MLOAD PUSH1 0x60 SHR PUSH2 0x4872 PUSH3 0x7EB PUSH1 0x0 CODECOPY PUSH1 0x0 DUP2 DUP2 PUSH2 0x12D9 ADD MSTORE DUP2 DUP2 PUSH2 0x1AD1 ADD MSTORE PUSH2 0x1B96 ADD MSTORE PUSH1 0x0 PUSH2 0x1E1E ADD MSTORE PUSH1 0x0 PUSH2 0x1E60 ADD MSTORE PUSH1 0x0 PUSH2 0x1E3F ADD MSTORE PUSH1 0x0 PUSH2 0x1D74 ADD MSTORE PUSH1 0x0 PUSH2 0x1DCA ADD MSTORE PUSH1 0x0 PUSH2 0x1DF3 ADD MSTORE PUSH2 0x4872 PUSH1 0x0 RETURN INVALID PUSH1 0x80 PUSH1 0x40 MSTORE PUSH1 0x4 CALLDATASIZE LT PUSH2 0x1C6 JUMPI PUSH1 0x0 CALLDATALOAD PUSH1 0xE0 SHR DUP1 PUSH4 0x7B3C71D3 GT PUSH2 0xF7 JUMPI DUP1 PUSH4 0xC01F9E37 GT PUSH2 0x95 JUMPI DUP1 PUSH4 0xDEAAA7CC GT PUSH2 0x64 JUMPI DUP1 PUSH4 0xDEAAA7CC EQ PUSH2 0x731 JUMPI DUP1 PUSH4 0xEB9019D4 EQ PUSH2 0x75C JUMPI DUP1 PUSH4 0xF8CE560A EQ PUSH2 0x799 JUMPI DUP1 PUSH4 0xFC0C546A EQ PUSH2 0x7D6 JUMPI PUSH2 0x20C JUMP JUMPDEST DUP1 PUSH4 0xC01F9E37 EQ PUSH2 0x661 JUMPI DUP1 PUSH4 0xC59057E4 EQ PUSH2 0x69E JUMPI DUP1 PUSH4 0xD33219B4 EQ PUSH2 0x6DB JUMPI DUP1 PUSH4 0xDD4E2BA5 EQ PUSH2 0x706 JUMPI PUSH2 0x20C JUMP JUMPDEST DUP1 PUSH4 0xA7713A70 GT PUSH2 0xD1 JUMPI DUP1 PUSH4 0xA7713A70 EQ PUSH2 0x5A5 JUMPI DUP1 PUSH4 0xA890C910 EQ PUSH2 0x5D0 JUMPI DUP1 PUSH4 0xAB58FB8E EQ PUSH2 0x5F9 JUMPI DUP1 PUSH4 0xB58131B0 EQ PUSH2 0x636 JUMPI PUSH2 0x20C JUMP JUMPDEST DUP1 PUSH4 0x7B3C71D3 EQ PUSH2 0x500 JUMPI DUP1 PUSH4 0x7D5E81E2 EQ PUSH2 0x53D JUMPI DUP1 PUSH4 0x97C3D334 EQ PUSH2 0x57A JUMPI PUSH2 0x20C JUMP JUMPDEST DUP1 PUSH4 0x3932ABB1 GT PUSH2 0x164 JUMPI DUP1 PUSH4 0x43859632 GT PUSH2 0x13E JUMPI DUP1 PUSH4 0x43859632 EQ PUSH2 0x41C JUMPI DUP1 PUSH4 0x544FFC9C EQ PUSH2 0x459 JUMPI DUP1 PUSH4 0x54FD4D50 EQ PUSH2 0x498 JUMPI DUP1 PUSH4 0x56781388 EQ PUSH2 0x4C3 JUMPI PUSH2 0x20C JUMP JUMPDEST DUP1 PUSH4 0x3932ABB1 EQ PUSH2 0x377 JUMPI DUP1 PUSH4 0x3BCCF4FD EQ PUSH2 0x3A2 JUMPI DUP1 PUSH4 0x3E4F49E6 EQ PUSH2 0x3DF JUMPI PUSH2 0x20C JUMP JUMPDEST DUP1 PUSH4 0x6FDDE03 GT PUSH2 0x1A0 JUMPI DUP1 PUSH4 0x6FDDE03 EQ PUSH2 0x2A2 JUMPI DUP1 PUSH4 0x160CBED7 EQ PUSH2 0x2CD JUMPI DUP1 PUSH4 0x2656227D EQ PUSH2 0x30A JUMPI DUP1 PUSH4 0x2D63F693 EQ PUSH2 0x33A JUMPI PUSH2 0x20C JUMP JUMPDEST DUP1 PUSH4 0x1FFC9A7 EQ PUSH2 0x211 JUMPI DUP1 PUSH4 0x2A251A3 EQ PUSH2 0x24E JUMPI DUP1 PUSH4 0x6F3F9E6 EQ PUSH2 0x279 JUMPI PUSH2 0x20C JUMP JUMPDEST CALLDATASIZE PUSH2 0x20C JUMPI ADDRESS PUSH20 0xFFFFFFFFFFFFFFFFFFFFFFFFFFFFFFFFFFFFFFFF AND PUSH2 0x1EA PUSH2 0x801 JUMP JUMPDEST PUSH20 0xFFFFFFFFFFFFFFFFFFFFFFFFFFFFFFFFFFFFFFFF AND EQ PUSH2 0x20A JUMPI PUSH1 0x0 DUP1 REVERT JUMPDEST STOP JUMPDEST PUSH1 0x0 DUP1 REVERT JUMPDEST CALLVALUE DUP1 ISZERO PUSH2 0x21D JUMPI PUSH1 0x0 DUP1 REVERT JUMPDEST POP PUSH2 0x238 PUSH1 0x4 DUP1 CALLDATASIZE SUB DUP2 ADD SWAP1 PUSH2 0x233 SWAP2 SWAP1 PUSH2 0x2D95 JUMP JUMPDEST PUSH2 0x810 JUMP JUMPDEST PUSH1 0x40 MLOAD PUSH2 0x245 SWAP2 SWAP1 PUSH2 0x374C JUMP JUMPDEST PUSH1 0x40 MLOAD DUP1 SWAP2 SUB SWAP1 RETURN JUMPDEST CALLVALUE DUP1 ISZERO PUSH2 0x25A JUMPI PUSH1 0x0 DUP1 REVERT JUMPDEST POP PUSH2 0x263 PUSH2 0x822 JUMP JUMPDEST PUSH1 0x40 MLOAD PUSH2 0x270 SWAP2 SWAP1 PUSH2 0x3AA9 JUMP JUMPDEST PUSH1 0x40 MLOAD DUP1 SWAP2 SUB SWAP1 RETURN JUMPDEST CALLVALUE DUP1 ISZERO PUSH2 0x285 JUMPI PUSH1 0x0 DUP1 REVERT JUMPDEST POP PUSH2 0x2A0 PUSH1 0x4 DUP1 CALLDATASIZE SUB DUP2 ADD SWAP1 PUSH2 0x29B SWAP2 SWAP1 PUSH2 0x2DEF JUMP JUMPDEST PUSH2 0x82C JUMP JUMPDEST STOP JUMPDEST CALLVALUE DUP1 ISZERO PUSH2 0x2AE JUMPI PUSH1 0x0 DUP1 REVERT JUMPDEST POP PUSH2 0x2B7 PUSH2 0x8B4 JUMP JUMPDEST PUSH1 0x40 MLOAD PUSH2 0x2C4 SWAP2 SWAP1 PUSH2 0x3887 JUMP JUMPDEST PUSH1 0x40 MLOAD DUP1 SWAP2 SUB SWAP1 RETURN JUMPDEST CALLVALUE DUP1 ISZERO PUSH2 0x2D9 JUMPI PUSH1 0x0 DUP1 REVERT JUMPDEST POP PUSH2 0x2F4 PUSH1 0x4 DUP1 CALLDATASIZE SUB DUP2 ADD SWAP1 PUSH2 0x2EF SWAP2 SWAP1 PUSH2 0x2BA9 JUMP JUMPDEST PUSH2 0x946 JUMP JUMPDEST PUSH1 0x40 MLOAD PUSH2 0x301 SWAP2 SWAP1 PUSH2 0x3AA9 JUMP JUMPDEST PUSH1 0x40 MLOAD DUP1 SWAP2 SUB SWAP1 RETURN JUMPDEST PUSH2 0x324 PUSH1 0x4 DUP1 CALLDATASIZE SUB DUP2 ADD SWAP1 PUSH2 0x31F SWAP2 SWAP1 PUSH2 0x2BA9 JUMP JUMPDEST PUSH2 0xC1E JUMP JUMPDEST PUSH1 0x40 MLOAD PUSH2 0x331 SWAP2 SWAP1 PUSH2 0x3AA9 JUMP JUMPDEST PUSH1 0x40 MLOAD DUP1 SWAP2 SUB SWAP1 RETURN JUMPDEST CALLVALUE DUP1 ISZERO PUSH2 0x346 JUMPI PUSH1 0x0 DUP1 REVERT JUMPDEST POP PUSH2 0x361 PUSH1 0x4 DUP1 CALLDATASIZE SUB DUP2 ADD SWAP1 PUSH2 0x35C SWAP2 SWAP1 PUSH2 0x2DEF JUMP JUMPDEST PUSH2 0xD51 JUMP JUMPDEST PUSH1 0x40 MLOAD PUSH2 0x36E SWAP2 SWAP1 PUSH2 0x3AA9 JUMP JUMPDEST PUSH1 0x40 MLOAD DUP1 SWAP2 SUB SWAP1 RETURN JUMPDEST CALLVALUE DUP1 ISZERO PUSH2 0x383 JUMPI PUSH1 0x0 DUP1 REVERT JUMPDEST POP PUSH2 0x38C PUSH2 0xDBF JUMP JUMPDEST PUSH1 0x40 MLOAD PUSH2 0x399 SWAP2 SWAP1 PUSH2 0x3AA9 JUMP JUMPDEST PUSH1 0x40 MLOAD DUP1 SWAP2 SUB SWAP1 RETURN JUMPDEST CALLVALUE DUP1 ISZERO PUSH2 0x3AE JUMPI PUSH1 0x0 DUP1 REVERT JUMPDEST POP PUSH2 0x3C9 PUSH1 0x4 DUP1 CALLDATASIZE SUB DUP2 ADD SWAP1 PUSH2 0x3C4 SWAP2 SWAP1 PUSH2 0x2F3D JUMP JUMPDEST PUSH2 0xDC8 JUMP JUMPDEST PUSH1 0x40 MLOAD PUSH2 0x3D6 SWAP2 SWAP1 PUSH2 0x3AA9 JUMP JUMPDEST PUSH1 0x40 MLOAD DUP1 SWAP2 SUB SWAP1 RETURN JUMPDEST CALLVALUE DUP1 ISZERO PUSH2 0x3EB JUMPI PUSH1 0x0 DUP1 REVERT JUMPDEST POP PUSH2 0x406 PUSH1 0x4 DUP1 CALLDATASIZE SUB DUP2 ADD SWAP1 PUSH2 0x401 SWAP2 SWAP1 PUSH2 0x2DEF JUMP JUMPDEST PUSH2 0xE52 JUMP JUMPDEST PUSH1 0x40 MLOAD PUSH2 0x413 SWAP2 SWAP1 PUSH2 0x386C JUMP JUMPDEST PUSH1 0x40 MLOAD DUP1 SWAP2 SUB SWAP1 RETURN JUMPDEST CALLVALUE DUP1 ISZERO PUSH2 0x428 JUMPI PUSH1 0x0 DUP1 REVERT JUMPDEST POP PUSH2 0x443 PUSH1 0x4 DUP1 CALLDATASIZE SUB DUP2 ADD SWAP1 PUSH2 0x43E SWAP2 SWAP1 PUSH2 0x2E49 JUMP JUMPDEST PUSH2 0xE64 JUMP JUMPDEST PUSH1 0x40 MLOAD PUSH2 0x450 SWAP2 SWAP1 PUSH2 0x374C JUMP JUMPDEST PUSH1 0x40 MLOAD DUP1 SWAP2 SUB SWAP1 RETURN JUMPDEST CALLVALUE DUP1 ISZERO PUSH2 0x465 JUMPI PUSH1 0x0 DUP1 REVERT JUMPDEST POP PUSH2 0x480 PUSH1 0x4 DUP1 CALLDATASIZE SUB DUP2 ADD SWAP1 PUSH2 0x47B SWAP2 SWAP1 PUSH2 0x2DEF JUMP JUMPDEST PUSH2 0xECF JUMP JUMPDEST PUSH1 0x40 MLOAD PUSH2 0x48F SWAP4 SWAP3 SWAP2 SWAP1 PUSH2 0x3B9D JUMP JUMPDEST PUSH1 0x40 MLOAD DUP1 SWAP2 SUB SWAP1 RETURN JUMPDEST CALLVALUE DUP1 ISZERO PUSH2 0x4A4 JUMPI PUSH1 0x0 DUP1 REVERT JUMPDEST POP PUSH2 0x4AD PUSH2 0xF07 JUMP JUMPDEST PUSH1 0x40 MLOAD PUSH2 0x4BA SWAP2 SWAP1 PUSH2 0x3887 JUMP JUMPDEST PUSH1 0x40 MLOAD DUP1 SWAP2 SUB SWAP1 RETURN JUMPDEST CALLVALUE DUP1 ISZERO PUSH2 0x4CF JUMPI PUSH1 0x0 DUP1 REVERT JUMPDEST POP PUSH2 0x4EA PUSH1 0x4 DUP1 CALLDATASIZE SUB DUP2 ADD SWAP1 PUSH2 0x4E5 SWAP2 SWAP1 PUSH2 0x2E89 JUMP JUMPDEST PUSH2 0xF44 JUMP JUMPDEST PUSH1 0x40 MLOAD PUSH2 0x4F7 SWAP2 SWAP1 PUSH2 0x3AA9 JUMP JUMPDEST PUSH1 0x40 MLOAD DUP1 SWAP2 SUB SWAP1 RETURN JUMPDEST CALLVALUE DUP1 ISZERO PUSH2 0x50C JUMPI PUSH1 0x0 DUP1 REVERT JUMPDEST POP PUSH2 0x527 PUSH1 0x4 DUP1 CALLDATASIZE SUB DUP2 ADD SWAP1 PUSH2 0x522 SWAP2 SWAP1 PUSH2 0x2EC9 JUMP JUMPDEST PUSH2 0xF75 JUMP JUMPDEST PUSH1 0x40 MLOAD PUSH2 0x534 SWAP2 SWAP1 PUSH2 0x3AA9 JUMP JUMPDEST PUSH1 0x40 MLOAD DUP1 SWAP2 SUB SWAP1 RETURN JUMPDEST CALLVALUE DUP1 ISZERO PUSH2 0x549 JUMPI PUSH1 0x0 DUP1 REVERT JUMPDEST POP PUSH2 0x564 PUSH1 0x4 DUP1 CALLDATASIZE SUB DUP2 ADD SWAP1 PUSH2 0x55F SWAP2 SWAP1 PUSH2 0x2C64 JUMP JUMPDEST PUSH2 0xFDD JUMP JUMPDEST PUSH1 0x40 MLOAD PUSH2 0x571 SWAP2 SWAP1 PUSH2 0x3AA9 JUMP JUMPDEST PUSH1 0x40 MLOAD DUP1 SWAP2 SUB SWAP1 RETURN JUMPDEST CALLVALUE DUP1 ISZERO PUSH2 0x586 JUMPI PUSH1 0x0 DUP1 REVERT JUMPDEST POP PUSH2 0x58F PUSH2 0xFF5 JUMP JUMPDEST PUSH1 0x40 MLOAD PUSH2 0x59C SWAP2 SWAP1 PUSH2 0x3AA9 JUMP JUMPDEST PUSH1 0x40 MLOAD DUP1 SWAP2 SUB SWAP1 RETURN JUMPDEST CALLVALUE DUP1 ISZERO PUSH2 0x5B1 JUMPI PUSH1 0x0 DUP1 REVERT JUMPDEST POP PUSH2 0x5BA PUSH2 0xFFE JUMP JUMPDEST PUSH1 0x40 MLOAD PUSH2 0x5C7 SWAP2 SWAP1 PUSH2 0x3AA9 JUMP JUMPDEST PUSH1 0x40 MLOAD DUP1 SWAP2 SUB SWAP1 RETURN JUMPDEST CALLVALUE DUP1 ISZERO PUSH2 0x5DC JUMPI PUSH1 0x0 DUP1 REVERT JUMPDEST POP PUSH2 0x5F7 PUSH1 0x4 DUP1 CALLDATASIZE SUB DUP2 ADD SWAP1 PUSH2 0x5F2 SWAP2 SWAP1 PUSH2 0x2DC2 JUMP JUMPDEST PUSH2 0x1008 JUMP JUMPDEST STOP JUMPDEST CALLVALUE DUP1 ISZERO PUSH2 0x605 JUMPI PUSH1 0x0 DUP1 REVERT JUMPDEST POP PUSH2 0x620 PUSH1 0x4 DUP1 CALLDATASIZE SUB DUP2 ADD SWAP1 PUSH2 0x61B SWAP2 SWAP1 PUSH2 0x2DEF JUMP JUMPDEST PUSH2 0x1090 JUMP JUMPDEST PUSH1 0x40 MLOAD PUSH2 0x62D SWAP2 SWAP1 PUSH2 0x3AA9 JUMP JUMPDEST PUSH1 0x40 MLOAD DUP1 SWAP2 SUB SWAP1 RETURN JUMPDEST CALLVALUE DUP1 ISZERO PUSH2 0x642 JUMPI PUSH1 0x0 DUP1 REVERT JUMPDEST POP PUSH2 0x64B PUSH2 0x116C JUMP JUMPDEST PUSH1 0x40 MLOAD PUSH2 0x658 SWAP2 SWAP1 PUSH2 0x3AA9 JUMP JUMPDEST PUSH1 0x40 MLOAD DUP1 SWAP2 SUB SWAP1 RETURN JUMPDEST CALLVALUE DUP1 ISZERO PUSH2 0x66D JUMPI PUSH1 0x0 DUP1 REVERT JUMPDEST POP PUSH2 0x688 PUSH1 0x4 DUP1 CALLDATASIZE SUB DUP2 ADD SWAP1 PUSH2 0x683 SWAP2 SWAP1 PUSH2 0x2DEF JUMP JUMPDEST PUSH2 0x117C JUMP JUMPDEST PUSH1 0x40 MLOAD PUSH2 0x695 SWAP2 SWAP1 PUSH2 0x3AA9 JUMP JUMPDEST PUSH1 0x40 MLOAD DUP1 SWAP2 SUB SWAP1 RETURN JUMPDEST CALLVALUE DUP1 ISZERO PUSH2 0x6AA JUMPI PUSH1 0x0 DUP1 REVERT JUMPDEST POP PUSH2 0x6C5 PUSH1 0x4 DUP1 CALLDATASIZE SUB DUP2 ADD SWAP1 PUSH2 0x6C0 SWAP2 SWAP1 PUSH2 0x2BA9 JUMP JUMPDEST PUSH2 0x11EA JUMP JUMPDEST PUSH1 0x40 MLOAD PUSH2 0x6D2 SWAP2 SWAP1 PUSH2 0x3AA9 JUMP JUMPDEST PUSH1 0x40 MLOAD DUP1 SWAP2 SUB SWAP1 RETURN JUMPDEST CALLVALUE DUP1 ISZERO PUSH2 0x6E7 JUMPI PUSH1 0x0 DUP1 REVERT JUMPDEST POP PUSH2 0x6F0 PUSH2 0x1226 JUMP JUMPDEST PUSH1 0x40 MLOAD PUSH2 0x6FD SWAP2 SWAP1 PUSH2 0x35A7 JUMP JUMPDEST PUSH1 0x40 MLOAD DUP1 SWAP2 SUB SWAP1 RETURN JUMPDEST CALLVALUE DUP1 ISZERO PUSH2 0x712 JUMPI PUSH1 0x0 DUP1 REVERT JUMPDEST POP PUSH2 0x71B PUSH2 0x1250 JUMP JUMPDEST PUSH1 0x40 MLOAD PUSH2 0x728 SWAP2 SWAP1 PUSH2 0x3887 JUMP JUMPDEST PUSH1 0x40 MLOAD DUP1 SWAP2 SUB SWAP1 RETURN JUMPDEST CALLVALUE DUP1 ISZERO PUSH2 0x73D JUMPI PUSH1 0x0 DUP1 REVERT JUMPDEST POP PUSH2 0x746 PUSH2 0x128D JUMP JUMPDEST PUSH1 0x40 MLOAD PUSH2 0x753 SWAP2 SWAP1 PUSH2 0x3767 JUMP JUMPDEST PUSH1 0x40 MLOAD DUP1 SWAP2 SUB SWAP1 RETURN JUMPDEST CALLVALUE DUP1 ISZERO PUSH2 0x768 JUMPI PUSH1 0x0 DUP1 REVERT JUMPDEST POP PUSH2 0x783 PUSH1 0x4 DUP1 CALLDATASIZE SUB DUP2 ADD SWAP1 PUSH2 0x77E SWAP2 SWAP1 PUSH2 0x2B69 JUMP JUMPDEST PUSH2 0x12B1 JUMP JUMPDEST PUSH1 0x40 MLOAD PUSH2 0x790 SWAP2 SWAP1 PUSH2 0x3AA9 JUMP JUMPDEST PUSH1 0x40 MLOAD DUP1 SWAP2 SUB SWAP1 RETURN JUMPDEST CALLVALUE DUP1 ISZERO PUSH2 0x7A5 JUMPI PUSH1 0x0 DUP1 REVERT JUMPDEST POP PUSH2 0x7C0 PUSH1 0x4 DUP1 CALLDATASIZE SUB DUP2 ADD SWAP1 PUSH2 0x7BB SWAP2 SWAP1 PUSH2 0x2DEF JUMP JUMPDEST PUSH2 0x12C5 JUMP JUMPDEST PUSH1 0x40 MLOAD PUSH2 0x7CD SWAP2 SWAP1 PUSH2 0x3AA9 JUMP JUMPDEST PUSH1 0x40 MLOAD DUP1 SWAP2 SUB SWAP1 RETURN JUMPDEST CALLVALUE DUP1 ISZERO PUSH2 0x7E2 JUMPI PUSH1 0x0 DUP1 REVERT JUMPDEST POP PUSH2 0x7EB PUSH2 0x12D7 JUMP JUMPDEST PUSH1 0x40 MLOAD PUSH2 0x7F8 SWAP2 SWAP1 PUSH2 0x3851 JUMP JUMPDEST PUSH1 0x40 MLOAD DUP1 SWAP2 SUB SWAP1 RETURN JUMPDEST PUSH1 0x0 PUSH2 0x80B PUSH2 0x12FB JUMP JUMPDEST SWAP1 POP SWAP1 JUMP JUMPDEST PUSH1 0x0 PUSH2 0x81B DUP3 PUSH2 0x1325 JUMP JUMPDEST SWAP1 POP SWAP2 SWAP1 POP JUMP JUMPDEST PUSH1 0x0 PUSH2 0xB2FA SWAP1 POP SWAP1 JUMP JUMPDEST PUSH2 0x834 PUSH2 0x801 JUMP JUMPDEST PUSH20 0xFFFFFFFFFFFFFFFFFFFFFFFFFFFFFFFFFFFFFFFF AND PUSH2 0x852 PUSH2 0x139F JUMP JUMPDEST PUSH20 0xFFFFFFFFFFFFFFFFFFFFFFFFFFFFFFFFFFFFFFFF AND EQ PUSH2 0x8A8 JUMPI PUSH1 0x40 MLOAD PUSH32 0x8C379A000000000000000000000000000000000000000000000000000000000 DUP2 MSTORE PUSH1 0x4 ADD PUSH2 0x89F SWAP1 PUSH2 0x38C9 JUMP JUMPDEST PUSH1 0x40 MLOAD DUP1 SWAP2 SUB SWAP1 REVERT JUMPDEST PUSH2 0x8B1 DUP2 PUSH2 0x13A7 JUMP JUMPDEST POP JUMP JUMPDEST PUSH1 0x60 PUSH1 0x0 DUP1 SLOAD PUSH2 0x8C3 SWAP1 PUSH2 0x414C JUMP JUMPDEST DUP1 PUSH1 0x1F ADD PUSH1 0x20 DUP1 SWAP2 DIV MUL PUSH1 0x20 ADD PUSH1 0x40 MLOAD SWAP1 DUP2 ADD PUSH1 0x40 MSTORE DUP1 SWAP3 SWAP2 SWAP1 DUP2 DUP2 MSTORE PUSH1 0x20 ADD DUP3 DUP1 SLOAD PUSH2 0x8EF SWAP1 PUSH2 0x414C JUMP JUMPDEST DUP1 ISZERO PUSH2 0x93C JUMPI DUP1 PUSH1 0x1F LT PUSH2 0x911 JUMPI PUSH2 0x100 DUP1 DUP4 SLOAD DIV MUL DUP4 MSTORE SWAP2 PUSH1 0x20 ADD SWAP2 PUSH2 0x93C JUMP JUMPDEST DUP3 ADD SWAP2 SWAP1 PUSH1 0x0 MSTORE PUSH1 0x20 PUSH1 0x0 KECCAK256 SWAP1 JUMPDEST DUP2 SLOAD DUP2 MSTORE SWAP1 PUSH1 0x1 ADD SWAP1 PUSH1 0x20 ADD DUP1 DUP4 GT PUSH2 0x91F JUMPI DUP3 SWAP1 SUB PUSH1 0x1F AND DUP3 ADD SWAP2 JUMPDEST POP POP POP POP POP SWAP1 POP SWAP1 JUMP JUMPDEST PUSH1 0x0 DUP1 PUSH2 0x955 DUP7 DUP7 DUP7 DUP7 PUSH2 0x11EA JUMP JUMPDEST SWAP1 POP PUSH1 0x4 PUSH1 0x7 DUP2 GT ISZERO PUSH2 0x96B JUMPI PUSH2 0x96A PUSH2 0x4217 JUMP JUMPDEST JUMPDEST PUSH2 0x974 DUP3 PUSH2 0xE52 JUMP JUMPDEST PUSH1 0x7 DUP2 GT ISZERO PUSH2 0x986 JUMPI PUSH2 0x985 PUSH2 0x4217 JUMP JUMPDEST JUMPDEST EQ PUSH2 0x9C6 JUMPI PUSH1 0x40 MLOAD PUSH32 0x8C379A000000000000000000000000000000000000000000000000000000000 DUP2 MSTORE PUSH1 0x4 ADD PUSH2 0x9BD SWAP1 PUSH2 0x3A29 JUMP JUMPDEST PUSH1 0x40 MLOAD DUP1 SWAP2 SUB SWAP1 REVERT JUMPDEST PUSH1 0x0 PUSH1 0x4 PUSH1 0x0 SWAP1 SLOAD SWAP1 PUSH2 0x100 EXP SWAP1 DIV PUSH20 0xFFFFFFFFFFFFFFFFFFFFFFFFFFFFFFFFFFFFFFFF AND PUSH20 0xFFFFFFFFFFFFFFFFFFFFFFFFFFFFFFFFFFFFFFFF AND PUSH4 0xF27A0C92 PUSH1 0x40 MLOAD DUP2 PUSH4 0xFFFFFFFF AND PUSH1 0xE0 SHL DUP2 MSTORE PUSH1 0x4 ADD PUSH1 0x20 PUSH1 0x40 MLOAD DUP1 DUP4 SUB DUP2 DUP7 DUP1 EXTCODESIZE ISZERO DUP1 ISZERO PUSH2 0xA30 JUMPI PUSH1 0x0 DUP1 REVERT JUMPDEST POP GAS STATICCALL ISZERO DUP1 ISZERO PUSH2 0xA44 JUMPI RETURNDATASIZE PUSH1 0x0 DUP1 RETURNDATACOPY RETURNDATASIZE PUSH1 0x0 REVERT JUMPDEST POP POP POP POP PUSH1 0x40 MLOAD RETURNDATASIZE PUSH1 0x1F NOT PUSH1 0x1F DUP3 ADD AND DUP3 ADD DUP1 PUSH1 0x40 MSTORE POP DUP2 ADD SWAP1 PUSH2 0xA68 SWAP2 SWAP1 PUSH2 0x2E1C JUMP JUMPDEST SWAP1 POP PUSH1 0x4 PUSH1 0x0 SWAP1 SLOAD SWAP1 PUSH2 0x100 EXP SWAP1 DIV PUSH20 0xFFFFFFFFFFFFFFFFFFFFFFFFFFFFFFFFFFFFFFFF AND PUSH20 0xFFFFFFFFFFFFFFFFFFFFFFFFFFFFFFFFFFFFFFFF AND PUSH4 0xB1C5F427 DUP9 DUP9 DUP9 PUSH1 0x0 DUP10 PUSH1 0x40 MLOAD DUP7 PUSH4 0xFFFFFFFF AND PUSH1 0xE0 SHL DUP2 MSTORE PUSH1 0x4 ADD PUSH2 0xACE SWAP6 SWAP5 SWAP4 SWAP3 SWAP2 SWAP1 PUSH2 0x366E JUMP JUMPDEST PUSH1 0x20 PUSH1 0x40 MLOAD DUP1 DUP4 SUB DUP2 DUP7 DUP1 EXTCODESIZE ISZERO DUP1 ISZERO PUSH2 0xAE6 JUMPI PUSH1 0x0 DUP1 REVERT JUMPDEST POP GAS STATICCALL ISZERO DUP1 ISZERO PUSH2 0xAFA JUMPI RETURNDATASIZE PUSH1 0x0 DUP1 RETURNDATACOPY RETURNDATASIZE PUSH1 0x0 REVERT JUMPDEST POP POP POP POP PUSH1 0x40 MLOAD RETURNDATASIZE PUSH1 0x1F NOT PUSH1 0x1F DUP3 ADD AND DUP3 ADD DUP1 PUSH1 0x40 MSTORE POP DUP2 ADD SWAP1 PUSH2 0xB1E SWAP2 SWAP1 PUSH2 0x2D68 JUMP JUMPDEST PUSH1 0x5 PUSH1 0x0 DUP5 DUP2 MSTORE PUSH1 0x20 ADD SWAP1 DUP2 MSTORE PUSH1 0x20 ADD PUSH1 0x0 KECCAK256 DUP2 SWAP1 SSTORE POP PUSH1 0x4 PUSH1 0x0 SWAP1 SLOAD SWAP1 PUSH2 0x100 EXP SWAP1 DIV PUSH20 0xFFFFFFFFFFFFFFFFFFFFFFFFFFFFFFFFFFFFFFFF AND PUSH20 0xFFFFFFFFFFFFFFFFFFFFFFFFFFFFFFFFFFFFFFFF AND PUSH4 0x8F2A0BB0 DUP9 DUP9 DUP9 PUSH1 0x0 DUP10 DUP8 PUSH1 0x40 MLOAD DUP8 PUSH4 0xFFFFFFFF AND PUSH1 0xE0 SHL DUP2 MSTORE PUSH1 0x4 ADD PUSH2 0xB9B SWAP7 SWAP6 SWAP5 SWAP4 SWAP3 SWAP2 SWAP1 PUSH2 0x36D6 JUMP JUMPDEST PUSH1 0x0 PUSH1 0x40 MLOAD DUP1 DUP4 SUB DUP2 PUSH1 0x0 DUP8 DUP1 EXTCODESIZE ISZERO DUP1 ISZERO PUSH2 0xBB5 JUMPI PUSH1 0x0 DUP1 REVERT JUMPDEST POP GAS CALL ISZERO DUP1 ISZERO PUSH2 0xBC9 JUMPI RETURNDATASIZE PUSH1 0x0 DUP1 RETURNDATACOPY RETURNDATASIZE PUSH1 0x0 REVERT JUMPDEST POP POP POP POP PUSH32 0x9A2E42FD6722813D69113E7D0079D3D940171428DF7373DF9C7F7617CFDA2892 DUP3 DUP3 TIMESTAMP PUSH2 0xBFB SWAP2 SWAP1 PUSH2 0x3E63 JUMP JUMPDEST PUSH1 0x40 MLOAD PUSH2 0xC09 SWAP3 SWAP2 SWAP1 PUSH2 0x3B74 JUMP JUMPDEST PUSH1 0x40 MLOAD DUP1 SWAP2 SUB SWAP1 LOG1 DUP2 SWAP3 POP POP POP SWAP5 SWAP4 POP POP POP POP JUMP JUMPDEST PUSH1 0x0 DUP1 PUSH2 0xC2D DUP7 DUP7 DUP7 DUP7 PUSH2 0x11EA JUMP JUMPDEST SWAP1 POP PUSH1 0x0 PUSH2 0xC3A DUP3 PUSH2 0xE52 JUMP JUMPDEST SWAP1 POP PUSH1 0x4 PUSH1 0x7 DUP2 GT ISZERO PUSH2 0xC50 JUMPI PUSH2 0xC4F PUSH2 0x4217 JUMP JUMPDEST JUMPDEST DUP2 PUSH1 0x7 DUP2 GT ISZERO PUSH2 0xC63 JUMPI PUSH2 0xC62 PUSH2 0x4217 JUMP JUMPDEST JUMPDEST EQ DUP1 PUSH2 0xC93 JUMPI POP PUSH1 0x5 PUSH1 0x7 DUP2 GT ISZERO PUSH2 0xC7E JUMPI PUSH2 0xC7D PUSH2 0x4217 JUMP JUMPDEST JUMPDEST DUP2 PUSH1 0x7 DUP2 GT ISZERO PUSH2 0xC91 JUMPI PUSH2 0xC90 PUSH2 0x4217 JUMP JUMPDEST JUMPDEST EQ JUMPDEST PUSH2 0xCD2 JUMPI PUSH1 0x40 MLOAD PUSH32 0x8C379A000000000000000000000000000000000000000000000000000000000 DUP2 MSTORE PUSH1 0x4 ADD PUSH2 0xCC9 SWAP1 PUSH2 0x3A29 JUMP JUMPDEST PUSH1 0x40 MLOAD DUP1 SWAP2 SUB SWAP1 REVERT JUMPDEST PUSH1 0x1 DUP1 PUSH1 0x0 DUP5 DUP2 MSTORE PUSH1 0x20 ADD SWAP1 DUP2 MSTORE PUSH1 0x20 ADD PUSH1 0x0 KECCAK256 PUSH1 0x2 ADD PUSH1 0x0 PUSH2 0x100 EXP DUP2 SLOAD DUP2 PUSH1 0xFF MUL NOT AND SWAP1 DUP4 ISZERO ISZERO MUL OR SWAP1 SSTORE POP PUSH32 0x712AE1383F79AC853F8D882153778E0260EF8F03B504E2866E0593E04D2B291F DUP3 PUSH1 0x40 MLOAD PUSH2 0xD2F SWAP2 SWAP1 PUSH2 0x3AA9 JUMP JUMPDEST PUSH1 0x40 MLOAD DUP1 SWAP2 SUB SWAP1 LOG1 PUSH2 0xD44 DUP3 DUP9 DUP9 DUP9 DUP9 PUSH2 0x143C JUMP JUMPDEST DUP2 SWAP3 POP POP POP SWAP5 SWAP4 POP POP POP POP JUMP JUMPDEST PUSH1 0x0 PUSH2 0xDAE PUSH1 0x1 PUSH1 0x0 DUP5 DUP2 MSTORE PUSH1 0x20 ADD SWAP1 DUP2 MSTORE PUSH1 0x20 ADD PUSH1 0x0 KECCAK256 PUSH1 0x0 ADD PUSH1 0x40 MLOAD DUP1 PUSH1 0x20 ADD PUSH1 0x40 MSTORE SWAP1 DUP2 PUSH1 0x0 DUP3 ADD PUSH1 0x0 SWAP1 SLOAD SWAP1 PUSH2 0x100 EXP SWAP1 DIV PUSH8 0xFFFFFFFFFFFFFFFF AND PUSH8 0xFFFFFFFFFFFFFFFF AND PUSH8 0xFFFFFFFFFFFFFFFF AND DUP2 MSTORE POP POP PUSH2 0x1450 JUMP JUMPDEST PUSH8 0xFFFFFFFFFFFFFFFF AND SWAP1 POP SWAP2 SWAP1 POP JUMP JUMPDEST PUSH1 0x0 PUSH1 0x1 SWAP1 POP SWAP1 JUMP JUMPDEST PUSH1 0x0 DUP1 PUSH2 0xE29 PUSH2 0xE21 PUSH32 0x150214D74D59B7D1E90C73FC22EF3D991DD0A76B046543D4D80AB92D2A50328F DUP10 DUP10 PUSH1 0x40 MLOAD PUSH1 0x20 ADD PUSH2 0xE06 SWAP4 SWAP3 SWAP2 SWAP1 PUSH2 0x37D5 JUMP JUMPDEST PUSH1 0x40 MLOAD PUSH1 0x20 DUP2 DUP4 SUB SUB DUP2 MSTORE SWAP1 PUSH1 0x40 MSTORE DUP1 MLOAD SWAP1 PUSH1 0x20 ADD KECCAK256 PUSH2 0x145E JUMP JUMPDEST DUP7 DUP7 DUP7 PUSH2 0x1478 JUMP JUMPDEST SWAP1 POP PUSH2 0xE46 DUP8 DUP3 DUP9 PUSH1 0x40 MLOAD DUP1 PUSH1 0x20 ADD PUSH1 0x40 MSTORE DUP1 PUSH1 0x0 DUP2 MSTORE POP PUSH2 0x14A3 JUMP JUMPDEST SWAP2 POP POP SWAP6 SWAP5 POP POP POP POP POP JUMP JUMPDEST PUSH1 0x0 PUSH2 0xE5D DUP3 PUSH2 0x15F7 JUMP JUMPDEST SWAP1 POP SWAP2 SWAP1 POP JUMP JUMPDEST PUSH1 0x0 PUSH1 0x2 PUSH1 0x0 DUP5 DUP2 MSTORE PUSH1 0x20 ADD SWAP1 DUP2 MSTORE PUSH1 0x20 ADD PUSH1 0x0 KECCAK256 PUSH1 0x3 ADD PUSH1 0x0 DUP4 PUSH20 0xFFFFFFFFFFFFFFFFFFFFFFFFFFFFFFFFFFFFFFFF AND PUSH20 0xFFFFFFFFFFFFFFFFFFFFFFFFFFFFFFFFFFFFFFFF AND DUP2 MSTORE PUSH1 0x20 ADD SWAP1 DUP2 MSTORE PUSH1 0x20 ADD PUSH1 0x0 KECCAK256 PUSH1 0x0 SWAP1 SLOAD SWAP1 PUSH2 0x100 EXP SWAP1 DIV PUSH1 0xFF AND SWAP1 POP SWAP3 SWAP2 POP POP JUMP JUMPDEST PUSH1 0x0 DUP1 PUSH1 0x0 DUP1 PUSH1 0x2 PUSH1 0x0 DUP7 DUP2 MSTORE PUSH1 0x20 ADD SWAP1 DUP2 MSTORE PUSH1 0x20 ADD PUSH1 0x0 KECCAK256 SWAP1 POP DUP1 PUSH1 0x0 ADD SLOAD DUP2 PUSH1 0x1 ADD SLOAD DUP3 PUSH1 0x2 ADD SLOAD SWAP4 POP SWAP4 POP SWAP4 POP POP SWAP2 SWAP4 SWAP1 SWAP3 POP JUMP JUMPDEST PUSH1 0x60 PUSH1 0x40 MLOAD DUP1 PUSH1 0x40 ADD PUSH1 0x40 MSTORE DUP1 PUSH1 0x1 DUP2 MSTORE PUSH1 0x20 ADD PUSH32 0x3100000000000000000000000000000000000000000000000000000000000000 DUP2 MSTORE POP SWAP1 POP SWAP1 JUMP JUMPDEST PUSH1 0x0 DUP1 PUSH2 0xF4F PUSH2 0x139F JUMP JUMPDEST SWAP1 POP PUSH2 0xF6C DUP5 DUP3 DUP6 PUSH1 0x40 MLOAD DUP1 PUSH1 0x20 ADD PUSH1 0x40 MSTORE DUP1 PUSH1 0x0 DUP2 MSTORE POP PUSH2 0x14A3 JUMP JUMPDEST SWAP2 POP POP SWAP3 SWAP2 POP POP JUMP JUMPDEST PUSH1 0x0 DUP1 PUSH2 0xF80 PUSH2 0x139F JUMP JUMPDEST SWAP1 POP PUSH2 0xFD2 DUP7 DUP3 DUP8 DUP8 DUP8 DUP1 DUP1 PUSH1 0x1F ADD PUSH1 0x20 DUP1 SWAP2 DIV MUL PUSH1 0x20 ADD PUSH1 0x40 MLOAD SWAP1 DUP2 ADD PUSH1 0x40 MSTORE DUP1 SWAP4 SWAP3 SWAP2 SWAP1 DUP2 DUP2 MSTORE PUSH1 0x20 ADD DUP4 DUP4 DUP1 DUP3 DUP5 CALLDATACOPY PUSH1 0x0 DUP2 DUP5 ADD MSTORE PUSH1 0x1F NOT PUSH1 0x1F DUP3 ADD AND SWAP1 POP DUP1 DUP4 ADD SWAP3 POP POP POP POP POP POP POP PUSH2 0x14A3 JUMP JUMPDEST SWAP2 POP POP SWAP5 SWAP4 POP POP POP POP JUMP JUMPDEST PUSH1 0x0 PUSH2 0xFEB DUP6 DUP6 DUP6 DUP6 PUSH2 0x172E JUMP JUMPDEST SWAP1 POP SWAP5 SWAP4 POP POP POP POP JUMP JUMPDEST PUSH1 0x0 PUSH1 0x64 SWAP1 POP SWAP1 JUMP JUMPDEST PUSH1 0x0 PUSH1 0x3 SLOAD SWAP1 POP SWAP1 JUMP JUMPDEST PUSH2 0x1010 PUSH2 0x801 JUMP JUMPDEST PUSH20 0xFFFFFFFFFFFFFFFFFFFFFFFFFFFFFFFFFFFFFFFF AND PUSH2 0x102E PUSH2 0x139F JUMP JUMPDEST PUSH20 0xFFFFFFFFFFFFFFFFFFFFFFFFFFFFFFFFFFFFFFFF AND EQ PUSH2 0x1084 JUMPI PUSH1 0x40 MLOAD PUSH32 0x8C379A000000000000000000000000000000000000000000000000000000000 DUP2 MSTORE PUSH1 0x4 ADD PUSH2 0x107B SWAP1 PUSH2 0x38C9 JUMP JUMPDEST PUSH1 0x40 MLOAD DUP1 SWAP2 SUB SWAP1 REVERT JUMPDEST PUSH2 0x108D DUP2 PUSH2 0x1A2E JUMP JUMPDEST POP JUMP JUMPDEST PUSH1 0x0 DUP1 PUSH1 0x4 PUSH1 0x0 SWAP1 SLOAD SWAP1 PUSH2 0x100 EXP SWAP1 DIV PUSH20 0xFFFFFFFFFFFFFFFFFFFFFFFFFFFFFFFFFFFFFFFF AND PUSH20 0xFFFFFFFFFFFFFFFFFFFFFFFFFFFFFFFFFFFFFFFF AND PUSH4 0xD45C4435 PUSH1 0x5 PUSH1 0x0 DUP7 DUP2 MSTORE PUSH1 0x20 ADD SWAP1 DUP2 MSTORE PUSH1 0x20 ADD PUSH1 0x0 KECCAK256 SLOAD PUSH1 0x40 MLOAD DUP3 PUSH4 0xFFFFFFFF AND PUSH1 0xE0 SHL DUP2 MSTORE PUSH1 0x4 ADD PUSH2 0x1101 SWAP2 SWAP1 PUSH2 0x3767 JUMP JUMPDEST PUSH1 0x20 PUSH1 0x40 MLOAD DUP1 DUP4 SUB DUP2 DUP7 DUP1 EXTCODESIZE ISZERO DUP1 ISZERO PUSH2 0x1119 JUMPI PUSH1 0x0 DUP1 REVERT JUMPDEST POP GAS STATICCALL ISZERO DUP1 ISZERO PUSH2 0x112D JUMPI RETURNDATASIZE PUSH1 0x0 DUP1 RETURNDATACOPY RETURNDATASIZE PUSH1 0x0 REVERT JUMPDEST POP POP POP POP PUSH1 0x40 MLOAD RETURNDATASIZE PUSH1 0x1F NOT PUSH1 0x1F DUP3 ADD AND DUP3 ADD DUP1 PUSH1 0x40 MSTORE POP DUP2 ADD SWAP1 PUSH2 0x1151 SWAP2 SWAP1 PUSH2 0x2E1C JUMP JUMPDEST SWAP1 POP PUSH1 0x1 DUP2 EQ PUSH2 0x1161 JUMPI DUP1 PUSH2 0x1164 JUMP JUMPDEST PUSH1 0x0 JUMPDEST SWAP2 POP POP SWAP2 SWAP1 POP JUMP JUMPDEST PUSH1 0x0 PUSH8 0x8AC7230489E80000 SWAP1 POP SWAP1 JUMP JUMPDEST PUSH1 0x0 PUSH2 0x11D9 PUSH1 0x1 PUSH1 0x0 DUP5 DUP2 MSTORE PUSH1 0x20 ADD SWAP1 DUP2 MSTORE PUSH1 0x20 ADD PUSH1 0x0 KECCAK256 PUSH1 0x1 ADD PUSH1 0x40 MLOAD DUP1 PUSH1 0x20 ADD PUSH1 0x40 MSTORE SWAP1 DUP2 PUSH1 0x0 DUP3 ADD PUSH1 0x0 SWAP1 SLOAD SWAP1 PUSH2 0x100 EXP SWAP1 DIV PUSH8 0xFFFFFFFFFFFFFFFF AND PUSH8 0xFFFFFFFFFFFFFFFF AND PUSH8 0xFFFFFFFFFFFFFFFF AND DUP2 MSTORE POP POP PUSH2 0x1450 JUMP JUMPDEST PUSH8 0xFFFFFFFFFFFFFFFF AND SWAP1 POP SWAP2 SWAP1 POP JUMP JUMPDEST PUSH1 0x0 DUP5 DUP5 DUP5 DUP5 PUSH1 0x40 MLOAD PUSH1 0x20 ADD PUSH2 0x1203 SWAP5 SWAP4 SWAP3 SWAP2 SWAP1 PUSH2 0x3614 JUMP JUMPDEST PUSH1 0x40 MLOAD PUSH1 0x20 DUP2 DUP4 SUB SUB DUP2 MSTORE SWAP1 PUSH1 0x40 MSTORE DUP1 MLOAD SWAP1 PUSH1 0x20 ADD KECCAK256 PUSH1 0x0 SHR SWAP1 POP SWAP5 SWAP4 POP POP POP POP JUMP JUMPDEST PUSH1 0x0 PUSH1 0x4 PUSH1 0x0 SWAP1 SLOAD SWAP1 PUSH2 0x100 EXP SWAP1 DIV PUSH20 0xFFFFFFFFFFFFFFFFFFFFFFFFFFFFFFFFFFFFFFFF AND SWAP1 POP SWAP1 JUMP JUMPDEST PUSH1 0x60 PUSH1 0x40 MLOAD DUP1 PUSH1 0x40 ADD PUSH1 0x40 MSTORE DUP1 PUSH1 0x20 DUP2 MSTORE PUSH1 0x20 ADD PUSH32 0x737570706F72743D627261766F2671756F72756D3D666F722C6162737461696E DUP2 MSTORE POP SWAP1 POP SWAP1 JUMP JUMPDEST PUSH32 0x150214D74D59B7D1E90C73FC22EF3D991DD0A76B046543D4D80AB92D2A50328F DUP2 JUMP JUMPDEST PUSH1 0x0 PUSH2 0x12BD DUP4 DUP4 PUSH2 0x1ACD JUMP JUMPDEST SWAP1 POP SWAP3 SWAP2 POP POP JUMP JUMPDEST PUSH1 0x0 PUSH2 0x12D0 DUP3 PUSH2 0x1B82 JUMP JUMPDEST SWAP1 POP SWAP2 SWAP1 POP JUMP JUMPDEST PUSH32 0x0 DUP2 JUMP JUMPDEST PUSH1 0x0 PUSH1 0x4 PUSH1 0x0 SWAP1 SLOAD SWAP1 PUSH2 0x100 EXP SWAP1 DIV PUSH20 0xFFFFFFFFFFFFFFFFFFFFFFFFFFFFFFFFFFFFFFFF AND SWAP1 POP SWAP1 JUMP JUMPDEST PUSH1 0x0 PUSH32 0x6E665CED00000000000000000000000000000000000000000000000000000000 PUSH28 0xFFFFFFFFFFFFFFFFFFFFFFFFFFFFFFFFFFFFFFFFFFFFFFFFFFFFFFFF NOT AND DUP3 PUSH28 0xFFFFFFFFFFFFFFFFFFFFFFFFFFFFFFFFFFFFFFFFFFFFFFFFFFFFFFFF NOT AND EQ DUP1 PUSH2 0x1398 JUMPI POP PUSH2 0x1397 DUP3 PUSH2 0x1C58 JUMP JUMPDEST JUMPDEST SWAP1 POP SWAP2 SWAP1 POP JUMP JUMPDEST PUSH1 0x0 CALLER SWAP1 POP SWAP1 JUMP JUMPDEST PUSH2 0x13AF PUSH2 0xFF5 JUMP JUMPDEST DUP2 GT ISZERO PUSH2 0x13F1 JUMPI PUSH1 0x40 MLOAD PUSH32 0x8C379A000000000000000000000000000000000000000000000000000000000 DUP2 MSTORE PUSH1 0x4 ADD PUSH2 0x13E8 SWAP1 PUSH2 0x38E9 JUMP JUMPDEST PUSH1 0x40 MLOAD DUP1 SWAP2 SUB SWAP1 REVERT JUMPDEST PUSH1 0x0 PUSH1 0x3 SLOAD SWAP1 POP DUP2 PUSH1 0x3 DUP2 SWAP1 SSTORE POP PUSH32 0x553476BF02EF2726E8CE5CED78D63E26E602E4A2257B1F559418E24B4633997 DUP2 DUP4 PUSH1 0x40 MLOAD PUSH2 0x1430 SWAP3 SWAP2 SWAP1 PUSH2 0x3B74 JUMP JUMPDEST PUSH1 0x40 MLOAD DUP1 SWAP2 SUB SWAP1 LOG1 POP POP JUMP JUMPDEST PUSH2 0x1449 DUP6 DUP6 DUP6 DUP6 DUP6 PUSH2 0x1CD2 JUMP JUMPDEST POP POP POP POP POP JUMP JUMPDEST PUSH1 0x0 DUP2 PUSH1 0x0 ADD MLOAD SWAP1 POP SWAP2 SWAP1 POP JUMP JUMPDEST PUSH1 0x0 PUSH2 0x1471 PUSH2 0x146B PUSH2 0x1D70 JUMP JUMPDEST DUP4 PUSH2 0x1E8A JUMP JUMPDEST SWAP1 POP SWAP2 SWAP1 POP JUMP JUMPDEST PUSH1 0x0 DUP1 PUSH1 0x0 PUSH2 0x1489 DUP8 DUP8 DUP8 DUP8 PUSH2 0x1EBD JUMP JUMPDEST SWAP2 POP SWAP2 POP PUSH2 0x1496 DUP2 PUSH2 0x1FCA JUMP JUMPDEST DUP2 SWAP3 POP POP POP SWAP5 SWAP4 POP POP POP POP JUMP JUMPDEST PUSH1 0x0 DUP1 PUSH1 0x1 PUSH1 0x0 DUP8 DUP2 MSTORE PUSH1 0x20 ADD SWAP1 DUP2 MSTORE PUSH1 0x20 ADD PUSH1 0x0 KECCAK256 SWAP1 POP PUSH1 0x1 PUSH1 0x7 DUP2 GT ISZERO PUSH2 0x14CF JUMPI PUSH2 0x14CE PUSH2 0x4217 JUMP JUMPDEST JUMPDEST PUSH2 0x14D8 DUP8 PUSH2 0xE52 JUMP JUMPDEST PUSH1 0x7 DUP2 GT ISZERO PUSH2 0x14EA JUMPI PUSH2 0x14E9 PUSH2 0x4217 JUMP JUMPDEST JUMPDEST EQ PUSH2 0x152A JUMPI PUSH1 0x40 MLOAD PUSH32 0x8C379A000000000000000000000000000000000000000000000000000000000 DUP2 MSTORE PUSH1 0x4 ADD PUSH2 0x1521 SWAP1 PUSH2 0x39A9 JUMP JUMPDEST PUSH1 0x40 MLOAD DUP1 SWAP2 SUB SWAP1 REVERT JUMPDEST PUSH1 0x0 PUSH2 0x1588 DUP7 PUSH2 0x1579 DUP5 PUSH1 0x0 ADD PUSH1 0x40 MLOAD DUP1 PUSH1 0x20 ADD PUSH1 0x40 MSTORE SWAP1 DUP2 PUSH1 0x0 DUP3 ADD PUSH1 0x0 SWAP1 SLOAD SWAP1 PUSH2 0x100 EXP SWAP1 DIV PUSH8 0xFFFFFFFFFFFFFFFF AND PUSH8 0xFFFFFFFFFFFFFFFF AND PUSH8 0xFFFFFFFFFFFFFFFF AND DUP2 MSTORE POP POP PUSH2 0x1450 JUMP JUMPDEST PUSH8 0xFFFFFFFFFFFFFFFF AND PUSH2 0x12B1 JUMP JUMPDEST SWAP1 POP PUSH2 0x1596 DUP8 DUP8 DUP8 DUP5 PUSH2 0x219F JUMP JUMPDEST DUP6 PUSH20 0xFFFFFFFFFFFFFFFFFFFFFFFFFFFFFFFFFFFFFFFF AND PUSH32 0xB8E138887D0AA13BAB447E82DE9D5C1777041ECD21CA36BA824FF1E6C07DDDA4 DUP9 DUP8 DUP5 DUP9 PUSH1 0x40 MLOAD PUSH2 0x15E2 SWAP5 SWAP4 SWAP3 SWAP2 SWAP1 PUSH2 0x3BD4 JUMP JUMPDEST PUSH1 0x40 MLOAD DUP1 SWAP2 SUB SWAP1 LOG2 DUP1 SWAP3 POP POP POP SWAP5 SWAP4 POP POP POP POP JUMP JUMPDEST PUSH1 0x0 DUP1 PUSH2 0x1603 DUP4 PUSH2 0x23A5 JUMP JUMPDEST SWAP1 POP PUSH1 0x4 PUSH1 0x7 DUP2 GT ISZERO PUSH2 0x1619 JUMPI PUSH2 0x1618 PUSH2 0x4217 JUMP JUMPDEST JUMPDEST DUP2 PUSH1 0x7 DUP2 GT ISZERO PUSH2 0x162C JUMPI PUSH2 0x162B PUSH2 0x4217 JUMP JUMPDEST JUMPDEST EQ PUSH2 0x163A JUMPI DUP1 SWAP2 POP POP PUSH2 0x1729 JUMP JUMPDEST PUSH1 0x0 PUSH1 0x5 PUSH1 0x0 DUP6 DUP2 MSTORE PUSH1 0x20 ADD SWAP1 DUP2 MSTORE PUSH1 0x20 ADD PUSH1 0x0 KECCAK256 SLOAD SWAP1 POP PUSH1 0x0 DUP1 SHL DUP2 EQ ISZERO PUSH2 0x1667 JUMPI DUP2 SWAP3 POP POP POP PUSH2 0x1729 JUMP JUMPDEST PUSH1 0x4 PUSH1 0x0 SWAP1 SLOAD SWAP1 PUSH2 0x100 EXP SWAP1 DIV PUSH20 0xFFFFFFFFFFFFFFFFFFFFFFFFFFFFFFFFFFFFFFFF AND PUSH20 0xFFFFFFFFFFFFFFFFFFFFFFFFFFFFFFFFFFFFFFFF AND PUSH4 0x2AB0F529 DUP3 PUSH1 0x40 MLOAD DUP3 PUSH4 0xFFFFFFFF AND PUSH1 0xE0 SHL DUP2 MSTORE PUSH1 0x4 ADD PUSH2 0x16C2 SWAP2 SWAP1 PUSH2 0x3767 JUMP JUMPDEST PUSH1 0x20 PUSH1 0x40 MLOAD DUP1 DUP4 SUB DUP2 DUP7 DUP1 EXTCODESIZE ISZERO DUP1 ISZERO PUSH2 0x16DA JUMPI PUSH1 0x0 DUP1 REVERT JUMPDEST POP GAS STATICCALL ISZERO DUP1 ISZERO PUSH2 0x16EE JUMPI RETURNDATASIZE PUSH1 0x0 DUP1 RETURNDATACOPY RETURNDATASIZE PUSH1 0x0 REVERT JUMPDEST POP POP POP POP PUSH1 0x40 MLOAD RETURNDATASIZE PUSH1 0x1F NOT PUSH1 0x1F DUP3 ADD AND DUP3 ADD DUP1 PUSH1 0x40 MSTORE POP DUP2 ADD SWAP1 PUSH2 0x1712 SWAP2 SWAP1 PUSH2 0x2D3B JUMP JUMPDEST ISZERO PUSH2 0x1722 JUMPI PUSH1 0x7 SWAP3 POP POP POP PUSH2 0x1729 JUMP JUMPDEST PUSH1 0x5 SWAP3 POP POP POP JUMPDEST SWAP2 SWAP1 POP JUMP JUMPDEST PUSH1 0x0 PUSH2 0x1738 PUSH2 0x116C JUMP JUMPDEST PUSH2 0x174E CALLER PUSH1 0x1 NUMBER PUSH2 0x1749 SWAP2 SWAP1 PUSH2 0x3F82 JUMP JUMPDEST PUSH2 0x12B1 JUMP JUMPDEST LT ISZERO PUSH2 0x178F JUMPI PUSH1 0x40 MLOAD PUSH32 0x8C379A000000000000000000000000000000000000000000000000000000000 DUP2 MSTORE PUSH1 0x4 ADD PUSH2 0x1786 SWAP1 PUSH2 0x3909 JUMP JUMPDEST PUSH1 0x40 MLOAD DUP1 SWAP2 SUB SWAP1 REVERT JUMPDEST PUSH1 0x0 PUSH2 0x17A4 DUP7 DUP7 DUP7 DUP7 DUP1 MLOAD SWAP1 PUSH1 0x20 ADD KECCAK256 PUSH2 0x11EA JUMP JUMPDEST SWAP1 POP DUP5 MLOAD DUP7 MLOAD EQ PUSH2 0x17EA JUMPI PUSH1 0x40 MLOAD PUSH32 0x8C379A000000000000000000000000000000000000000000000000000000000 DUP2 MSTORE PUSH1 0x4 ADD PUSH2 0x17E1 SWAP1 PUSH2 0x3949 JUMP JUMPDEST PUSH1 0x40 MLOAD DUP1 SWAP2 SUB SWAP1 REVERT JUMPDEST DUP4 MLOAD DUP7 MLOAD EQ PUSH2 0x182E JUMPI PUSH1 0x40 MLOAD PUSH32 0x8C379A000000000000000000000000000000000000000000000000000000000 DUP2 MSTORE PUSH1 0x4 ADD PUSH2 0x1825 SWAP1 PUSH2 0x3949 JUMP JUMPDEST PUSH1 0x40 MLOAD DUP1 SWAP2 SUB SWAP1 REVERT JUMPDEST PUSH1 0x0 DUP7 MLOAD GT PUSH2 0x1872 JUMPI PUSH1 0x40 MLOAD PUSH32 0x8C379A000000000000000000000000000000000000000000000000000000000 DUP2 MSTORE PUSH1 0x4 ADD PUSH2 0x1869 SWAP1 PUSH2 0x39C9 JUMP JUMPDEST PUSH1 0x40 MLOAD DUP1 SWAP2 SUB SWAP1 REVERT JUMPDEST PUSH1 0x0 PUSH1 0x1 PUSH1 0x0 DUP4 DUP2 MSTORE PUSH1 0x20 ADD SWAP1 DUP2 MSTORE PUSH1 0x20 ADD PUSH1 0x0 KECCAK256 SWAP1 POP PUSH2 0x18D2 DUP2 PUSH1 0x0 ADD PUSH1 0x40 MLOAD DUP1 PUSH1 0x20 ADD PUSH1 0x40 MSTORE SWAP1 DUP2 PUSH1 0x0 DUP3 ADD PUSH1 0x0 SWAP1 SLOAD SWAP1 PUSH2 0x100 EXP SWAP1 DIV PUSH8 0xFFFFFFFFFFFFFFFF AND PUSH8 0xFFFFFFFFFFFFFFFF AND PUSH8 0xFFFFFFFFFFFFFFFF AND DUP2 MSTORE POP POP PUSH2 0x2582 JUMP JUMPDEST PUSH2 0x1911 JUMPI PUSH1 0x40 MLOAD PUSH32 0x8C379A000000000000000000000000000000000000000000000000000000000 DUP2 MSTORE PUSH1 0x4 ADD PUSH2 0x1908 SWAP1 PUSH2 0x3A89 JUMP JUMPDEST PUSH1 0x40 MLOAD DUP1 SWAP2 SUB SWAP1 REVERT JUMPDEST PUSH1 0x0 PUSH2 0x1923 PUSH2 0x191E PUSH2 0xDBF JUMP JUMPDEST PUSH2 0x259C JUMP JUMPDEST PUSH2 0x192C NUMBER PUSH2 0x259C JUMP JUMPDEST PUSH2 0x1936 SWAP2 SWAP1 PUSH2 0x3EB9 JUMP JUMPDEST SWAP1 POP PUSH1 0x0 PUSH2 0x194A PUSH2 0x1945 PUSH2 0x822 JUMP JUMPDEST PUSH2 0x259C JUMP JUMPDEST DUP3 PUSH2 0x1955 SWAP2 SWAP1 PUSH2 0x3EB9 JUMP JUMPDEST SWAP1 POP PUSH2 0x196D DUP3 DUP5 PUSH1 0x0 ADD PUSH2 0x25F3 SWAP1 SWAP2 SWAP1 PUSH4 0xFFFFFFFF AND JUMP JUMPDEST PUSH2 0x1983 DUP2 DUP5 PUSH1 0x1 ADD PUSH2 0x25F3 SWAP1 SWAP2 SWAP1 PUSH4 0xFFFFFFFF AND JUMP JUMPDEST PUSH32 0x7D84A6263AE0D98D3329BD7B46BB4E8D6F98CD35A7ADB45C274C8B7FD5EBD5E0 DUP5 PUSH2 0x19AD PUSH2 0x139F JUMP JUMPDEST DUP12 DUP12 DUP14 MLOAD PUSH8 0xFFFFFFFFFFFFFFFF DUP2 GT ISZERO PUSH2 0x19CA JUMPI PUSH2 0x19C9 PUSH2 0x4275 JUMP JUMPDEST JUMPDEST PUSH1 0x40 MLOAD SWAP1 DUP1 DUP3 MSTORE DUP1 PUSH1 0x20 MUL PUSH1 0x20 ADD DUP3 ADD PUSH1 0x40 MSTORE DUP1 ISZERO PUSH2 0x19FD JUMPI DUP2 PUSH1 0x20 ADD JUMPDEST PUSH1 0x60 DUP2 MSTORE PUSH1 0x20 ADD SWAP1 PUSH1 0x1 SWAP1 SUB SWAP1 DUP2 PUSH2 0x19E8 JUMPI SWAP1 POP JUMPDEST POP DUP13 DUP9 DUP9 DUP15 PUSH1 0x40 MLOAD PUSH2 0x1A17 SWAP10 SWAP9 SWAP8 SWAP7 SWAP6 SWAP5 SWAP4 SWAP3 SWAP2 SWAP1 PUSH2 0x3AC4 JUMP JUMPDEST PUSH1 0x40 MLOAD DUP1 SWAP2 SUB SWAP1 LOG1 DUP4 SWAP5 POP POP POP POP POP SWAP5 SWAP4 POP POP POP POP JUMP JUMPDEST PUSH32 0x8F74EA46EF7894F65EABFB5E6E695DE773A000B47C529AB559178069B226401 PUSH1 0x4 PUSH1 0x0 SWAP1 SLOAD SWAP1 PUSH2 0x100 EXP SWAP1 DIV PUSH20 0xFFFFFFFFFFFFFFFFFFFFFFFFFFFFFFFFFFFFFFFF AND DUP3 PUSH1 0x40 MLOAD PUSH2 0x1A81 SWAP3 SWAP2 SWAP1 PUSH2 0x35C2 JUMP JUMPDEST PUSH1 0x40 MLOAD DUP1 SWAP2 SUB SWAP1 LOG1 DUP1 PUSH1 0x4 PUSH1 0x0 PUSH2 0x100 EXP DUP2 SLOAD DUP2 PUSH20 0xFFFFFFFFFFFFFFFFFFFFFFFFFFFFFFFFFFFFFFFF MUL NOT AND SWAP1 DUP4 PUSH20 0xFFFFFFFFFFFFFFFFFFFFFFFFFFFFFFFFFFFFFFFF AND MUL OR SWAP1 SSTORE POP POP JUMP JUMPDEST PUSH1 0x0 PUSH32 0x0 PUSH20 0xFFFFFFFFFFFFFFFFFFFFFFFFFFFFFFFFFFFFFFFF AND PUSH4 0x3A46B1A8 DUP5 DUP5 PUSH1 0x40 MLOAD DUP4 PUSH4 0xFFFFFFFF AND PUSH1 0xE0 SHL DUP2 MSTORE PUSH1 0x4 ADD PUSH2 0x1B2A SWAP3 SWAP2 SWAP1 PUSH2 0x35EB JUMP JUMPDEST PUSH1 0x20 PUSH1 0x40 MLOAD DUP1 DUP4 SUB DUP2 DUP7 DUP1 EXTCODESIZE ISZERO DUP1 ISZERO PUSH2 0x1B42 JUMPI PUSH1 0x0 DUP1 REVERT JUMPDEST POP GAS STATICCALL ISZERO DUP1 ISZERO PUSH2 0x1B56 JUMPI RETURNDATASIZE PUSH1 0x0 DUP1 RETURNDATACOPY RETURNDATASIZE PUSH1 0x0 REVERT JUMPDEST POP POP POP POP PUSH1 0x40 MLOAD RETURNDATASIZE PUSH1 0x1F NOT PUSH1 0x1F DUP3 ADD AND DUP3 ADD DUP1 PUSH1 0x40 MSTORE POP DUP2 ADD SWAP1 PUSH2 0x1B7A SWAP2 SWAP1 PUSH2 0x2E1C JUMP JUMPDEST SWAP1 POP SWAP3 SWAP2 POP POP JUMP JUMPDEST PUSH1 0x0 PUSH2 0x1B8C PUSH2 0xFF5 JUMP JUMPDEST PUSH2 0x1B94 PUSH2 0xFFE JUMP JUMPDEST PUSH32 0x0 PUSH20 0xFFFFFFFFFFFFFFFFFFFFFFFFFFFFFFFFFFFFFFFF AND PUSH4 0x8E539E8C DUP6 PUSH1 0x40 MLOAD DUP3 PUSH4 0xFFFFFFFF AND PUSH1 0xE0 SHL DUP2 MSTORE PUSH1 0x4 ADD PUSH2 0x1BED SWAP2 SWAP1 PUSH2 0x3AA9 JUMP JUMPDEST PUSH1 0x20 PUSH1 0x40 MLOAD DUP1 DUP4 SUB DUP2 DUP7 DUP1 EXTCODESIZE ISZERO DUP1 ISZERO PUSH2 0x1C05 JUMPI PUSH1 0x0 DUP1 REVERT JUMPDEST POP GAS STATICCALL ISZERO DUP1 ISZERO PUSH2 0x1C19 JUMPI RETURNDATASIZE PUSH1 0x0 DUP1 RETURNDATACOPY RETURNDATASIZE PUSH1 0x0 REVERT JUMPDEST POP POP POP POP PUSH1 0x40 MLOAD RETURNDATASIZE PUSH1 0x1F NOT PUSH1 0x1F DUP3 ADD AND DUP3 ADD DUP1 PUSH1 0x40 MSTORE POP DUP2 ADD SWAP1 PUSH2 0x1C3D SWAP2 SWAP1 PUSH2 0x2E1C JUMP JUMPDEST PUSH2 0x1C47 SWAP2 SWAP1 PUSH2 0x3F28 JUMP JUMPDEST PUSH2 0x1C51 SWAP2 SWAP1 PUSH2 0x3EF7 JUMP JUMPDEST SWAP1 POP SWAP2 SWAP1 POP JUMP JUMPDEST PUSH1 0x0 PUSH32 0xBF26D89700000000000000000000000000000000000000000000000000000000 PUSH28 0xFFFFFFFFFFFFFFFFFFFFFFFFFFFFFFFFFFFFFFFFFFFFFFFFFFFFFFFF NOT AND DUP3 PUSH28 0xFFFFFFFFFFFFFFFFFFFFFFFFFFFFFFFFFFFFFFFFFFFFFFFFFFFFFFFF NOT AND EQ DUP1 PUSH2 0x1CCB JUMPI POP PUSH2 0x1CCA DUP3 PUSH2 0x2622 JUMP JUMPDEST JUMPDEST SWAP1 POP SWAP2 SWAP1 POP JUMP JUMPDEST PUSH1 0x4 PUSH1 0x0 SWAP1 SLOAD SWAP1 PUSH2 0x100 EXP SWAP1 DIV PUSH20 0xFFFFFFFFFFFFFFFFFFFFFFFFFFFFFFFFFFFFFFFF AND PUSH20 0xFFFFFFFFFFFFFFFFFFFFFFFFFFFFFFFFFFFFFFFF AND PUSH4 0xE38335E5 CALLVALUE DUP7 DUP7 DUP7 PUSH1 0x0 DUP8 PUSH1 0x40 MLOAD DUP8 PUSH4 0xFFFFFFFF AND PUSH1 0xE0 SHL DUP2 MSTORE PUSH1 0x4 ADD PUSH2 0x1D37 SWAP6 SWAP5 SWAP4 SWAP3 SWAP2 SWAP1 PUSH2 0x366E JUMP JUMPDEST PUSH1 0x0 PUSH1 0x40 MLOAD DUP1 DUP4 SUB DUP2 DUP6 DUP9 DUP1 EXTCODESIZE ISZERO DUP1 ISZERO PUSH2 0x1D50 JUMPI PUSH1 0x0 DUP1 REVERT JUMPDEST POP GAS CALL ISZERO DUP1 ISZERO PUSH2 0x1D64 JUMPI RETURNDATASIZE PUSH1 0x0 DUP1 RETURNDATACOPY RETURNDATASIZE PUSH1 0x0 REVERT JUMPDEST POP POP POP POP POP POP POP POP POP POP JUMP JUMPDEST PUSH1 0x0 PUSH32 0x0 PUSH20 0xFFFFFFFFFFFFFFFFFFFFFFFFFFFFFFFFFFFFFFFF AND ADDRESS PUSH20 0xFFFFFFFFFFFFFFFFFFFFFFFFFFFFFFFFFFFFFFFF AND EQ DUP1 ISZERO PUSH2 0x1DEC JUMPI POP PUSH32 0x0 CHAINID EQ JUMPDEST ISZERO PUSH2 0x1E19 JUMPI PUSH32 0x0 SWAP1 POP PUSH2 0x1E87 JUMP JUMPDEST PUSH2 0x1E84 PUSH32 0x0 PUSH32 0x0 PUSH32 0x0 PUSH2 0x268C JUMP JUMPDEST SWAP1 POP JUMPDEST SWAP1 JUMP JUMPDEST PUSH1 0x0 DUP3 DUP3 PUSH1 0x40 MLOAD PUSH1 0x20 ADD PUSH2 0x1E9F SWAP3 SWAP2 SWAP1 PUSH2 0x3570 JUMP JUMPDEST PUSH1 0x40 MLOAD PUSH1 0x20 DUP2 DUP4 SUB SUB DUP2 MSTORE SWAP1 PUSH1 0x40 MSTORE DUP1 MLOAD SWAP1 PUSH1 0x20 ADD KECCAK256 SWAP1 POP SWAP3 SWAP2 POP POP JUMP JUMPDEST PUSH1 0x0 DUP1 PUSH32 0x7FFFFFFFFFFFFFFFFFFFFFFFFFFFFFFF5D576E7357A4501DDFE92F46681B20A0 DUP4 PUSH1 0x0 SHR GT ISZERO PUSH2 0x1EF8 JUMPI PUSH1 0x0 PUSH1 0x3 SWAP2 POP SWAP2 POP PUSH2 0x1FC1 JUMP JUMPDEST PUSH1 0x1B DUP6 PUSH1 0xFF AND EQ ISZERO DUP1 ISZERO PUSH2 0x1F10 JUMPI POP PUSH1 0x1C DUP6 PUSH1 0xFF AND EQ ISZERO JUMPDEST ISZERO PUSH2 0x1F22 JUMPI PUSH1 0x0 PUSH1 0x4 SWAP2 POP SWAP2 POP PUSH2 0x1FC1 JUMP JUMPDEST PUSH1 0x0 PUSH1 0x1 DUP8 DUP8 DUP8 DUP8 PUSH1 0x40 MLOAD PUSH1 0x0 DUP2 MSTORE PUSH1 0x20 ADD PUSH1 0x40 MSTORE PUSH1 0x40 MLOAD PUSH2 0x1F47 SWAP5 SWAP4 SWAP3 SWAP2 SWAP1 PUSH2 0x380C JUMP JUMPDEST PUSH1 0x20 PUSH1 0x40 MLOAD PUSH1 0x20 DUP2 SUB SWAP1 DUP1 DUP5 SUB SWAP1 DUP6 GAS STATICCALL ISZERO DUP1 ISZERO PUSH2 0x1F69 JUMPI RETURNDATASIZE PUSH1 0x0 DUP1 RETURNDATACOPY RETURNDATASIZE PUSH1 0x0 REVERT JUMPDEST POP POP POP PUSH1 0x20 PUSH1 0x40 MLOAD SUB MLOAD SWAP1 POP PUSH1 0x0 PUSH20 0xFFFFFFFFFFFFFFFFFFFFFFFFFFFFFFFFFFFFFFFF AND DUP2 PUSH20 0xFFFFFFFFFFFFFFFFFFFFFFFFFFFFFFFFFFFFFFFF AND EQ ISZERO PUSH2 0x1FB8 JUMPI PUSH1 0x0 PUSH1 0x1 SWAP3 POP SWAP3 POP POP PUSH2 0x1FC1 JUMP JUMPDEST DUP1 PUSH1 0x0 SWAP3 POP SWAP3 POP POP JUMPDEST SWAP5 POP SWAP5 SWAP3 POP POP POP JUMP JUMPDEST PUSH1 0x0 PUSH1 0x4 DUP2 GT ISZERO PUSH2 0x1FDE JUMPI PUSH2 0x1FDD PUSH2 0x4217 JUMP JUMPDEST JUMPDEST DUP2 PUSH1 0x4 DUP2 GT ISZERO PUSH2 0x1FF1 JUMPI PUSH2 0x1FF0 PUSH2 0x4217 JUMP JUMPDEST JUMPDEST EQ ISZERO PUSH2 0x1FFC JUMPI PUSH2 0x219C JUMP JUMPDEST PUSH1 0x1 PUSH1 0x4 DUP2 GT ISZERO PUSH2 0x2010 JUMPI PUSH2 0x200F PUSH2 0x4217 JUMP JUMPDEST JUMPDEST DUP2 PUSH1 0x4 DUP2 GT ISZERO PUSH2 0x2023 JUMPI PUSH2 0x2022 PUSH2 0x4217 JUMP JUMPDEST JUMPDEST EQ ISZERO PUSH2 0x2064 JUMPI PUSH1 0x40 MLOAD PUSH32 0x8C379A000000000000000000000000000000000000000000000000000000000 DUP2 MSTORE PUSH1 0x4 ADD PUSH2 0x205B SWAP1 PUSH2 0x38A9 JUMP JUMPDEST PUSH1 0x40 MLOAD DUP1 SWAP2 SUB SWAP1 REVERT JUMPDEST PUSH1 0x2 PUSH1 0x4 DUP2 GT ISZERO PUSH2 0x2078 JUMPI PUSH2 0x2077 PUSH2 0x4217 JUMP JUMPDEST JUMPDEST DUP2 PUSH1 0x4 DUP2 GT ISZERO PUSH2 0x208B JUMPI PUSH2 0x208A PUSH2 0x4217 JUMP JUMPDEST JUMPDEST EQ ISZERO PUSH2 0x20CC JUMPI PUSH1 0x40 MLOAD PUSH32 0x8C379A000000000000000000000000000000000000000000000000000000000 DUP2 MSTORE PUSH1 0x4 ADD PUSH2 0x20C3 SWAP1 PUSH2 0x3929 JUMP JUMPDEST PUSH1 0x40 MLOAD DUP1 SWAP2 SUB SWAP1 REVERT JUMPDEST PUSH1 0x3 PUSH1 0x4 DUP2 GT ISZERO PUSH2 0x20E0 JUMPI PUSH2 0x20DF PUSH2 0x4217 JUMP JUMPDEST JUMPDEST DUP2 PUSH1 0x4 DUP2 GT ISZERO PUSH2 0x20F3 JUMPI PUSH2 0x20F2 PUSH2 0x4217 JUMP JUMPDEST JUMPDEST EQ ISZERO PUSH2 0x2134 JUMPI PUSH1 0x40 MLOAD PUSH32 0x8C379A000000000000000000000000000000000000000000000000000000000 DUP2 MSTORE PUSH1 0x4 ADD PUSH2 0x212B SWAP1 PUSH2 0x3969 JUMP JUMPDEST PUSH1 0x40 MLOAD DUP1 SWAP2 SUB SWAP1 REVERT JUMPDEST PUSH1 0x4 DUP1 DUP2 GT ISZERO PUSH2 0x2147 JUMPI PUSH2 0x2146 PUSH2 0x4217 JUMP JUMPDEST JUMPDEST DUP2 PUSH1 0x4 DUP2 GT ISZERO PUSH2 0x215A JUMPI PUSH2 0x2159 PUSH2 0x4217 JUMP JUMPDEST JUMPDEST EQ ISZERO PUSH2 0x219B JUMPI PUSH1 0x40 MLOAD PUSH32 0x8C379A000000000000000000000000000000000000000000000000000000000 DUP2 MSTORE PUSH1 0x4 ADD PUSH2 0x2192 SWAP1 PUSH2 0x39E9 JUMP JUMPDEST PUSH1 0x40 MLOAD DUP1 SWAP2 SUB SWAP1 REVERT JUMPDEST JUMPDEST POP JUMP JUMPDEST PUSH1 0x0 PUSH1 0x2 PUSH1 0x0 DUP7 DUP2 MSTORE PUSH1 0x20 ADD SWAP1 DUP2 MSTORE PUSH1 0x20 ADD PUSH1 0x0 KECCAK256 SWAP1 POP DUP1 PUSH1 0x3 ADD PUSH1 0x0 DUP6 PUSH20 0xFFFFFFFFFFFFFFFFFFFFFFFFFFFFFFFFFFFFFFFF AND PUSH20 0xFFFFFFFFFFFFFFFFFFFFFFFFFFFFFFFFFFFFFFFF AND DUP2 MSTORE PUSH1 0x20 ADD SWAP1 DUP2 MSTORE PUSH1 0x20 ADD PUSH1 0x0 KECCAK256 PUSH1 0x0 SWAP1 SLOAD SWAP1 PUSH2 0x100 EXP SWAP1 DIV PUSH1 0xFF AND ISZERO PUSH2 0x2245 JUMPI PUSH1 0x40 MLOAD PUSH32 0x8C379A000000000000000000000000000000000000000000000000000000000 DUP2 MSTORE PUSH1 0x4 ADD PUSH2 0x223C SWAP1 PUSH2 0x3989 JUMP JUMPDEST PUSH1 0x40 MLOAD DUP1 SWAP2 SUB SWAP1 REVERT JUMPDEST PUSH1 0x1 DUP2 PUSH1 0x3 ADD PUSH1 0x0 DUP7 PUSH20 0xFFFFFFFFFFFFFFFFFFFFFFFFFFFFFFFFFFFFFFFF AND PUSH20 0xFFFFFFFFFFFFFFFFFFFFFFFFFFFFFFFFFFFFFFFF AND DUP2 MSTORE PUSH1 0x20 ADD SWAP1 DUP2 MSTORE PUSH1 0x20 ADD PUSH1 0x0 KECCAK256 PUSH1 0x0 PUSH2 0x100 EXP DUP2 SLOAD DUP2 PUSH1 0xFF MUL NOT AND SWAP1 DUP4 ISZERO ISZERO MUL OR SWAP1 SSTORE POP PUSH1 0x0 PUSH1 0x2 DUP2 GT ISZERO PUSH2 0x22B3 JUMPI PUSH2 0x22B2 PUSH2 0x4217 JUMP JUMPDEST JUMPDEST PUSH1 0xFF AND DUP4 PUSH1 0xFF AND EQ ISZERO PUSH2 0x22E0 JUMPI DUP2 DUP2 PUSH1 0x0 ADD PUSH1 0x0 DUP3 DUP3 SLOAD PUSH2 0x22D4 SWAP2 SWAP1 PUSH2 0x3E63 JUMP JUMPDEST SWAP3 POP POP DUP2 SWAP1 SSTORE POP PUSH2 0x239E JUMP JUMPDEST PUSH1 0x1 PUSH1 0x2 DUP2 GT ISZERO PUSH2 0x22F4 JUMPI PUSH2 0x22F3 PUSH2 0x4217 JUMP JUMPDEST JUMPDEST PUSH1 0xFF AND DUP4 PUSH1 0xFF AND EQ ISZERO PUSH2 0x2321 JUMPI DUP2 DUP2 PUSH1 0x1 ADD PUSH1 0x0 DUP3 DUP3 SLOAD PUSH2 0x2315 SWAP2 SWAP1 PUSH2 0x3E63 JUMP JUMPDEST SWAP3 POP POP DUP2 SWAP1 SSTORE POP PUSH2 0x239D JUMP JUMPDEST PUSH1 0x2 DUP1 DUP2 GT ISZERO PUSH2 0x2334 JUMPI PUSH2 0x2333 PUSH2 0x4217 JUMP JUMPDEST JUMPDEST PUSH1 0xFF AND DUP4 PUSH1 0xFF AND EQ ISZERO PUSH2 0x2361 JUMPI DUP2 DUP2 PUSH1 0x2 ADD PUSH1 0x0 DUP3 DUP3 SLOAD PUSH2 0x2355 SWAP2 SWAP1 PUSH2 0x3E63 JUMP JUMPDEST SWAP3 POP POP DUP2 SWAP1 SSTORE POP PUSH2 0x239C JUMP JUMPDEST PUSH1 0x40 MLOAD PUSH32 0x8C379A000000000000000000000000000000000000000000000000000000000 DUP2 MSTORE PUSH1 0x4 ADD PUSH2 0x2393 SWAP1 PUSH2 0x3A69 JUMP JUMPDEST PUSH1 0x40 MLOAD DUP1 SWAP2 SUB SWAP1 REVERT JUMPDEST JUMPDEST JUMPDEST POP POP POP POP POP JUMP JUMPDEST PUSH1 0x0 DUP1 PUSH1 0x1 PUSH1 0x0 DUP5 DUP2 MSTORE PUSH1 0x20 ADD SWAP1 DUP2 MSTORE PUSH1 0x20 ADD PUSH1 0x0 KECCAK256 PUSH1 0x40 MLOAD DUP1 PUSH1 0x80 ADD PUSH1 0x40 MSTORE SWAP1 DUP2 PUSH1 0x0 DUP3 ADD PUSH1 0x40 MLOAD DUP1 PUSH1 0x20 ADD PUSH1 0x40 MSTORE SWAP1 DUP2 PUSH1 0x0 DUP3 ADD PUSH1 0x0 SWAP1 SLOAD SWAP1 PUSH2 0x100 EXP SWAP1 DIV PUSH8 0xFFFFFFFFFFFFFFFF AND PUSH8 0xFFFFFFFFFFFFFFFF AND PUSH8 0xFFFFFFFFFFFFFFFF AND DUP2 MSTORE POP POP DUP2 MSTORE PUSH1 0x20 ADD PUSH1 0x1 DUP3 ADD PUSH1 0x40 MLOAD DUP1 PUSH1 0x20 ADD PUSH1 0x40 MSTORE SWAP1 DUP2 PUSH1 0x0 DUP3 ADD PUSH1 0x0 SWAP1 SLOAD SWAP1 PUSH2 0x100 EXP SWAP1 DIV PUSH8 0xFFFFFFFFFFFFFFFF AND PUSH8 0xFFFFFFFFFFFFFFFF AND PUSH8 0xFFFFFFFFFFFFFFFF AND DUP2 MSTORE POP POP DUP2 MSTORE PUSH1 0x20 ADD PUSH1 0x2 DUP3 ADD PUSH1 0x0 SWAP1 SLOAD SWAP1 PUSH2 0x100 EXP SWAP1 DIV PUSH1 0xFF AND ISZERO ISZERO ISZERO ISZERO DUP2 MSTORE PUSH1 0x20 ADD PUSH1 0x2 DUP3 ADD PUSH1 0x1 SWAP1 SLOAD SWAP1 PUSH2 0x100 EXP SWAP1 DIV PUSH1 0xFF AND ISZERO ISZERO ISZERO ISZERO DUP2 MSTORE POP POP SWAP1 POP DUP1 PUSH1 0x40 ADD MLOAD ISZERO PUSH2 0x249E JUMPI PUSH1 0x7 SWAP2 POP POP PUSH2 0x257D JUMP JUMPDEST DUP1 PUSH1 0x60 ADD MLOAD ISZERO PUSH2 0x24B2 JUMPI PUSH1 0x2 SWAP2 POP POP PUSH2 0x257D JUMP JUMPDEST NUMBER PUSH2 0x24C0 DUP3 PUSH1 0x0 ADD MLOAD PUSH2 0x1450 JUMP JUMPDEST PUSH8 0xFFFFFFFFFFFFFFFF AND LT PUSH2 0x24D9 JUMPI PUSH1 0x0 SWAP2 POP POP PUSH2 0x257D JUMP JUMPDEST NUMBER PUSH2 0x24E7 DUP3 PUSH1 0x20 ADD MLOAD PUSH2 0x1450 JUMP JUMPDEST PUSH8 0xFFFFFFFFFFFFFFFF AND LT PUSH2 0x2500 JUMPI PUSH1 0x1 SWAP2 POP POP PUSH2 0x257D JUMP JUMPDEST PUSH2 0x250D DUP2 PUSH1 0x20 ADD MLOAD PUSH2 0x26C6 JUMP JUMPDEST ISZERO PUSH2 0x2542 JUMPI PUSH2 0x251B DUP4 PUSH2 0x26F2 JUMP JUMPDEST DUP1 ISZERO PUSH2 0x252C JUMPI POP PUSH2 0x252B DUP4 PUSH2 0x2739 JUMP JUMPDEST JUMPDEST PUSH2 0x2537 JUMPI PUSH1 0x3 PUSH2 0x253A JUMP JUMPDEST PUSH1 0x4 JUMPDEST SWAP2 POP POP PUSH2 0x257D JUMP JUMPDEST PUSH1 0x40 MLOAD PUSH32 0x8C379A000000000000000000000000000000000000000000000000000000000 DUP2 MSTORE PUSH1 0x4 ADD PUSH2 0x2574 SWAP1 PUSH2 0x3A49 JUMP JUMPDEST PUSH1 0x40 MLOAD DUP1 SWAP2 SUB SWAP1 REVERT JUMPDEST SWAP2 SWAP1 POP JUMP JUMPDEST PUSH1 0x0 DUP1 DUP3 PUSH1 0x0 ADD MLOAD PUSH8 0xFFFFFFFFFFFFFFFF AND EQ SWAP1 POP SWAP2 SWAP1 POP JUMP JUMPDEST PUSH1 0x0 PUSH8 0xFFFFFFFFFFFFFFFF DUP1 AND DUP3 GT ISZERO PUSH2 0x25EB JUMPI PUSH1 0x40 MLOAD PUSH32 0x8C379A000000000000000000000000000000000000000000000000000000000 DUP2 MSTORE PUSH1 0x4 ADD PUSH2 0x25E2 SWAP1 PUSH2 0x3A09 JUMP JUMPDEST PUSH1 0x40 MLOAD DUP1 SWAP2 SUB SWAP1 REVERT JUMPDEST DUP2 SWAP1 POP SWAP2 SWAP1 POP JUMP JUMPDEST DUP1 DUP3 PUSH1 0x0 ADD PUSH1 0x0 PUSH2 0x100 EXP DUP2 SLOAD DUP2 PUSH8 0xFFFFFFFFFFFFFFFF MUL NOT AND SWAP1 DUP4 PUSH8 0xFFFFFFFFFFFFFFFF AND MUL OR SWAP1 SSTORE POP POP POP JUMP JUMPDEST PUSH1 0x0 PUSH32 0x1FFC9A700000000000000000000000000000000000000000000000000000000 PUSH28 0xFFFFFFFFFFFFFFFFFFFFFFFFFFFFFFFFFFFFFFFFFFFFFFFFFFFFFFFF NOT AND DUP3 PUSH28 0xFFFFFFFFFFFFFFFFFFFFFFFFFFFFFFFFFFFFFFFFFFFFFFFFFFFFFFFF NOT AND EQ SWAP1 POP SWAP2 SWAP1 POP JUMP JUMPDEST PUSH1 0x0 DUP4 DUP4 DUP4 CHAINID ADDRESS PUSH1 0x40 MLOAD PUSH1 0x20 ADD PUSH2 0x26A7 SWAP6 SWAP5 SWAP4 SWAP3 SWAP2 SWAP1 PUSH2 0x3782 JUMP JUMPDEST PUSH1 0x40 MLOAD PUSH1 0x20 DUP2 DUP4 SUB SUB DUP2 MSTORE SWAP1 PUSH1 0x40 MSTORE DUP1 MLOAD SWAP1 PUSH1 0x20 ADD KECCAK256 SWAP1 POP SWAP4 SWAP3 POP POP POP JUMP JUMPDEST PUSH1 0x0 PUSH2 0x26D1 DUP3 PUSH2 0x2764 JUMP JUMPDEST DUP1 ISZERO PUSH2 0x26EB JUMPI POP NUMBER DUP3 PUSH1 0x0 ADD MLOAD PUSH8 0xFFFFFFFFFFFFFFFF AND GT ISZERO JUMPDEST SWAP1 POP SWAP2 SWAP1 POP JUMP JUMPDEST PUSH1 0x0 DUP1 PUSH1 0x2 PUSH1 0x0 DUP5 DUP2 MSTORE PUSH1 0x20 ADD SWAP1 DUP2 MSTORE PUSH1 0x20 ADD PUSH1 0x0 KECCAK256 SWAP1 POP DUP1 PUSH1 0x2 ADD SLOAD DUP2 PUSH1 0x1 ADD SLOAD PUSH2 0x271E SWAP2 SWAP1 PUSH2 0x3E63 JUMP JUMPDEST PUSH2 0x272F PUSH2 0x272A DUP6 PUSH2 0xD51 JUMP JUMPDEST PUSH2 0x12C5 JUMP JUMPDEST GT ISZERO SWAP2 POP POP SWAP2 SWAP1 POP JUMP JUMPDEST PUSH1 0x0 DUP1 PUSH1 0x2 PUSH1 0x0 DUP5 DUP2 MSTORE PUSH1 0x20 ADD SWAP1 DUP2 MSTORE PUSH1 0x20 ADD PUSH1 0x0 KECCAK256 SWAP1 POP DUP1 PUSH1 0x0 ADD SLOAD DUP2 PUSH1 0x1 ADD SLOAD GT SWAP2 POP POP SWAP2 SWAP1 POP JUMP JUMPDEST PUSH1 0x0 DUP1 DUP3 PUSH1 0x0 ADD MLOAD PUSH8 0xFFFFFFFFFFFFFFFF AND GT SWAP1 POP SWAP2 SWAP1 POP JUMP JUMPDEST PUSH1 0x0 PUSH2 0x2791 PUSH2 0x278C DUP5 PUSH2 0x3C45 JUMP JUMPDEST PUSH2 0x3C20 JUMP JUMPDEST SWAP1 POP DUP1 DUP4 DUP3 MSTORE PUSH1 0x20 DUP3 ADD SWAP1 POP DUP3 DUP6 PUSH1 0x20 DUP7 MUL DUP3 ADD GT ISZERO PUSH2 0x27B4 JUMPI PUSH2 0x27B3 PUSH2 0x42AE JUMP JUMPDEST JUMPDEST PUSH1 0x0 JUMPDEST DUP6 DUP2 LT ISZERO PUSH2 0x27E4 JUMPI DUP2 PUSH2 0x27CA DUP9 DUP3 PUSH2 0x2970 JUMP JUMPDEST DUP5 MSTORE PUSH1 0x20 DUP5 ADD SWAP4 POP PUSH1 0x20 DUP4 ADD SWAP3 POP POP PUSH1 0x1 DUP2 ADD SWAP1 POP PUSH2 0x27B7 JUMP JUMPDEST POP POP POP SWAP4 SWAP3 POP POP POP JUMP JUMPDEST PUSH1 0x0 PUSH2 0x2801 PUSH2 0x27FC DUP5 PUSH2 0x3C71 JUMP JUMPDEST PUSH2 0x3C20 JUMP JUMPDEST SWAP1 POP DUP1 DUP4 DUP3 MSTORE PUSH1 0x20 DUP3 ADD SWAP1 POP DUP3 DUP6 PUSH1 0x20 DUP7 MUL DUP3 ADD GT ISZERO PUSH2 0x2824 JUMPI PUSH2 0x2823 PUSH2 0x42AE JUMP JUMPDEST JUMPDEST PUSH1 0x0 JUMPDEST DUP6 DUP2 LT ISZERO PUSH2 0x2872 JUMPI DUP2 CALLDATALOAD PUSH8 0xFFFFFFFFFFFFFFFF DUP2 GT ISZERO PUSH2 0x284A JUMPI PUSH2 0x2849 PUSH2 0x42A9 JUMP JUMPDEST JUMPDEST DUP1 DUP7 ADD PUSH2 0x2857 DUP10 DUP3 PUSH2 0x2A63 JUMP JUMPDEST DUP6 MSTORE PUSH1 0x20 DUP6 ADD SWAP5 POP PUSH1 0x20 DUP5 ADD SWAP4 POP POP POP PUSH1 0x1 DUP2 ADD SWAP1 POP PUSH2 0x2827 JUMP JUMPDEST POP POP POP SWAP4 SWAP3 POP POP POP JUMP JUMPDEST PUSH1 0x0 PUSH2 0x288F PUSH2 0x288A DUP5 PUSH2 0x3C9D JUMP JUMPDEST PUSH2 0x3C20 JUMP JUMPDEST SWAP1 POP DUP1 DUP4 DUP3 MSTORE PUSH1 0x20 DUP3 ADD SWAP1 POP DUP3 DUP6 PUSH1 0x20 DUP7 MUL DUP3 ADD GT ISZERO PUSH2 0x28B2 JUMPI PUSH2 0x28B1 PUSH2 0x42AE JUMP JUMPDEST JUMPDEST PUSH1 0x0 JUMPDEST DUP6 DUP2 LT ISZERO PUSH2 0x28E2 JUMPI DUP2 PUSH2 0x28C8 DUP9 DUP3 PUSH2 0x2B2A JUMP JUMPDEST DUP5 MSTORE PUSH1 0x20 DUP5 ADD SWAP4 POP PUSH1 0x20 DUP4 ADD SWAP3 POP POP PUSH1 0x1 DUP2 ADD SWAP1 POP PUSH2 0x28B5 JUMP JUMPDEST POP POP POP SWAP4 SWAP3 POP POP POP JUMP JUMPDEST PUSH1 0x0 PUSH2 0x28FF PUSH2 0x28FA DUP5 PUSH2 0x3CC9 JUMP JUMPDEST PUSH2 0x3C20 JUMP JUMPDEST SWAP1 POP DUP3 DUP2 MSTORE PUSH1 0x20 DUP2 ADD DUP5 DUP5 DUP5 ADD GT ISZERO PUSH2 0x291B JUMPI PUSH2 0x291A PUSH2 0x42B3 JUMP JUMPDEST JUMPDEST PUSH2 0x2926 DUP5 DUP3 DUP6 PUSH2 0x410A JUMP JUMPDEST POP SWAP4 SWAP3 POP POP POP JUMP JUMPDEST PUSH1 0x0 PUSH2 0x2941 PUSH2 0x293C DUP5 PUSH2 0x3CFA JUMP JUMPDEST PUSH2 0x3C20 JUMP JUMPDEST SWAP1 POP DUP3 DUP2 MSTORE PUSH1 0x20 DUP2 ADD DUP5 DUP5 DUP5 ADD GT ISZERO PUSH2 0x295D JUMPI PUSH2 0x295C PUSH2 0x42B3 JUMP JUMPDEST JUMPDEST PUSH2 0x2968 DUP5 DUP3 DUP6 PUSH2 0x410A JUMP JUMPDEST POP SWAP4 SWAP3 POP POP POP JUMP JUMPDEST PUSH1 0x0 DUP2 CALLDATALOAD SWAP1 POP PUSH2 0x297F DUP2 PUSH2 0x479B JUMP JUMPDEST SWAP3 SWAP2 POP POP JUMP JUMPDEST PUSH1 0x0 DUP3 PUSH1 0x1F DUP4 ADD SLT PUSH2 0x299A JUMPI PUSH2 0x2999 PUSH2 0x42A9 JUMP JUMPDEST JUMPDEST DUP2 CALLDATALOAD PUSH2 0x29AA DUP5 DUP3 PUSH1 0x20 DUP7 ADD PUSH2 0x277E JUMP JUMPDEST SWAP2 POP POP SWAP3 SWAP2 POP POP JUMP JUMPDEST PUSH1 0x0 DUP3 PUSH1 0x1F DUP4 ADD SLT PUSH2 0x29C8 JUMPI PUSH2 0x29C7 PUSH2 0x42A9 JUMP JUMPDEST JUMPDEST DUP2 CALLDATALOAD PUSH2 0x29D8 DUP5 DUP3 PUSH1 0x20 DUP7 ADD PUSH2 0x27EE JUMP JUMPDEST SWAP2 POP POP SWAP3 SWAP2 POP POP JUMP JUMPDEST PUSH1 0x0 DUP3 PUSH1 0x1F DUP4 ADD SLT PUSH2 0x29F6 JUMPI PUSH2 0x29F5 PUSH2 0x42A9 JUMP JUMPDEST JUMPDEST DUP2 CALLDATALOAD PUSH2 0x2A06 DUP5 DUP3 PUSH1 0x20 DUP7 ADD PUSH2 0x287C JUMP JUMPDEST SWAP2 POP POP SWAP3 SWAP2 POP POP JUMP JUMPDEST PUSH1 0x0 DUP2 MLOAD SWAP1 POP PUSH2 0x2A1E DUP2 PUSH2 0x47B2 JUMP JUMPDEST SWAP3 SWAP2 POP POP JUMP JUMPDEST PUSH1 0x0 DUP2 CALLDATALOAD SWAP1 POP PUSH2 0x2A33 DUP2 PUSH2 0x47C9 JUMP JUMPDEST SWAP3 SWAP2 POP POP JUMP JUMPDEST PUSH1 0x0 DUP2 MLOAD SWAP1 POP PUSH2 0x2A48 DUP2 PUSH2 0x47C9 JUMP JUMPDEST SWAP3 SWAP2 POP POP JUMP JUMPDEST PUSH1 0x0 DUP2 CALLDATALOAD SWAP1 POP PUSH2 0x2A5D DUP2 PUSH2 0x47E0 JUMP JUMPDEST SWAP3 SWAP2 POP POP JUMP JUMPDEST PUSH1 0x0 DUP3 PUSH1 0x1F DUP4 ADD SLT PUSH2 0x2A78 JUMPI PUSH2 0x2A77 PUSH2 0x42A9 JUMP JUMPDEST JUMPDEST DUP2 CALLDATALOAD PUSH2 0x2A88 DUP5 DUP3 PUSH1 0x20 DUP7 ADD PUSH2 0x28EC JUMP JUMPDEST SWAP2 POP POP SWAP3 SWAP2 POP POP JUMP JUMPDEST PUSH1 0x0 DUP2 CALLDATALOAD SWAP1 POP PUSH2 0x2AA0 DUP2 PUSH2 0x47F7 JUMP JUMPDEST SWAP3 SWAP2 POP POP JUMP JUMPDEST PUSH1 0x0 DUP1 DUP4 PUSH1 0x1F DUP5 ADD SLT PUSH2 0x2ABC JUMPI PUSH2 0x2ABB PUSH2 0x42A9 JUMP JUMPDEST JUMPDEST DUP3 CALLDATALOAD SWAP1 POP PUSH8 0xFFFFFFFFFFFFFFFF DUP2 GT ISZERO PUSH2 0x2AD9 JUMPI PUSH2 0x2AD8 PUSH2 0x42A4 JUMP JUMPDEST JUMPDEST PUSH1 0x20 DUP4 ADD SWAP2 POP DUP4 PUSH1 0x1 DUP3 MUL DUP4 ADD GT ISZERO PUSH2 0x2AF5 JUMPI PUSH2 0x2AF4 PUSH2 0x42AE JUMP JUMPDEST JUMPDEST SWAP3 POP SWAP3 SWAP1 POP JUMP JUMPDEST PUSH1 0x0 DUP3 PUSH1 0x1F DUP4 ADD SLT PUSH2 0x2B11 JUMPI PUSH2 0x2B10 PUSH2 0x42A9 JUMP JUMPDEST JUMPDEST DUP2 CALLDATALOAD PUSH2 0x2B21 DUP5 DUP3 PUSH1 0x20 DUP7 ADD PUSH2 0x292E JUMP JUMPDEST SWAP2 POP POP SWAP3 SWAP2 POP POP JUMP JUMPDEST PUSH1 0x0 DUP2 CALLDATALOAD SWAP1 POP PUSH2 0x2B39 DUP2 PUSH2 0x480E JUMP JUMPDEST SWAP3 SWAP2 POP POP JUMP JUMPDEST PUSH1 0x0 DUP2 MLOAD SWAP1 POP PUSH2 0x2B4E DUP2 PUSH2 0x480E JUMP JUMPDEST SWAP3 SWAP2 POP POP JUMP JUMPDEST PUSH1 0x0 DUP2 CALLDATALOAD SWAP1 POP PUSH2 0x2B63 DUP2 PUSH2 0x4825 JUMP JUMPDEST SWAP3 SWAP2 POP POP JUMP JUMPDEST PUSH1 0x0 DUP1 PUSH1 0x40 DUP4 DUP6 SUB SLT ISZERO PUSH2 0x2B80 JUMPI PUSH2 0x2B7F PUSH2 0x42BD JUMP JUMPDEST JUMPDEST PUSH1 0x0 PUSH2 0x2B8E DUP6 DUP3 DUP7 ADD PUSH2 0x2970 JUMP JUMPDEST SWAP3 POP POP PUSH1 0x20 PUSH2 0x2B9F DUP6 DUP3 DUP7 ADD PUSH2 0x2B2A JUMP JUMPDEST SWAP2 POP POP SWAP3 POP SWAP3 SWAP1 POP JUMP JUMPDEST PUSH1 0x0 DUP1 PUSH1 0x0 DUP1 PUSH1 0x80 DUP6 DUP8 SUB SLT ISZERO PUSH2 0x2BC3 JUMPI PUSH2 0x2BC2 PUSH2 0x42BD JUMP JUMPDEST JUMPDEST PUSH1 0x0 DUP6 ADD CALLDATALOAD PUSH8 0xFFFFFFFFFFFFFFFF DUP2 GT ISZERO PUSH2 0x2BE1 JUMPI PUSH2 0x2BE0 PUSH2 0x42B8 JUMP JUMPDEST JUMPDEST PUSH2 0x2BED DUP8 DUP3 DUP9 ADD PUSH2 0x2985 JUMP JUMPDEST SWAP5 POP POP PUSH1 0x20 DUP6 ADD CALLDATALOAD PUSH8 0xFFFFFFFFFFFFFFFF DUP2 GT ISZERO PUSH2 0x2C0E JUMPI PUSH2 0x2C0D PUSH2 0x42B8 JUMP JUMPDEST JUMPDEST PUSH2 0x2C1A DUP8 DUP3 DUP9 ADD PUSH2 0x29E1 JUMP JUMPDEST SWAP4 POP POP PUSH1 0x40 DUP6 ADD CALLDATALOAD PUSH8 0xFFFFFFFFFFFFFFFF DUP2 GT ISZERO PUSH2 0x2C3B JUMPI PUSH2 0x2C3A PUSH2 0x42B8 JUMP JUMPDEST JUMPDEST PUSH2 0x2C47 DUP8 DUP3 DUP9 ADD PUSH2 0x29B3 JUMP JUMPDEST SWAP3 POP POP PUSH1 0x60 PUSH2 0x2C58 DUP8 DUP3 DUP9 ADD PUSH2 0x2A24 JUMP JUMPDEST SWAP2 POP POP SWAP3 SWAP6 SWAP2 SWAP5 POP SWAP3 POP JUMP JUMPDEST PUSH1 0x0 DUP1 PUSH1 0x0 DUP1 PUSH1 0x80 DUP6 DUP8 SUB SLT ISZERO PUSH2 0x2C7E JUMPI PUSH2 0x2C7D PUSH2 0x42BD JUMP JUMPDEST JUMPDEST PUSH1 0x0 DUP6 ADD CALLDATALOAD PUSH8 0xFFFFFFFFFFFFFFFF DUP2 GT ISZERO PUSH2 0x2C9C JUMPI PUSH2 0x2C9B PUSH2 0x42B8 JUMP JUMPDEST JUMPDEST PUSH2 0x2CA8 DUP8 DUP3 DUP9 ADD PUSH2 0x2985 JUMP JUMPDEST SWAP5 POP POP PUSH1 0x20 DUP6 ADD CALLDATALOAD PUSH8 0xFFFFFFFFFFFFFFFF DUP2 GT ISZERO PUSH2 0x2CC9 JUMPI PUSH2 0x2CC8 PUSH2 0x42B8 JUMP JUMPDEST JUMPDEST PUSH2 0x2CD5 DUP8 DUP3 DUP9 ADD PUSH2 0x29E1 JUMP JUMPDEST SWAP4 POP POP PUSH1 0x40 DUP6 ADD CALLDATALOAD PUSH8 0xFFFFFFFFFFFFFFFF DUP2 GT ISZERO PUSH2 0x2CF6 JUMPI PUSH2 0x2CF5 PUSH2 0x42B8 JUMP JUMPDEST JUMPDEST PUSH2 0x2D02 DUP8 DUP3 DUP9 ADD PUSH2 0x29B3 JUMP JUMPDEST SWAP3 POP POP PUSH1 0x60 DUP6 ADD CALLDATALOAD PUSH8 0xFFFFFFFFFFFFFFFF DUP2 GT ISZERO PUSH2 0x2D23 JUMPI PUSH2 0x2D22 PUSH2 0x42B8 JUMP JUMPDEST JUMPDEST PUSH2 0x2D2F DUP8 DUP3 DUP9 ADD PUSH2 0x2AFC JUMP JUMPDEST SWAP2 POP POP SWAP3 SWAP6 SWAP2 SWAP5 POP SWAP3 POP JUMP JUMPDEST PUSH1 0x0 PUSH1 0x20 DUP3 DUP5 SUB SLT ISZERO PUSH2 0x2D51 JUMPI PUSH2 0x2D50 PUSH2 0x42BD JUMP JUMPDEST JUMPDEST PUSH1 0x0 PUSH2 0x2D5F DUP5 DUP3 DUP6 ADD PUSH2 0x2A0F JUMP JUMPDEST SWAP2 POP POP SWAP3 SWAP2 POP POP JUMP JUMPDEST PUSH1 0x0 PUSH1 0x20 DUP3 DUP5 SUB SLT ISZERO PUSH2 0x2D7E JUMPI PUSH2 0x2D7D PUSH2 0x42BD JUMP JUMPDEST JUMPDEST PUSH1 0x0 PUSH2 0x2D8C DUP5 DUP3 DUP6 ADD PUSH2 0x2A39 JUMP JUMPDEST SWAP2 POP POP SWAP3 SWAP2 POP POP JUMP JUMPDEST PUSH1 0x0 PUSH1 0x20 DUP3 DUP5 SUB SLT ISZERO PUSH2 0x2DAB JUMPI PUSH2 0x2DAA PUSH2 0x42BD JUMP JUMPDEST JUMPDEST PUSH1 0x0 PUSH2 0x2DB9 DUP5 DUP3 DUP6 ADD PUSH2 0x2A4E JUMP JUMPDEST SWAP2 POP POP SWAP3 SWAP2 POP POP JUMP JUMPDEST PUSH1 0x0 PUSH1 0x20 DUP3 DUP5 SUB SLT ISZERO PUSH2 0x2DD8 JUMPI PUSH2 0x2DD7 PUSH2 0x42BD JUMP JUMPDEST JUMPDEST PUSH1 0x0 PUSH2 0x2DE6 DUP5 DUP3 DUP6 ADD PUSH2 0x2A91 JUMP JUMPDEST SWAP2 POP POP SWAP3 SWAP2 POP POP JUMP JUMPDEST PUSH1 0x0 PUSH1 0x20 DUP3 DUP5 SUB SLT ISZERO PUSH2 0x2E05 JUMPI PUSH2 0x2E04 PUSH2 0x42BD JUMP JUMPDEST JUMPDEST PUSH1 0x0 PUSH2 0x2E13 DUP5 DUP3 DUP6 ADD PUSH2 0x2B2A JUMP JUMPDEST SWAP2 POP POP SWAP3 SWAP2 POP POP JUMP JUMPDEST PUSH1 0x0 PUSH1 0x20 DUP3 DUP5 SUB SLT ISZERO PUSH2 0x2E32 JUMPI PUSH2 0x2E31 PUSH2 0x42BD JUMP JUMPDEST JUMPDEST PUSH1 0x0 PUSH2 0x2E40 DUP5 DUP3 DUP6 ADD PUSH2 0x2B3F JUMP JUMPDEST SWAP2 POP POP SWAP3 SWAP2 POP POP JUMP JUMPDEST PUSH1 0x0 DUP1 PUSH1 0x40 DUP4 DUP6 SUB SLT ISZERO PUSH2 0x2E60 JUMPI PUSH2 0x2E5F PUSH2 0x42BD JUMP JUMPDEST JUMPDEST PUSH1 0x0 PUSH2 0x2E6E DUP6 DUP3 DUP7 ADD PUSH2 0x2B2A JUMP JUMPDEST SWAP3 POP POP PUSH1 0x20 PUSH2 0x2E7F DUP6 DUP3 DUP7 ADD PUSH2 0x2970 JUMP JUMPDEST SWAP2 POP POP SWAP3 POP SWAP3 SWAP1 POP JUMP JUMPDEST PUSH1 0x0 DUP1 PUSH1 0x40 DUP4 DUP6 SUB SLT ISZERO PUSH2 0x2EA0 JUMPI PUSH2 0x2E9F PUSH2 0x42BD JUMP JUMPDEST JUMPDEST PUSH1 0x0 PUSH2 0x2EAE DUP6 DUP3 DUP7 ADD PUSH2 0x2B2A JUMP JUMPDEST SWAP3 POP POP PUSH1 0x20 PUSH2 0x2EBF DUP6 DUP3 DUP7 ADD PUSH2 0x2B54 JUMP JUMPDEST SWAP2 POP POP SWAP3 POP SWAP3 SWAP1 POP JUMP JUMPDEST PUSH1 0x0 DUP1 PUSH1 0x0 DUP1 PUSH1 0x60 DUP6 DUP8 SUB SLT ISZERO PUSH2 0x2EE3 JUMPI PUSH2 0x2EE2 PUSH2 0x42BD JUMP JUMPDEST JUMPDEST PUSH1 0x0 PUSH2 0x2EF1 DUP8 DUP3 DUP9 ADD PUSH2 0x2B2A JUMP JUMPDEST SWAP5 POP POP PUSH1 0x20 PUSH2 0x2F02 DUP8 DUP3 DUP9 ADD PUSH2 0x2B54 JUMP JUMPDEST SWAP4 POP POP PUSH1 0x40 DUP6 ADD CALLDATALOAD PUSH8 0xFFFFFFFFFFFFFFFF DUP2 GT ISZERO PUSH2 0x2F23 JUMPI PUSH2 0x2F22 PUSH2 0x42B8 JUMP JUMPDEST JUMPDEST PUSH2 0x2F2F DUP8 DUP3 DUP9 ADD PUSH2 0x2AA6 JUMP JUMPDEST SWAP3 POP SWAP3 POP POP SWAP3 SWAP6 SWAP2 SWAP5 POP SWAP3 POP JUMP JUMPDEST PUSH1 0x0 DUP1 PUSH1 0x0 DUP1 PUSH1 0x0 PUSH1 0xA0 DUP7 DUP9 SUB SLT ISZERO PUSH2 0x2F59 JUMPI PUSH2 0x2F58 PUSH2 0x42BD JUMP JUMPDEST JUMPDEST PUSH1 0x0 PUSH2 0x2F67 DUP9 DUP3 DUP10 ADD PUSH2 0x2B2A JUMP JUMPDEST SWAP6 POP POP PUSH1 0x20 PUSH2 0x2F78 DUP9 DUP3 DUP10 ADD PUSH2 0x2B54 JUMP JUMPDEST SWAP5 POP POP PUSH1 0x40 PUSH2 0x2F89 DUP9 DUP3 DUP10 ADD PUSH2 0x2B54 JUMP JUMPDEST SWAP4 POP POP PUSH1 0x60 PUSH2 0x2F9A DUP9 DUP3 DUP10 ADD PUSH2 0x2A24 JUMP JUMPDEST SWAP3 POP POP PUSH1 0x80 PUSH2 0x2FAB DUP9 DUP3 DUP10 ADD PUSH2 0x2A24 JUMP JUMPDEST SWAP2 POP POP SWAP3 SWAP6 POP SWAP3 SWAP6 SWAP1 SWAP4 POP JUMP JUMPDEST PUSH1 0x0 PUSH2 0x2FC4 DUP4 DUP4 PUSH2 0x3010 JUMP JUMPDEST PUSH1 0x20 DUP4 ADD SWAP1 POP SWAP3 SWAP2 POP POP JUMP JUMPDEST PUSH1 0x0 PUSH2 0x2FDC DUP4 DUP4 PUSH2 0x3209 JUMP JUMPDEST SWAP1 POP SWAP3 SWAP2 POP POP JUMP JUMPDEST PUSH1 0x0 PUSH2 0x2FF0 DUP4 DUP4 PUSH2 0x326F JUMP JUMPDEST SWAP1 POP SWAP3 SWAP2 POP POP JUMP JUMPDEST PUSH1 0x0 PUSH2 0x3004 DUP4 DUP4 PUSH2 0x3534 JUMP JUMPDEST PUSH1 0x20 DUP4 ADD SWAP1 POP SWAP3 SWAP2 POP POP JUMP JUMPDEST PUSH2 0x3019 DUP2 PUSH2 0x3FB6 JUMP JUMPDEST DUP3 MSTORE POP POP JUMP JUMPDEST PUSH2 0x3028 DUP2 PUSH2 0x3FB6 JUMP JUMPDEST DUP3 MSTORE POP POP JUMP JUMPDEST PUSH1 0x0 PUSH2 0x3039 DUP3 PUSH2 0x3D6B JUMP JUMPDEST PUSH2 0x3043 DUP2 DUP6 PUSH2 0x3DE1 JUMP JUMPDEST SWAP4 POP PUSH2 0x304E DUP4 PUSH2 0x3D2B JUMP JUMPDEST DUP1 PUSH1 0x0 JUMPDEST DUP4 DUP2 LT ISZERO PUSH2 0x307F JUMPI DUP2 MLOAD PUSH2 0x3066 DUP9 DUP3 PUSH2 0x2FB8 JUMP JUMPDEST SWAP8 POP PUSH2 0x3071 DUP4 PUSH2 0x3DAD JUMP JUMPDEST SWAP3 POP POP PUSH1 0x1 DUP2 ADD SWAP1 POP PUSH2 0x3052 JUMP JUMPDEST POP DUP6 SWAP4 POP POP POP POP SWAP3 SWAP2 POP POP JUMP JUMPDEST PUSH1 0x0 PUSH2 0x3097 DUP3 PUSH2 0x3D76 JUMP JUMPDEST PUSH2 0x30A1 DUP2 DUP6 PUSH2 0x3DF2 JUMP JUMPDEST SWAP4 POP DUP4 PUSH1 0x20 DUP3 MUL DUP6 ADD PUSH2 0x30B3 DUP6 PUSH2 0x3D3B JUMP JUMPDEST DUP1 PUSH1 0x0 JUMPDEST DUP6 DUP2 LT ISZERO PUSH2 0x30EF JUMPI DUP5 DUP5 SUB DUP10 MSTORE DUP2 MLOAD PUSH2 0x30D0 DUP6 DUP3 PUSH2 0x2FD0 JUMP JUMPDEST SWAP5 POP PUSH2 0x30DB DUP4 PUSH2 0x3DBA JUMP JUMPDEST SWAP3 POP PUSH1 0x20 DUP11 ADD SWAP10 POP POP PUSH1 0x1 DUP2 ADD SWAP1 POP PUSH2 0x30B7 JUMP JUMPDEST POP DUP3 SWAP8 POP DUP8 SWAP6 POP POP POP POP POP POP SWAP3 SWAP2 POP POP JUMP JUMPDEST PUSH1 0x0 PUSH2 0x310C DUP3 PUSH2 0x3D81 JUMP JUMPDEST PUSH2 0x3116 DUP2 DUP6 PUSH2 0x3E03 JUMP JUMPDEST SWAP4 POP DUP4 PUSH1 0x20 DUP3 MUL DUP6 ADD PUSH2 0x3128 DUP6 PUSH2 0x3D4B JUMP JUMPDEST DUP1 PUSH1 0x0 JUMPDEST DUP6 DUP2 LT ISZERO PUSH2 0x3164 JUMPI DUP5 DUP5 SUB DUP10 MSTORE DUP2 MLOAD PUSH2 0x3145 DUP6 DUP3 PUSH2 0x2FE4 JUMP JUMPDEST SWAP5 POP PUSH2 0x3150 DUP4 PUSH2 0x3DC7 JUMP JUMPDEST SWAP3 POP PUSH1 0x20 DUP11 ADD SWAP10 POP POP PUSH1 0x1 DUP2 ADD SWAP1 POP PUSH2 0x312C JUMP JUMPDEST POP DUP3 SWAP8 POP DUP8 SWAP6 POP POP POP POP POP POP SWAP3 SWAP2 POP POP JUMP JUMPDEST PUSH1 0x0 PUSH2 0x3181 DUP3 PUSH2 0x3D8C JUMP JUMPDEST PUSH2 0x318B DUP2 DUP6 PUSH2 0x3E14 JUMP JUMPDEST SWAP4 POP PUSH2 0x3196 DUP4 PUSH2 0x3D5B JUMP JUMPDEST DUP1 PUSH1 0x0 JUMPDEST DUP4 DUP2 LT ISZERO PUSH2 0x31C7 JUMPI DUP2 MLOAD PUSH2 0x31AE DUP9 DUP3 PUSH2 0x2FF8 JUMP JUMPDEST SWAP8 POP PUSH2 0x31B9 DUP4 PUSH2 0x3DD4 JUMP JUMPDEST SWAP3 POP POP PUSH1 0x1 DUP2 ADD SWAP1 POP PUSH2 0x319A JUMP JUMPDEST POP DUP6 SWAP4 POP POP POP POP SWAP3 SWAP2 POP POP JUMP JUMPDEST PUSH2 0x31DD DUP2 PUSH2 0x3FDA JUMP JUMPDEST DUP3 MSTORE POP POP JUMP JUMPDEST PUSH2 0x31EC DUP2 PUSH2 0x3FE6 JUMP JUMPDEST DUP3 MSTORE POP POP JUMP JUMPDEST PUSH2 0x3203 PUSH2 0x31FE DUP3 PUSH2 0x3FE6 JUMP JUMPDEST PUSH2 0x41AF JUMP JUMPDEST DUP3 MSTORE POP POP JUMP JUMPDEST PUSH1 0x0 PUSH2 0x3214 DUP3 PUSH2 0x3D97 JUMP JUMPDEST PUSH2 0x321E DUP2 DUP6 PUSH2 0x3E25 JUMP JUMPDEST SWAP4 POP PUSH2 0x322E DUP2 DUP6 PUSH1 0x20 DUP7 ADD PUSH2 0x4119 JUMP JUMPDEST PUSH2 0x3237 DUP2 PUSH2 0x42C2 JUMP JUMPDEST DUP5 ADD SWAP2 POP POP SWAP3 SWAP2 POP POP JUMP JUMPDEST PUSH2 0x324B DUP2 PUSH2 0x4096 JUMP JUMPDEST DUP3 MSTORE POP POP JUMP JUMPDEST PUSH2 0x325A DUP2 PUSH2 0x40A8 JUMP JUMPDEST DUP3 MSTORE POP POP JUMP JUMPDEST PUSH2 0x3269 DUP2 PUSH2 0x40BA JUMP JUMPDEST DUP3 MSTORE POP POP JUMP JUMPDEST PUSH1 0x0 PUSH2 0x327A DUP3 PUSH2 0x3DA2 JUMP JUMPDEST PUSH2 0x3284 DUP2 DUP6 PUSH2 0x3E36 JUMP JUMPDEST SWAP4 POP PUSH2 0x3294 DUP2 DUP6 PUSH1 0x20 DUP7 ADD PUSH2 0x4119 JUMP JUMPDEST PUSH2 0x329D DUP2 PUSH2 0x42C2 JUMP JUMPDEST DUP5 ADD SWAP2 POP POP SWAP3 SWAP2 POP POP JUMP JUMPDEST PUSH1 0x0 PUSH2 0x32B3 DUP3 PUSH2 0x3DA2 JUMP JUMPDEST PUSH2 0x32BD DUP2 DUP6 PUSH2 0x3E47 JUMP JUMPDEST SWAP4 POP PUSH2 0x32CD DUP2 DUP6 PUSH1 0x20 DUP7 ADD PUSH2 0x4119 JUMP JUMPDEST PUSH2 0x32D6 DUP2 PUSH2 0x42C2 JUMP JUMPDEST DUP5 ADD SWAP2 POP POP SWAP3 SWAP2 POP POP JUMP JUMPDEST PUSH1 0x0 PUSH2 0x32EE PUSH1 0x18 DUP4 PUSH2 0x3E47 JUMP JUMPDEST SWAP2 POP PUSH2 0x32F9 DUP3 PUSH2 0x42E0 JUMP JUMPDEST PUSH1 0x20 DUP3 ADD SWAP1 POP SWAP2 SWAP1 POP JUMP JUMPDEST PUSH1 0x0 PUSH2 0x3311 PUSH1 0x18 DUP4 PUSH2 0x3E47 JUMP JUMPDEST SWAP2 POP PUSH2 0x331C DUP3 PUSH2 0x4309 JUMP JUMPDEST PUSH1 0x20 DUP3 ADD SWAP1 POP SWAP2 SWAP1 POP JUMP JUMPDEST PUSH1 0x0 PUSH2 0x3334 PUSH1 0x43 DUP4 PUSH2 0x3E47 JUMP JUMPDEST SWAP2 POP PUSH2 0x333F DUP3 PUSH2 0x4332 JUMP JUMPDEST PUSH1 0x60 DUP3 ADD SWAP1 POP SWAP2 SWAP1 POP JUMP JUMPDEST PUSH1 0x0 PUSH2 0x3357 PUSH1 0x43 DUP4 PUSH2 0x3E47 JUMP JUMPDEST SWAP2 POP PUSH2 0x3362 DUP3 PUSH2 0x43A7 JUMP JUMPDEST PUSH1 0x60 DUP3 ADD SWAP1 POP SWAP2 SWAP1 POP JUMP JUMPDEST PUSH1 0x0 PUSH2 0x337A PUSH1 0x1F DUP4 PUSH2 0x3E47 JUMP JUMPDEST SWAP2 POP PUSH2 0x3385 DUP3 PUSH2 0x441C JUMP JUMPDEST PUSH1 0x20 DUP3 ADD SWAP1 POP SWAP2 SWAP1 POP JUMP JUMPDEST PUSH1 0x0 PUSH2 0x339D PUSH1 0x2 DUP4 PUSH2 0x3E58 JUMP JUMPDEST SWAP2 POP PUSH2 0x33A8 DUP3 PUSH2 0x4445 JUMP JUMPDEST PUSH1 0x2 DUP3 ADD SWAP1 POP SWAP2 SWAP1 POP JUMP JUMPDEST PUSH1 0x0 PUSH2 0x33C0 PUSH1 0x21 DUP4 PUSH2 0x3E47 JUMP JUMPDEST SWAP2 POP PUSH2 0x33CB DUP3 PUSH2 0x446E JUMP JUMPDEST PUSH1 0x40 DUP3 ADD SWAP1 POP SWAP2 SWAP1 POP JUMP JUMPDEST PUSH1 0x0 PUSH2 0x33E3 PUSH1 0x22 DUP4 PUSH2 0x3E47 JUMP JUMPDEST SWAP2 POP PUSH2 0x33EE DUP3 PUSH2 0x44BD JUMP JUMPDEST PUSH1 0x40 DUP3 ADD SWAP1 POP SWAP2 SWAP1 POP JUMP JUMPDEST PUSH1 0x0 PUSH2 0x3406 PUSH1 0x27 DUP4 PUSH2 0x3E47 JUMP JUMPDEST SWAP2 POP PUSH2 0x3411 DUP3 PUSH2 0x450C JUMP JUMPDEST PUSH1 0x40 DUP3 ADD SWAP1 POP SWAP2 SWAP1 POP JUMP JUMPDEST PUSH1 0x0 PUSH2 0x3429 PUSH1 0x23 DUP4 PUSH2 0x3E47 JUMP JUMPDEST SWAP2 POP PUSH2 0x3434 DUP3 PUSH2 0x455B JUMP JUMPDEST PUSH1 0x40 DUP3 ADD SWAP1 POP SWAP2 SWAP1 POP JUMP JUMPDEST PUSH1 0x0 PUSH2 0x344C PUSH1 0x18 DUP4 PUSH2 0x3E47 JUMP JUMPDEST SWAP2 POP PUSH2 0x3457 DUP3 PUSH2 0x45AA JUMP JUMPDEST PUSH1 0x20 DUP3 ADD SWAP1 POP SWAP2 SWAP1 POP JUMP JUMPDEST PUSH1 0x0 PUSH2 0x346F PUSH1 0x22 DUP4 PUSH2 0x3E47 JUMP JUMPDEST SWAP2 POP PUSH2 0x347A DUP3 PUSH2 0x45D3 JUMP JUMPDEST PUSH1 0x40 DUP3 ADD SWAP1 POP SWAP2 SWAP1 POP JUMP JUMPDEST PUSH1 0x0 PUSH2 0x3492 PUSH1 0x26 DUP4 PUSH2 0x3E47 JUMP JUMPDEST SWAP2 POP PUSH2 0x349D DUP3 PUSH2 0x4622 JUMP JUMPDEST PUSH1 0x40 DUP3 ADD SWAP1 POP SWAP2 SWAP1 POP JUMP JUMPDEST PUSH1 0x0 PUSH2 0x34B5 PUSH1 0x21 DUP4 PUSH2 0x3E47 JUMP JUMPDEST SWAP2 POP PUSH2 0x34C0 DUP3 PUSH2 0x4671 JUMP JUMPDEST PUSH1 0x40 DUP3 ADD SWAP1 POP SWAP2 SWAP1 POP JUMP JUMPDEST PUSH1 0x0 PUSH2 0x34D8 PUSH1 0x1D DUP4 PUSH2 0x3E47 JUMP JUMPDEST SWAP2 POP PUSH2 0x34E3 DUP3 PUSH2 0x46C0 JUMP JUMPDEST PUSH1 0x20 DUP3 ADD SWAP1 POP SWAP2 SWAP1 POP JUMP JUMPDEST PUSH1 0x0 PUSH2 0x34FB PUSH1 0x35 DUP4 PUSH2 0x3E47 JUMP JUMPDEST SWAP2 POP PUSH2 0x3506 DUP3 PUSH2 0x46E9 JUMP JUMPDEST PUSH1 0x40 DUP3 ADD SWAP1 POP SWAP2 SWAP1 POP JUMP JUMPDEST PUSH1 0x0 PUSH2 0x351E PUSH1 0x21 DUP4 PUSH2 0x3E47 JUMP JUMPDEST SWAP2 POP PUSH2 0x3529 DUP3 PUSH2 0x4738 JUMP JUMPDEST PUSH1 0x40 DUP3 ADD SWAP1 POP SWAP2 SWAP1 POP JUMP JUMPDEST PUSH2 0x353D DUP2 PUSH2 0x406B JUMP JUMPDEST DUP3 MSTORE POP POP JUMP JUMPDEST PUSH2 0x354C DUP2 PUSH2 0x406B JUMP JUMPDEST DUP3 MSTORE POP POP JUMP JUMPDEST PUSH2 0x355B DUP2 PUSH2 0x40F8 JUMP JUMPDEST DUP3 MSTORE POP POP JUMP JUMPDEST PUSH2 0x356A DUP2 PUSH2 0x4089 JUMP JUMPDEST DUP3 MSTORE POP POP JUMP JUMPDEST PUSH1 0x0 PUSH2 0x357B DUP3 PUSH2 0x3390 JUMP JUMPDEST SWAP2 POP PUSH2 0x3587 DUP3 DUP6 PUSH2 0x31F2 JUMP JUMPDEST PUSH1 0x20 DUP3 ADD SWAP2 POP PUSH2 0x3597 DUP3 DUP5 PUSH2 0x31F2 JUMP JUMPDEST PUSH1 0x20 DUP3 ADD SWAP2 POP DUP2 SWAP1 POP SWAP4 SWAP3 POP POP POP JUMP JUMPDEST PUSH1 0x0 PUSH1 0x20 DUP3 ADD SWAP1 POP PUSH2 0x35BC PUSH1 0x0 DUP4 ADD DUP5 PUSH2 0x301F JUMP JUMPDEST SWAP3 SWAP2 POP POP JUMP JUMPDEST PUSH1 0x0 PUSH1 0x40 DUP3 ADD SWAP1 POP PUSH2 0x35D7 PUSH1 0x0 DUP4 ADD DUP6 PUSH2 0x301F JUMP JUMPDEST PUSH2 0x35E4 PUSH1 0x20 DUP4 ADD DUP5 PUSH2 0x301F JUMP JUMPDEST SWAP4 SWAP3 POP POP POP JUMP JUMPDEST PUSH1 0x0 PUSH1 0x40 DUP3 ADD SWAP1 POP PUSH2 0x3600 PUSH1 0x0 DUP4 ADD DUP6 PUSH2 0x301F JUMP JUMPDEST PUSH2 0x360D PUSH1 0x20 DUP4 ADD DUP5 PUSH2 0x3543 JUMP JUMPDEST SWAP4 SWAP3 POP POP POP JUMP JUMPDEST PUSH1 0x0 PUSH1 0x80 DUP3 ADD SWAP1 POP DUP2 DUP2 SUB PUSH1 0x0 DUP4 ADD MSTORE PUSH2 0x362E DUP2 DUP8 PUSH2 0x302E JUMP JUMPDEST SWAP1 POP DUP2 DUP2 SUB PUSH1 0x20 DUP4 ADD MSTORE PUSH2 0x3642 DUP2 DUP7 PUSH2 0x3176 JUMP JUMPDEST SWAP1 POP DUP2 DUP2 SUB PUSH1 0x40 DUP4 ADD MSTORE PUSH2 0x3656 DUP2 DUP6 PUSH2 0x308C JUMP JUMPDEST SWAP1 POP PUSH2 0x3665 PUSH1 0x60 DUP4 ADD DUP5 PUSH2 0x31E3 JUMP JUMPDEST SWAP6 SWAP5 POP POP POP POP POP JUMP JUMPDEST PUSH1 0x0 PUSH1 0xA0 DUP3 ADD SWAP1 POP DUP2 DUP2 SUB PUSH1 0x0 DUP4 ADD MSTORE PUSH2 0x3688 DUP2 DUP9 PUSH2 0x302E JUMP JUMPDEST SWAP1 POP DUP2 DUP2 SUB PUSH1 0x20 DUP4 ADD MSTORE PUSH2 0x369C DUP2 DUP8 PUSH2 0x3176 JUMP JUMPDEST SWAP1 POP DUP2 DUP2 SUB PUSH1 0x40 DUP4 ADD MSTORE PUSH2 0x36B0 DUP2 DUP7 PUSH2 0x308C JUMP JUMPDEST SWAP1 POP PUSH2 0x36BF PUSH1 0x60 DUP4 ADD DUP6 PUSH2 0x3260 JUMP JUMPDEST PUSH2 0x36CC PUSH1 0x80 DUP4 ADD DUP5 PUSH2 0x31E3 JUMP JUMPDEST SWAP7 SWAP6 POP POP POP POP POP POP JUMP JUMPDEST PUSH1 0x0 PUSH1 0xC0 DUP3 ADD SWAP1 POP DUP2 DUP2 SUB PUSH1 0x0 DUP4 ADD MSTORE PUSH2 0x36F0 DUP2 DUP10 PUSH2 0x302E JUMP JUMPDEST SWAP1 POP DUP2 DUP2 SUB PUSH1 0x20 DUP4 ADD MSTORE PUSH2 0x3704 DUP2 DUP9 PUSH2 0x3176 JUMP JUMPDEST SWAP1 POP DUP2 DUP2 SUB PUSH1 0x40 DUP4 ADD MSTORE PUSH2 0x3718 DUP2 DUP8 PUSH2 0x308C JUMP JUMPDEST SWAP1 POP PUSH2 0x3727 PUSH1 0x60 DUP4 ADD DUP7 PUSH2 0x3260 JUMP JUMPDEST PUSH2 0x3734 PUSH1 0x80 DUP4 ADD DUP6 PUSH2 0x31E3 JUMP JUMPDEST PUSH2 0x3741 PUSH1 0xA0 DUP4 ADD DUP5 PUSH2 0x3543 JUMP JUMPDEST SWAP8 SWAP7 POP POP POP POP POP POP POP JUMP JUMPDEST PUSH1 0x0 PUSH1 0x20 DUP3 ADD SWAP1 POP PUSH2 0x3761 PUSH1 0x0 DUP4 ADD DUP5 PUSH2 0x31D4 JUMP JUMPDEST SWAP3 SWAP2 POP POP JUMP JUMPDEST PUSH1 0x0 PUSH1 0x20 DUP3 ADD SWAP1 POP PUSH2 0x377C PUSH1 0x0 DUP4 ADD DUP5 PUSH2 0x31E3 JUMP JUMPDEST SWAP3 SWAP2 POP POP JUMP JUMPDEST PUSH1 0x0 PUSH1 0xA0 DUP3 ADD SWAP1 POP PUSH2 0x3797 PUSH1 0x0 DUP4 ADD DUP9 PUSH2 0x31E3 JUMP JUMPDEST PUSH2 0x37A4 PUSH1 0x20 DUP4 ADD DUP8 PUSH2 0x31E3 JUMP JUMPDEST PUSH2 0x37B1 PUSH1 0x40 DUP4 ADD DUP7 PUSH2 0x31E3 JUMP JUMPDEST PUSH2 0x37BE PUSH1 0x60 DUP4 ADD DUP6 PUSH2 0x3543 JUMP JUMPDEST PUSH2 0x37CB PUSH1 0x80 DUP4 ADD DUP5 PUSH2 0x301F JUMP JUMPDEST SWAP7 SWAP6 POP POP POP POP POP POP JUMP JUMPDEST PUSH1 0x0 PUSH1 0x60 DUP3 ADD SWAP1 POP PUSH2 0x37EA PUSH1 0x0 DUP4 ADD DUP7 PUSH2 0x31E3 JUMP JUMPDEST PUSH2 0x37F7 PUSH1 0x20 DUP4 ADD DUP6 PUSH2 0x3543 JUMP JUMPDEST PUSH2 0x3804 PUSH1 0x40 DUP4 ADD DUP5 PUSH2 0x3561 JUMP JUMPDEST SWAP5 SWAP4 POP POP POP POP JUMP JUMPDEST PUSH1 0x0 PUSH1 0x80 DUP3 ADD SWAP1 POP PUSH2 0x3821 PUSH1 0x0 DUP4 ADD DUP8 PUSH2 0x31E3 JUMP JUMPDEST PUSH2 0x382E PUSH1 0x20 DUP4 ADD DUP7 PUSH2 0x3561 JUMP JUMPDEST PUSH2 0x383B PUSH1 0x40 DUP4 ADD DUP6 PUSH2 0x31E3 JUMP JUMPDEST PUSH2 0x3848 PUSH1 0x60 DUP4 ADD DUP5 PUSH2 0x31E3 JUMP JUMPDEST SWAP6 SWAP5 POP POP POP POP POP JUMP JUMPDEST PUSH1 0x0 PUSH1 0x20 DUP3 ADD SWAP1 POP PUSH2 0x3866 PUSH1 0x0 DUP4 ADD DUP5 PUSH2 0x3242 JUMP JUMPDEST SWAP3 SWAP2 POP POP JUMP JUMPDEST PUSH1 0x0 PUSH1 0x20 DUP3 ADD SWAP1 POP PUSH2 0x3881 PUSH1 0x0 DUP4 ADD DUP5 PUSH2 0x3251 JUMP JUMPDEST SWAP3 SWAP2 POP POP JUMP JUMPDEST PUSH1 0x0 PUSH1 0x20 DUP3 ADD SWAP1 POP DUP2 DUP2 SUB PUSH1 0x0 DUP4 ADD MSTORE PUSH2 0x38A1 DUP2 DUP5 PUSH2 0x32A8 JUMP JUMPDEST SWAP1 POP SWAP3 SWAP2 POP POP JUMP JUMPDEST PUSH1 0x0 PUSH1 0x20 DUP3 ADD SWAP1 POP DUP2 DUP2 SUB PUSH1 0x0 DUP4 ADD MSTORE PUSH2 0x38C2 DUP2 PUSH2 0x32E1 JUMP JUMPDEST SWAP1 POP SWAP2 SWAP1 POP JUMP JUMPDEST PUSH1 0x0 PUSH1 0x20 DUP3 ADD SWAP1 POP DUP2 DUP2 SUB PUSH1 0x0 DUP4 ADD MSTORE PUSH2 0x38E2 DUP2 PUSH2 0x3304 JUMP JUMPDEST SWAP1 POP SWAP2 SWAP1 POP JUMP JUMPDEST PUSH1 0x0 PUSH1 0x20 DUP3 ADD SWAP1 POP DUP2 DUP2 SUB PUSH1 0x0 DUP4 ADD MSTORE PUSH2 0x3902 DUP2 PUSH2 0x3327 JUMP JUMPDEST SWAP1 POP SWAP2 SWAP1 POP JUMP JUMPDEST PUSH1 0x0 PUSH1 0x20 DUP3 ADD SWAP1 POP DUP2 DUP2 SUB PUSH1 0x0 DUP4 ADD MSTORE PUSH2 0x3922 DUP2 PUSH2 0x334A JUMP JUMPDEST SWAP1 POP SWAP2 SWAP1 POP JUMP JUMPDEST PUSH1 0x0 PUSH1 0x20 DUP3 ADD SWAP1 POP DUP2 DUP2 SUB PUSH1 0x0 DUP4 ADD MSTORE PUSH2 0x3942 DUP2 PUSH2 0x336D JUMP JUMPDEST SWAP1 POP SWAP2 SWAP1 POP JUMP JUMPDEST PUSH1 0x0 PUSH1 0x20 DUP3 ADD SWAP1 POP DUP2 DUP2 SUB PUSH1 0x0 DUP4 ADD MSTORE PUSH2 0x3962 DUP2 PUSH2 0x33B3 JUMP JUMPDEST SWAP1 POP SWAP2 SWAP1 POP JUMP JUMPDEST PUSH1 0x0 PUSH1 0x20 DUP3 ADD SWAP1 POP DUP2 DUP2 SUB PUSH1 0x0 DUP4 ADD MSTORE PUSH2 0x3982 DUP2 PUSH2 0x33D6 JUMP JUMPDEST SWAP1 POP SWAP2 SWAP1 POP JUMP JUMPDEST PUSH1 0x0 PUSH1 0x20 DUP3 ADD SWAP1 POP DUP2 DUP2 SUB PUSH1 0x0 DUP4 ADD MSTORE PUSH2 0x39A2 DUP2 PUSH2 0x33F9 JUMP JUMPDEST SWAP1 POP SWAP2 SWAP1 POP JUMP JUMPDEST PUSH1 0x0 PUSH1 0x20 DUP3 ADD SWAP1 POP DUP2 DUP2 SUB PUSH1 0x0 DUP4 ADD MSTORE PUSH2 0x39C2 DUP2 PUSH2 0x341C JUMP JUMPDEST SWAP1 POP SWAP2 SWAP1 POP JUMP JUMPDEST PUSH1 0x0 PUSH1 0x20 DUP3 ADD SWAP1 POP DUP2 DUP2 SUB PUSH1 0x0 DUP4 ADD MSTORE PUSH2 0x39E2 DUP2 PUSH2 0x343F JUMP JUMPDEST SWAP1 POP SWAP2 SWAP1 POP JUMP JUMPDEST PUSH1 0x0 PUSH1 0x20 DUP3 ADD SWAP1 POP DUP2 DUP2 SUB PUSH1 0x0 DUP4 ADD MSTORE PUSH2 0x3A02 DUP2 PUSH2 0x3462 JUMP JUMPDEST SWAP1 POP SWAP2 SWAP1 POP JUMP JUMPDEST PUSH1 0x0 PUSH1 0x20 DUP3 ADD SWAP1 POP DUP2 DUP2 SUB PUSH1 0x0 DUP4 ADD MSTORE PUSH2 0x3A22 DUP2 PUSH2 0x3485 JUMP JUMPDEST SWAP1 POP SWAP2 SWAP1 POP JUMP JUMPDEST PUSH1 0x0 PUSH1 0x20 DUP3 ADD SWAP1 POP DUP2 DUP2 SUB PUSH1 0x0 DUP4 ADD MSTORE PUSH2 0x3A42 DUP2 PUSH2 0x34A8 JUMP JUMPDEST SWAP1 POP SWAP2 SWAP1 POP JUMP JUMPDEST PUSH1 0x0 PUSH1 0x20 DUP3 ADD SWAP1 POP DUP2 DUP2 SUB PUSH1 0x0 DUP4 ADD MSTORE PUSH2 0x3A62 DUP2 PUSH2 0x34CB JUMP JUMPDEST SWAP1 POP SWAP2 SWAP1 POP JUMP JUMPDEST PUSH1 0x0 PUSH1 0x20 DUP3 ADD SWAP1 POP DUP2 DUP2 SUB PUSH1 0x0 DUP4 ADD MSTORE PUSH2 0x3A82 DUP2 PUSH2 0x34EE JUMP JUMPDEST SWAP1 POP SWAP2 SWAP1 POP JUMP JUMPDEST PUSH1 0x0 PUSH1 0x20 DUP3 ADD SWAP1 POP DUP2 DUP2 SUB PUSH1 0x0 DUP4 ADD MSTORE PUSH2 0x3AA2 DUP2 PUSH2 0x3511 JUMP JUMPDEST SWAP1 POP SWAP2 SWAP1 POP JUMP JUMPDEST PUSH1 0x0 PUSH1 0x20 DUP3 ADD SWAP1 POP PUSH2 0x3ABE PUSH1 0x0 DUP4 ADD DUP5 PUSH2 0x3543 JUMP JUMPDEST SWAP3 SWAP2 POP POP JUMP JUMPDEST PUSH1 0x0 PUSH2 0x120 DUP3 ADD SWAP1 POP PUSH2 0x3ADA PUSH1 0x0 DUP4 ADD DUP13 PUSH2 0x3543 JUMP JUMPDEST PUSH2 0x3AE7 PUSH1 0x20 DUP4 ADD DUP12 PUSH2 0x301F JUMP JUMPDEST DUP2 DUP2 SUB PUSH1 0x40 DUP4 ADD MSTORE PUSH2 0x3AF9 DUP2 DUP11 PUSH2 0x302E JUMP JUMPDEST SWAP1 POP DUP2 DUP2 SUB PUSH1 0x60 DUP4 ADD MSTORE PUSH2 0x3B0D DUP2 DUP10 PUSH2 0x3176 JUMP JUMPDEST SWAP1 POP DUP2 DUP2 SUB PUSH1 0x80 DUP4 ADD MSTORE PUSH2 0x3B21 DUP2 DUP9 PUSH2 0x3101 JUMP JUMPDEST SWAP1 POP DUP2 DUP2 SUB PUSH1 0xA0 DUP4 ADD MSTORE PUSH2 0x3B35 DUP2 DUP8 PUSH2 0x308C JUMP JUMPDEST SWAP1 POP PUSH2 0x3B44 PUSH1 0xC0 DUP4 ADD DUP7 PUSH2 0x3552 JUMP JUMPDEST PUSH2 0x3B51 PUSH1 0xE0 DUP4 ADD DUP6 PUSH2 0x3552 JUMP JUMPDEST DUP2 DUP2 SUB PUSH2 0x100 DUP4 ADD MSTORE PUSH2 0x3B64 DUP2 DUP5 PUSH2 0x32A8 JUMP JUMPDEST SWAP1 POP SWAP11 SWAP10 POP POP POP POP POP POP POP POP POP POP JUMP JUMPDEST PUSH1 0x0 PUSH1 0x40 DUP3 ADD SWAP1 POP PUSH2 0x3B89 PUSH1 0x0 DUP4 ADD DUP6 PUSH2 0x3543 JUMP JUMPDEST PUSH2 0x3B96 PUSH1 0x20 DUP4 ADD DUP5 PUSH2 0x3543 JUMP JUMPDEST SWAP4 SWAP3 POP POP POP JUMP JUMPDEST PUSH1 0x0 PUSH1 0x60 DUP3 ADD SWAP1 POP PUSH2 0x3BB2 PUSH1 0x0 DUP4 ADD DUP7 PUSH2 0x3543 JUMP JUMPDEST PUSH2 0x3BBF PUSH1 0x20 DUP4 ADD DUP6 PUSH2 0x3543 JUMP JUMPDEST PUSH2 0x3BCC PUSH1 0x40 DUP4 ADD DUP5 PUSH2 0x3543 JUMP JUMPDEST SWAP5 SWAP4 POP POP POP POP JUMP JUMPDEST PUSH1 0x0 PUSH1 0x80 DUP3 ADD SWAP1 POP PUSH2 0x3BE9 PUSH1 0x0 DUP4 ADD DUP8 PUSH2 0x3543 JUMP JUMPDEST PUSH2 0x3BF6 PUSH1 0x20 DUP4 ADD DUP7 PUSH2 0x3561 JUMP JUMPDEST PUSH2 0x3C03 PUSH1 0x40 DUP4 ADD DUP6 PUSH2 0x3543 JUMP JUMPDEST DUP2 DUP2 SUB PUSH1 0x60 DUP4 ADD MSTORE PUSH2 0x3C15 DUP2 DUP5 PUSH2 0x32A8 JUMP JUMPDEST SWAP1 POP SWAP6 SWAP5 POP POP POP POP POP JUMP JUMPDEST PUSH1 0x0 PUSH2 0x3C2A PUSH2 0x3C3B JUMP JUMPDEST SWAP1 POP PUSH2 0x3C36 DUP3 DUP3 PUSH2 0x417E JUMP JUMPDEST SWAP2 SWAP1 POP JUMP JUMPDEST PUSH1 0x0 PUSH1 0x40 MLOAD SWAP1 POP SWAP1 JUMP JUMPDEST PUSH1 0x0 PUSH8 0xFFFFFFFFFFFFFFFF DUP3 GT ISZERO PUSH2 0x3C60 JUMPI PUSH2 0x3C5F PUSH2 0x4275 JUMP JUMPDEST JUMPDEST PUSH1 0x20 DUP3 MUL SWAP1 POP PUSH1 0x20 DUP2 ADD SWAP1 POP SWAP2 SWAP1 POP JUMP JUMPDEST PUSH1 0x0 PUSH8 0xFFFFFFFFFFFFFFFF DUP3 GT ISZERO PUSH2 0x3C8C JUMPI PUSH2 0x3C8B PUSH2 0x4275 JUMP JUMPDEST JUMPDEST PUSH1 0x20 DUP3 MUL SWAP1 POP PUSH1 0x20 DUP2 ADD SWAP1 POP SWAP2 SWAP1 POP JUMP JUMPDEST PUSH1 0x0 PUSH8 0xFFFFFFFFFFFFFFFF DUP3 GT ISZERO PUSH2 0x3CB8 JUMPI PUSH2 0x3CB7 PUSH2 0x4275 JUMP JUMPDEST JUMPDEST PUSH1 0x20 DUP3 MUL SWAP1 POP PUSH1 0x20 DUP2 ADD SWAP1 POP SWAP2 SWAP1 POP JUMP JUMPDEST PUSH1 0x0 PUSH8 0xFFFFFFFFFFFFFFFF DUP3 GT ISZERO PUSH2 0x3CE4 JUMPI PUSH2 0x3CE3 PUSH2 0x4275 JUMP JUMPDEST JUMPDEST PUSH2 0x3CED DUP3 PUSH2 0x42C2 JUMP JUMPDEST SWAP1 POP PUSH1 0x20 DUP2 ADD SWAP1 POP SWAP2 SWAP1 POP JUMP JUMPDEST PUSH1 0x0 PUSH8 0xFFFFFFFFFFFFFFFF DUP3 GT ISZERO PUSH2 0x3D15 JUMPI PUSH2 0x3D14 PUSH2 0x4275 JUMP JUMPDEST JUMPDEST PUSH2 0x3D1E DUP3 PUSH2 0x42C2 JUMP JUMPDEST SWAP1 POP PUSH1 0x20 DUP2 ADD SWAP1 POP SWAP2 SWAP1 POP JUMP JUMPDEST PUSH1 0x0 DUP2 SWAP1 POP PUSH1 0x20 DUP3 ADD SWAP1 POP SWAP2 SWAP1 POP JUMP JUMPDEST PUSH1 0x0 DUP2 SWAP1 POP PUSH1 0x20 DUP3 ADD SWAP1 POP SWAP2 SWAP1 POP JUMP JUMPDEST PUSH1 0x0 DUP2 SWAP1 POP PUSH1 0x20 DUP3 ADD SWAP1 POP SWAP2 SWAP1 POP JUMP JUMPDEST PUSH1 0x0 DUP2 SWAP1 POP PUSH1 0x20 DUP3 ADD SWAP1 POP SWAP2 SWAP1 POP JUMP JUMPDEST PUSH1 0x0 DUP2 MLOAD SWAP1 POP SWAP2 SWAP1 POP JUMP JUMPDEST PUSH1 0x0 DUP2 MLOAD SWAP1 POP SWAP2 SWAP1 POP JUMP JUMPDEST PUSH1 0x0 DUP2 MLOAD SWAP1 POP SWAP2 SWAP1 POP JUMP JUMPDEST PUSH1 0x0 DUP2 MLOAD SWAP1 POP SWAP2 SWAP1 POP JUMP JUMPDEST PUSH1 0x0 DUP2 MLOAD SWAP1 POP SWAP2 SWAP1 POP JUMP JUMPDEST PUSH1 0x0 DUP2 MLOAD SWAP1 POP SWAP2 SWAP1 POP JUMP JUMPDEST PUSH1 0x0 PUSH1 0x20 DUP3 ADD SWAP1 POP SWAP2 SWAP1 POP JUMP JUMPDEST PUSH1 0x0 PUSH1 0x20 DUP3 ADD SWAP1 POP SWAP2 SWAP1 POP JUMP JUMPDEST PUSH1 0x0 PUSH1 0x20 DUP3 ADD SWAP1 POP SWAP2 SWAP1 POP JUMP JUMPDEST PUSH1 0x0 PUSH1 0x20 DUP3 ADD SWAP1 POP SWAP2 SWAP1 POP JUMP JUMPDEST PUSH1 0x0 DUP3 DUP3 MSTORE PUSH1 0x20 DUP3 ADD SWAP1 POP SWAP3 SWAP2 POP POP JUMP JUMPDEST PUSH1 0x0 DUP3 DUP3 MSTORE PUSH1 0x20 DUP3 ADD SWAP1 POP SWAP3 SWAP2 POP POP JUMP JUMPDEST PUSH1 0x0 DUP3 DUP3 MSTORE PUSH1 0x20 DUP3 ADD SWAP1 POP SWAP3 SWAP2 POP POP JUMP JUMPDEST PUSH1 0x0 DUP3 DUP3 MSTORE PUSH1 0x20 DUP3 ADD SWAP1 POP SWAP3 SWAP2 POP POP JUMP JUMPDEST PUSH1 0x0 DUP3 DUP3 MSTORE PUSH1 0x20 DUP3 ADD SWAP1 POP SWAP3 SWAP2 POP POP JUMP JUMPDEST PUSH1 0x0 DUP3 DUP3 MSTORE PUSH1 0x20 DUP3 ADD SWAP1 POP SWAP3 SWAP2 POP POP JUMP JUMPDEST PUSH1 0x0 DUP3 DUP3 MSTORE PUSH1 0x20 DUP3 ADD SWAP1 POP SWAP3 SWAP2 POP POP JUMP JUMPDEST PUSH1 0x0 DUP2 SWAP1 POP SWAP3 SWAP2 POP POP JUMP JUMPDEST PUSH1 0x0 PUSH2 0x3E6E DUP3 PUSH2 0x406B JUMP JUMPDEST SWAP2 POP PUSH2 0x3E79 DUP4 PUSH2 0x406B JUMP JUMPDEST SWAP3 POP DUP3 PUSH32 0xFFFFFFFFFFFFFFFFFFFFFFFFFFFFFFFFFFFFFFFFFFFFFFFFFFFFFFFFFFFFFFFF SUB DUP3 GT ISZERO PUSH2 0x3EAE JUMPI PUSH2 0x3EAD PUSH2 0x41B9 JUMP JUMPDEST JUMPDEST DUP3 DUP3 ADD SWAP1 POP SWAP3 SWAP2 POP POP JUMP JUMPDEST PUSH1 0x0 PUSH2 0x3EC4 DUP3 PUSH2 0x4075 JUMP JUMPDEST SWAP2 POP PUSH2 0x3ECF DUP4 PUSH2 0x4075 JUMP JUMPDEST SWAP3 POP DUP3 PUSH8 0xFFFFFFFFFFFFFFFF SUB DUP3 GT ISZERO PUSH2 0x3EEC JUMPI PUSH2 0x3EEB PUSH2 0x41B9 JUMP JUMPDEST JUMPDEST DUP3 DUP3 ADD SWAP1 POP SWAP3 SWAP2 POP POP JUMP JUMPDEST PUSH1 0x0 PUSH2 0x3F02 DUP3 PUSH2 0x406B JUMP JUMPDEST SWAP2 POP PUSH2 0x3F0D DUP4 PUSH2 0x406B JUMP JUMPDEST SWAP3 POP DUP3 PUSH2 0x3F1D JUMPI PUSH2 0x3F1C PUSH2 0x41E8 JUMP JUMPDEST JUMPDEST DUP3 DUP3 DIV SWAP1 POP SWAP3 SWAP2 POP POP JUMP JUMPDEST PUSH1 0x0 PUSH2 0x3F33 DUP3 PUSH2 0x406B JUMP JUMPDEST SWAP2 POP PUSH2 0x3F3E DUP4 PUSH2 0x406B JUMP JUMPDEST SWAP3 POP DUP2 PUSH32 0xFFFFFFFFFFFFFFFFFFFFFFFFFFFFFFFFFFFFFFFFFFFFFFFFFFFFFFFFFFFFFFFF DIV DUP4 GT DUP3 ISZERO ISZERO AND ISZERO PUSH2 0x3F77 JUMPI PUSH2 0x3F76 PUSH2 0x41B9 JUMP JUMPDEST JUMPDEST DUP3 DUP3 MUL SWAP1 POP SWAP3 SWAP2 POP POP JUMP JUMPDEST PUSH1 0x0 PUSH2 0x3F8D DUP3 PUSH2 0x406B JUMP JUMPDEST SWAP2 POP PUSH2 0x3F98 DUP4 PUSH2 0x406B JUMP JUMPDEST SWAP3 POP DUP3 DUP3 LT ISZERO PUSH2 0x3FAB JUMPI PUSH2 0x3FAA PUSH2 0x41B9 JUMP JUMPDEST JUMPDEST DUP3 DUP3 SUB SWAP1 POP SWAP3 SWAP2 POP POP JUMP JUMPDEST PUSH1 0x0 PUSH2 0x3FC1 DUP3 PUSH2 0x404B JUMP JUMPDEST SWAP1 POP SWAP2 SWAP1 POP JUMP JUMPDEST PUSH1 0x0 PUSH2 0x3FD3 DUP3 PUSH2 0x404B JUMP JUMPDEST SWAP1 POP SWAP2 SWAP1 POP JUMP JUMPDEST PUSH1 0x0 DUP2 ISZERO ISZERO SWAP1 POP SWAP2 SWAP1 POP JUMP JUMPDEST PUSH1 0x0 DUP2 SWAP1 POP SWAP2 SWAP1 POP JUMP JUMPDEST PUSH1 0x0 PUSH32 0xFFFFFFFF00000000000000000000000000000000000000000000000000000000 DUP3 AND SWAP1 POP SWAP2 SWAP1 POP JUMP JUMPDEST PUSH1 0x0 PUSH2 0x4027 DUP3 PUSH2 0x3FC8 JUMP JUMPDEST SWAP1 POP SWAP2 SWAP1 POP JUMP JUMPDEST PUSH1 0x0 DUP2 SWAP1 POP PUSH2 0x403C DUP3 PUSH2 0x4787 JUMP JUMPDEST SWAP2 SWAP1 POP JUMP JUMPDEST PUSH1 0x0 DUP2 SWAP1 POP SWAP2 SWAP1 POP JUMP JUMPDEST PUSH1 0x0 PUSH20 0xFFFFFFFFFFFFFFFFFFFFFFFFFFFFFFFFFFFFFFFF DUP3 AND SWAP1 POP SWAP2 SWAP1 POP JUMP JUMPDEST PUSH1 0x0 DUP2 SWAP1 POP SWAP2 SWAP1 POP JUMP JUMPDEST PUSH1 0x0 PUSH8 0xFFFFFFFFFFFFFFFF DUP3 AND SWAP1 POP SWAP2 SWAP1 POP JUMP JUMPDEST PUSH1 0x0 PUSH1 0xFF DUP3 AND SWAP1 POP SWAP2 SWAP1 POP JUMP JUMPDEST PUSH1 0x0 PUSH2 0x40A1 DUP3 PUSH2 0x40D4 JUMP JUMPDEST SWAP1 POP SWAP2 SWAP1 POP JUMP JUMPDEST PUSH1 0x0 PUSH2 0x40B3 DUP3 PUSH2 0x402E JUMP JUMPDEST SWAP1 POP SWAP2 SWAP1 POP JUMP JUMPDEST PUSH1 0x0 PUSH2 0x40CD PUSH2 0x40C8 DUP4 PUSH2 0x4041 JUMP JUMPDEST PUSH2 0x42D3 JUMP JUMPDEST SWAP1 POP SWAP2 SWAP1 POP JUMP JUMPDEST PUSH1 0x0 PUSH2 0x40DF DUP3 PUSH2 0x40E6 JUMP JUMPDEST SWAP1 POP SWAP2 SWAP1 POP JUMP JUMPDEST PUSH1 0x0 PUSH2 0x40F1 DUP3 PUSH2 0x404B JUMP JUMPDEST SWAP1 POP SWAP2 SWAP1 POP JUMP JUMPDEST PUSH1 0x0 PUSH2 0x4103 DUP3 PUSH2 0x4075 JUMP JUMPDEST SWAP1 POP SWAP2 SWAP1 POP JUMP JUMPDEST DUP3 DUP2 DUP4 CALLDATACOPY PUSH1 0x0 DUP4 DUP4 ADD MSTORE POP POP POP JUMP JUMPDEST PUSH1 0x0 JUMPDEST DUP4 DUP2 LT ISZERO PUSH2 0x4137 JUMPI DUP1 DUP3 ADD MLOAD DUP2 DUP5 ADD MSTORE PUSH1 0x20 DUP2 ADD SWAP1 POP PUSH2 0x411C JUMP JUMPDEST DUP4 DUP2 GT ISZERO PUSH2 0x4146 JUMPI PUSH1 0x0 DUP5 DUP5 ADD MSTORE JUMPDEST POP POP POP POP JUMP JUMPDEST PUSH1 0x0 PUSH1 0x2 DUP3 DIV SWAP1 POP PUSH1 0x1 DUP3 AND DUP1 PUSH2 0x4164 JUMPI PUSH1 0x7F DUP3 AND SWAP2 POP JUMPDEST PUSH1 0x20 DUP3 LT DUP2 EQ ISZERO PUSH2 0x4178 JUMPI PUSH2 0x4177 PUSH2 0x4246 JUMP JUMPDEST JUMPDEST POP SWAP2 SWAP1 POP JUMP JUMPDEST PUSH2 0x4187 DUP3 PUSH2 0x42C2 JUMP JUMPDEST DUP2 ADD DUP2 DUP2 LT PUSH8 0xFFFFFFFFFFFFFFFF DUP3 GT OR ISZERO PUSH2 0x41A6 JUMPI PUSH2 0x41A5 PUSH2 0x4275 JUMP JUMPDEST JUMPDEST DUP1 PUSH1 0x40 MSTORE POP POP POP JUMP JUMPDEST PUSH1 0x0 DUP2 SWAP1 POP SWAP2 SWAP1 POP JUMP JUMPDEST PUSH32 0x4E487B7100000000000000000000000000000000000000000000000000000000 PUSH1 0x0 MSTORE PUSH1 0x11 PUSH1 0x4 MSTORE PUSH1 0x24 PUSH1 0x0 REVERT JUMPDEST PUSH32 0x4E487B7100000000000000000000000000000000000000000000000000000000 PUSH1 0x0 MSTORE PUSH1 0x12 PUSH1 0x4 MSTORE PUSH1 0x24 PUSH1 0x0 REVERT JUMPDEST PUSH32 0x4E487B7100000000000000000000000000000000000000000000000000000000 PUSH1 0x0 MSTORE PUSH1 0x21 PUSH1 0x4 MSTORE PUSH1 0x24 PUSH1 0x0 REVERT JUMPDEST PUSH32 0x4E487B7100000000000000000000000000000000000000000000000000000000 PUSH1 0x0 MSTORE PUSH1 0x22 PUSH1 0x4 MSTORE PUSH1 0x24 PUSH1 0x0 REVERT JUMPDEST PUSH32 0x4E487B7100000000000000000000000000000000000000000000000000000000 PUSH1 0x0 MSTORE PUSH1 0x41 PUSH1 0x4 MSTORE PUSH1 0x24 PUSH1 0x0 REVERT JUMPDEST PUSH1 0x0 DUP1 REVERT JUMPDEST PUSH1 0x0 DUP1 REVERT JUMPDEST PUSH1 0x0 DUP1 REVERT JUMPDEST PUSH1 0x0 DUP1 REVERT JUMPDEST PUSH1 0x0 DUP1 REVERT JUMPDEST PUSH1 0x0 DUP1 REVERT JUMPDEST PUSH1 0x0 PUSH1 0x1F NOT PUSH1 0x1F DUP4 ADD AND SWAP1 POP SWAP2 SWAP1 POP JUMP JUMPDEST PUSH1 0x0 DUP2 PUSH1 0x0 SHL SWAP1 POP SWAP2 SWAP1 POP JUMP JUMPDEST PUSH32 0x45434453413A20696E76616C6964207369676E61747572650000000000000000 PUSH1 0x0 DUP3 ADD MSTORE POP JUMP JUMPDEST PUSH32 0x476F7665726E6F723A206F6E6C79476F7665726E616E63650000000000000000 PUSH1 0x0 DUP3 ADD MSTORE POP JUMP JUMPDEST PUSH32 0x476F7665726E6F72566F74657351756F72756D4672616374696F6E3A2071756F PUSH1 0x0 DUP3 ADD MSTORE PUSH32 0x72756D4E756D657261746F72206F7665722071756F72756D44656E6F6D696E61 PUSH1 0x20 DUP3 ADD MSTORE PUSH32 0x746F720000000000000000000000000000000000000000000000000000000000 PUSH1 0x40 DUP3 ADD MSTORE POP JUMP JUMPDEST PUSH32 0x476F7665726E6F72436F6D7061746962696C697479427261766F3A2070726F70 PUSH1 0x0 DUP3 ADD MSTORE PUSH32 0x6F73657220766F7465732062656C6F772070726F706F73616C20746872657368 PUSH1 0x20 DUP3 ADD MSTORE PUSH32 0x6F6C640000000000000000000000000000000000000000000000000000000000 PUSH1 0x40 DUP3 ADD MSTORE POP JUMP JUMPDEST PUSH32 0x45434453413A20696E76616C6964207369676E6174757265206C656E67746800 PUSH1 0x0 DUP3 ADD MSTORE POP JUMP JUMPDEST PUSH32 0x1901000000000000000000000000000000000000000000000000000000000000 PUSH1 0x0 DUP3 ADD MSTORE POP JUMP JUMPDEST PUSH32 0x476F7665726E6F723A20696E76616C69642070726F706F73616C206C656E6774 PUSH1 0x0 DUP3 ADD MSTORE PUSH32 0x6800000000000000000000000000000000000000000000000000000000000000 PUSH1 0x20 DUP3 ADD MSTORE POP JUMP JUMPDEST PUSH32 0x45434453413A20696E76616C6964207369676E6174757265202773272076616C PUSH1 0x0 DUP3 ADD MSTORE PUSH32 0x7565000000000000000000000000000000000000000000000000000000000000 PUSH1 0x20 DUP3 ADD MSTORE POP JUMP JUMPDEST PUSH32 0x476F7665726E6F72566F74696E6753696D706C653A20766F746520616C726561 PUSH1 0x0 DUP3 ADD MSTORE PUSH32 0x6479206361737400000000000000000000000000000000000000000000000000 PUSH1 0x20 DUP3 ADD MSTORE POP JUMP JUMPDEST PUSH32 0x476F7665726E6F723A20766F7465206E6F742063757272656E746C7920616374 PUSH1 0x0 DUP3 ADD MSTORE PUSH32 0x6976650000000000000000000000000000000000000000000000000000000000 PUSH1 0x20 DUP3 ADD MSTORE POP JUMP JUMPDEST PUSH32 0x476F7665726E6F723A20656D7074792070726F706F73616C0000000000000000 PUSH1 0x0 DUP3 ADD MSTORE POP JUMP JUMPDEST PUSH32 0x45434453413A20696E76616C6964207369676E6174757265202776272076616C PUSH1 0x0 DUP3 ADD MSTORE PUSH32 0x7565000000000000000000000000000000000000000000000000000000000000 PUSH1 0x20 DUP3 ADD MSTORE POP JUMP JUMPDEST PUSH32 0x53616665436173743A2076616C756520646F65736E27742066697420696E2036 PUSH1 0x0 DUP3 ADD MSTORE PUSH32 0x3420626974730000000000000000000000000000000000000000000000000000 PUSH1 0x20 DUP3 ADD MSTORE POP JUMP JUMPDEST PUSH32 0x476F7665726E6F723A2070726F706F73616C206E6F7420737563636573736675 PUSH1 0x0 DUP3 ADD MSTORE PUSH32 0x6C00000000000000000000000000000000000000000000000000000000000000 PUSH1 0x20 DUP3 ADD MSTORE POP JUMP JUMPDEST PUSH32 0x476F7665726E6F723A20756E6B6E6F776E2070726F706F73616C206964000000 PUSH1 0x0 DUP3 ADD MSTORE POP JUMP JUMPDEST PUSH32 0x476F7665726E6F72566F74696E6753696D706C653A20696E76616C6964207661 PUSH1 0x0 DUP3 ADD MSTORE PUSH32 0x6C756520666F7220656E756D20566F7465547970650000000000000000000000 PUSH1 0x20 DUP3 ADD MSTORE POP JUMP JUMPDEST PUSH32 0x476F7665726E6F723A2070726F706F73616C20616C7265616479206578697374 PUSH1 0x0 DUP3 ADD MSTORE PUSH32 0x7300000000000000000000000000000000000000000000000000000000000000 PUSH1 0x20 DUP3 ADD MSTORE POP JUMP JUMPDEST PUSH1 0x8 DUP2 LT PUSH2 0x4798 JUMPI PUSH2 0x4797 PUSH2 0x4217 JUMP JUMPDEST JUMPDEST POP JUMP JUMPDEST PUSH2 0x47A4 DUP2 PUSH2 0x3FB6 JUMP JUMPDEST DUP2 EQ PUSH2 0x47AF JUMPI PUSH1 0x0 DUP1 REVERT JUMPDEST POP JUMP JUMPDEST PUSH2 0x47BB DUP2 PUSH2 0x3FDA JUMP JUMPDEST DUP2 EQ PUSH2 0x47C6 JUMPI PUSH1 0x0 DUP1 REVERT JUMPDEST POP JUMP JUMPDEST PUSH2 0x47D2 DUP2 PUSH2 0x3FE6 JUMP JUMPDEST DUP2 EQ PUSH2 0x47DD JUMPI PUSH1 0x0 DUP1 REVERT JUMPDEST POP JUMP JUMPDEST PUSH2 0x47E9 DUP2 PUSH2 0x3FF0 JUMP JUMPDEST DUP2 EQ PUSH2 0x47F4 JUMPI PUSH1 0x0 DUP1 REVERT JUMPDEST POP JUMP JUMPDEST PUSH2 0x4800 DUP2 PUSH2 0x401C JUMP JUMPDEST DUP2 EQ PUSH2 0x480B JUMPI PUSH1 0x0 DUP1 REVERT JUMPDEST POP JUMP JUMPDEST PUSH2 0x4817 DUP2 PUSH2 0x406B JUMP JUMPDEST DUP2 EQ PUSH2 0x4822 JUMPI PUSH1 0x0 DUP1 REVERT JUMPDEST POP JUMP JUMPDEST PUSH2 0x482E DUP2 PUSH2 0x4089 JUMP JUMPDEST DUP2 EQ PUSH2 0x4839 JUMPI PUSH1 0x0 DUP1 REVERT JUMPDEST POP JUMP INVALID LOG2 PUSH5 0x6970667358 0x22 SLT KECCAK256 EXP PC 0xE9 SWAP6 PUSH32 0x14571E611C0AB4715914FC549EDF18EF40CDF4CDCAA762AB36222564736F6C63 NUMBER STOP ADDMOD SMOD STOP CALLER "
		},
		"gasEstimates": {
			"creation": {
				"codeDepositCost": "3709200",
				"executionCost": "infinite",
				"totalCost": "infinite"
			},
			"external": {
				"BALLOT_TYPEHASH()": "373",
				"COUNTING_MODE()": "infinite",
				"castVote(uint256,uint8)": "infinite",
				"castVoteBySig(uint256,uint8,uint8,bytes32,bytes32)": "infinite",
				"castVoteWithReason(uint256,uint8,string)": "infinite",
				"execute(address[],uint256[],bytes[],bytes32)": "infinite",
				"getVotes(address,uint256)": "infinite",
				"hasVoted(uint256,address)": "3185",
				"hashProposal(address[],uint256[],bytes[],bytes32)": "infinite",
				"name()": "infinite",
				"proposalDeadline(uint256)": "infinite",
				"proposalEta(uint256)": "infinite",
				"proposalSnapshot(uint256)": "infinite",
				"proposalThreshold()": "448",
				"proposalVotes(uint256)": "infinite",
				"propose(address[],uint256[],bytes[],string)": "infinite",
				"queue(address[],uint256[],bytes[],bytes32)": "infinite",
				"quorum(uint256)": "infinite",
				"quorumDenominator()": "427",
				"quorumNumerator()": "2482",
				"state(uint256)": "infinite",
				"supportsInterface(bytes4)": "906",
				"timelock()": "2611",
				"token()": "infinite",
				"updateQuorumNumerator(uint256)": "infinite",
				"updateTimelock(address)": "infinite",
				"version()": "infinite",
				"votingDelay()": "383",
				"votingPeriod()": "406"
			},
			"internal": {
				"_cancel(address[] memory,uint256[] memory,bytes memory[] memory,bytes32)": "infinite",
				"_execute(uint256,address[] memory,uint256[] memory,bytes memory[] memory,bytes32)": "infinite",
				"_executor()": "2194"
			}
		},
		"methodIdentifiers": {
			"BALLOT_TYPEHASH()": "deaaa7cc",
			"COUNTING_MODE()": "dd4e2ba5",
			"castVote(uint256,uint8)": "56781388",
			"castVoteBySig(uint256,uint8,uint8,bytes32,bytes32)": "3bccf4fd",
			"castVoteWithReason(uint256,uint8,string)": "7b3c71d3",
			"execute(address[],uint256[],bytes[],bytes32)": "2656227d",
			"getVotes(address,uint256)": "eb9019d4",
			"hasVoted(uint256,address)": "43859632",
			"hashProposal(address[],uint256[],bytes[],bytes32)": "c59057e4",
			"name()": "06fdde03",
			"proposalDeadline(uint256)": "c01f9e37",
			"proposalEta(uint256)": "ab58fb8e",
			"proposalSnapshot(uint256)": "2d63f693",
			"proposalThreshold()": "b58131b0",
			"proposalVotes(uint256)": "544ffc9c",
			"propose(address[],uint256[],bytes[],string)": "7d5e81e2",
			"queue(address[],uint256[],bytes[],bytes32)": "160cbed7",
			"quorum(uint256)": "f8ce560a",
			"quorumDenominator()": "97c3d334",
			"quorumNumerator()": "a7713a70",
			"state(uint256)": "3e4f49e6",
			"supportsInterface(bytes4)": "01ffc9a7",
			"timelock()": "d33219b4",
			"token()": "fc0c546a",
			"updateQuorumNumerator(uint256)": "06f3f9e6",
			"updateTimelock(address)": "a890c910",
			"version()": "54fd4d50",
			"votingDelay()": "3932abb1",
			"votingPeriod()": "02a251a3"
		}
	},
	"abi": [
		{
			"inputs": [
				{
					"internalType": "contract ERC20Votes",
					"name": "_token",
					"type": "address"
				},
				{
					"internalType": "contract TimelockController",
					"name": "_timelock",
					"type": "address"
				}
			],
			"stateMutability": "nonpayable",
			"type": "constructor"
		},
		{
			"anonymous": false,
			"inputs": [
				{
					"indexed": false,
					"internalType": "uint256",
					"name": "proposalId",
					"type": "uint256"
				}
			],
			"name": "ProposalCanceled",
			"type": "event"
		},
		{
			"anonymous": false,
			"inputs": [
				{
					"indexed": false,
					"internalType": "uint256",
					"name": "proposalId",
					"type": "uint256"
				},
				{
					"indexed": false,
					"internalType": "address",
					"name": "proposer",
					"type": "address"
				},
				{
					"indexed": false,
					"internalType": "address[]",
					"name": "targets",
					"type": "address[]"
				},
				{
					"indexed": false,
					"internalType": "uint256[]",
					"name": "values",
					"type": "uint256[]"
				},
				{
					"indexed": false,
					"internalType": "string[]",
					"name": "signatures",
					"type": "string[]"
				},
				{
					"indexed": false,
					"internalType": "bytes[]",
					"name": "calldatas",
					"type": "bytes[]"
				},
				{
					"indexed": false,
					"internalType": "uint256",
					"name": "startBlock",
					"type": "uint256"
				},
				{
					"indexed": false,
					"internalType": "uint256",
					"name": "endBlock",
					"type": "uint256"
				},
				{
					"indexed": false,
					"internalType": "string",
					"name": "description",
					"type": "string"
				}
			],
			"name": "ProposalCreated",
			"type": "event"
		},
		{
			"anonymous": false,
			"inputs": [
				{
					"indexed": false,
					"internalType": "uint256",
					"name": "proposalId",
					"type": "uint256"
				}
			],
			"name": "ProposalExecuted",
			"type": "event"
		},
		{
			"anonymous": false,
			"inputs": [
				{
					"indexed": false,
					"internalType": "uint256",
					"name": "proposalId",
					"type": "uint256"
				},
				{
					"indexed": false,
					"internalType": "uint256",
					"name": "eta",
					"type": "uint256"
				}
			],
			"name": "ProposalQueued",
			"type": "event"
		},
		{
			"anonymous": false,
			"inputs": [
				{
					"indexed": false,
					"internalType": "uint256",
					"name": "oldQuorumNumerator",
					"type": "uint256"
				},
				{
					"indexed": false,
					"internalType": "uint256",
					"name": "newQuorumNumerator",
					"type": "uint256"
				}
			],
			"name": "QuorumNumeratorUpdated",
			"type": "event"
		},
		{
			"anonymous": false,
			"inputs": [
				{
					"indexed": false,
					"internalType": "address",
					"name": "oldTimelock",
					"type": "address"
				},
				{
					"indexed": false,
					"internalType": "address",
					"name": "newTimelock",
					"type": "address"
				}
			],
			"name": "TimelockChange",
			"type": "event"
		},
		{
			"anonymous": false,
			"inputs": [
				{
					"indexed": true,
					"internalType": "address",
					"name": "voter",
					"type": "address"
				},
				{
					"indexed": false,
					"internalType": "uint256",
					"name": "proposalId",
					"type": "uint256"
				},
				{
					"indexed": false,
					"internalType": "uint8",
					"name": "support",
					"type": "uint8"
				},
				{
					"indexed": false,
					"internalType": "uint256",
					"name": "weight",
					"type": "uint256"
				},
				{
					"indexed": false,
					"internalType": "string",
					"name": "reason",
					"type": "string"
				}
			],
			"name": "VoteCast",
			"type": "event"
		},
		{
			"inputs": [],
			"name": "BALLOT_TYPEHASH",
			"outputs": [
				{
					"internalType": "bytes32",
					"name": "",
					"type": "bytes32"
				}
			],
			"stateMutability": "view",
			"type": "function"
		},
		{
			"inputs": [],
			"name": "COUNTING_MODE",
			"outputs": [
				{
					"internalType": "string",
					"name": "",
					"type": "string"
				}
			],
			"stateMutability": "pure",
			"type": "function"
		},
		{
			"inputs": [
				{
					"internalType": "uint256",
					"name": "proposalId",
					"type": "uint256"
				},
				{
					"internalType": "uint8",
					"name": "support",
					"type": "uint8"
				}
			],
			"name": "castVote",
			"outputs": [
				{
					"internalType": "uint256",
					"name": "",
					"type": "uint256"
				}
			],
			"stateMutability": "nonpayable",
			"type": "function"
		},
		{
			"inputs": [
				{
					"internalType": "uint256",
					"name": "proposalId",
					"type": "uint256"
				},
				{
					"internalType": "uint8",
					"name": "support",
					"type": "uint8"
				},
				{
					"internalType": "uint8",
					"name": "v",
					"type": "uint8"
				},
				{
					"internalType": "bytes32",
					"name": "r",
					"type": "bytes32"
				},
				{
					"internalType": "bytes32",
					"name": "s",
					"type": "bytes32"
				}
			],
			"name": "castVoteBySig",
			"outputs": [
				{
					"internalType": "uint256",
					"name": "",
					"type": "uint256"
				}
			],
			"stateMutability": "nonpayable",
			"type": "function"
		},
		{
			"inputs": [
				{
					"internalType": "uint256",
					"name": "proposalId",
					"type": "uint256"
				},
				{
					"internalType": "uint8",
					"name": "support",
					"type": "uint8"
				},
				{
					"internalType": "string",
					"name": "reason",
					"type": "string"
				}
			],
			"name": "castVoteWithReason",
			"outputs": [
				{
					"internalType": "uint256",
					"name": "",
					"type": "uint256"
				}
			],
			"stateMutability": "nonpayable",
			"type": "function"
		},
		{
			"inputs": [
				{
					"internalType": "address[]",
					"name": "targets",
					"type": "address[]"
				},
				{
					"internalType": "uint256[]",
					"name": "values",
					"type": "uint256[]"
				},
				{
					"internalType": "bytes[]",
					"name": "calldatas",
					"type": "bytes[]"
				},
				{
					"internalType": "bytes32",
					"name": "descriptionHash",
					"type": "bytes32"
				}
			],
			"name": "execute",
			"outputs": [
				{
					"internalType": "uint256",
					"name": "",
					"type": "uint256"
				}
			],
			"stateMutability": "payable",
			"type": "function"
		},
		{
			"inputs": [
				{
					"internalType": "address",
					"name": "account",
					"type": "address"
				},
				{
					"internalType": "uint256",
					"name": "blockNumber",
					"type": "uint256"
				}
			],
			"name": "getVotes",
			"outputs": [
				{
					"internalType": "uint256",
					"name": "",
					"type": "uint256"
				}
			],
			"stateMutability": "view",
			"type": "function"
		},
		{
			"inputs": [
				{
					"internalType": "uint256",
					"name": "proposalId",
					"type": "uint256"
				},
				{
					"internalType": "address",
					"name": "account",
					"type": "address"
				}
			],
			"name": "hasVoted",
			"outputs": [
				{
					"internalType": "bool",
					"name": "",
					"type": "bool"
				}
			],
			"stateMutability": "view",
			"type": "function"
		},
		{
			"inputs": [
				{
					"internalType": "address[]",
					"name": "targets",
					"type": "address[]"
				},
				{
					"internalType": "uint256[]",
					"name": "values",
					"type": "uint256[]"
				},
				{
					"internalType": "bytes[]",
					"name": "calldatas",
					"type": "bytes[]"
				},
				{
					"internalType": "bytes32",
					"name": "descriptionHash",
					"type": "bytes32"
				}
			],
			"name": "hashProposal",
			"outputs": [
				{
					"internalType": "uint256",
					"name": "",
					"type": "uint256"
				}
			],
			"stateMutability": "pure",
			"type": "function"
		},
		{
			"inputs": [],
			"name": "name",
			"outputs": [
				{
					"internalType": "string",
					"name": "",
					"type": "string"
				}
			],
			"stateMutability": "view",
			"type": "function"
		},
		{
			"inputs": [
				{
					"internalType": "uint256",
					"name": "proposalId",
					"type": "uint256"
				}
			],
			"name": "proposalDeadline",
			"outputs": [
				{
					"internalType": "uint256",
					"name": "",
					"type": "uint256"
				}
			],
			"stateMutability": "view",
			"type": "function"
		},
		{
			"inputs": [
				{
					"internalType": "uint256",
					"name": "proposalId",
					"type": "uint256"
				}
			],
			"name": "proposalEta",
			"outputs": [
				{
					"internalType": "uint256",
					"name": "",
					"type": "uint256"
				}
			],
			"stateMutability": "view",
			"type": "function"
		},
		{
			"inputs": [
				{
					"internalType": "uint256",
					"name": "proposalId",
					"type": "uint256"
				}
			],
			"name": "proposalSnapshot",
			"outputs": [
				{
					"internalType": "uint256",
					"name": "",
					"type": "uint256"
				}
			],
			"stateMutability": "view",
			"type": "function"
		},
		{
			"inputs": [],
			"name": "proposalThreshold",
			"outputs": [
				{
					"internalType": "uint256",
					"name": "",
					"type": "uint256"
				}
			],
			"stateMutability": "pure",
			"type": "function"
		},
		{
			"inputs": [
				{
					"internalType": "uint256",
					"name": "proposalId",
					"type": "uint256"
				}
			],
			"name": "proposalVotes",
			"outputs": [
				{
					"internalType": "uint256",
					"name": "againstVotes",
					"type": "uint256"
				},
				{
					"internalType": "uint256",
					"name": "forVotes",
					"type": "uint256"
				},
				{
					"internalType": "uint256",
					"name": "abstainVotes",
					"type": "uint256"
				}
			],
			"stateMutability": "view",
			"type": "function"
		},
		{
			"inputs": [
				{
					"internalType": "address[]",
					"name": "targets",
					"type": "address[]"
				},
				{
					"internalType": "uint256[]",
					"name": "values",
					"type": "uint256[]"
				},
				{
					"internalType": "bytes[]",
					"name": "calldatas",
					"type": "bytes[]"
				},
				{
					"internalType": "string",
					"name": "description",
					"type": "string"
				}
			],
			"name": "propose",
			"outputs": [
				{
					"internalType": "uint256",
					"name": "",
					"type": "uint256"
				}
			],
			"stateMutability": "nonpayable",
			"type": "function"
		},
		{
			"inputs": [
				{
					"internalType": "address[]",
					"name": "targets",
					"type": "address[]"
				},
				{
					"internalType": "uint256[]",
					"name": "values",
					"type": "uint256[]"
				},
				{
					"internalType": "bytes[]",
					"name": "calldatas",
					"type": "bytes[]"
				},
				{
					"internalType": "bytes32",
					"name": "descriptionHash",
					"type": "bytes32"
				}
			],
			"name": "queue",
			"outputs": [
				{
					"internalType": "uint256",
					"name": "",
					"type": "uint256"
				}
			],
			"stateMutability": "nonpayable",
			"type": "function"
		},
		{
			"inputs": [
				{
					"internalType": "uint256",
					"name": "blockNumber",
					"type": "uint256"
				}
			],
			"name": "quorum",
			"outputs": [
				{
					"internalType": "uint256",
					"name": "",
					"type": "uint256"
				}
			],
			"stateMutability": "view",
			"type": "function"
		},
		{
			"inputs": [],
			"name": "quorumDenominator",
			"outputs": [
				{
					"internalType": "uint256",
					"name": "",
					"type": "uint256"
				}
			],
			"stateMutability": "view",
			"type": "function"
		},
		{
			"inputs": [],
			"name": "quorumNumerator",
			"outputs": [
				{
					"internalType": "uint256",
					"name": "",
					"type": "uint256"
				}
			],
			"stateMutability": "view",
			"type": "function"
		},
		{
			"inputs": [
				{
					"internalType": "uint256",
					"name": "proposalId",
					"type": "uint256"
				}
			],
			"name": "state",
			"outputs": [
				{
					"internalType": "enum IGovernor.ProposalState",
					"name": "",
					"type": "uint8"
				}
			],
			"stateMutability": "view",
			"type": "function"
		},
		{
			"inputs": [
				{
					"internalType": "bytes4",
					"name": "interfaceId",
					"type": "bytes4"
				}
			],
			"name": "supportsInterface",
			"outputs": [
				{
					"internalType": "bool",
					"name": "",
					"type": "bool"
				}
			],
			"stateMutability": "view",
			"type": "function"
		},
		{
			"inputs": [],
			"name": "timelock",
			"outputs": [
				{
					"internalType": "address",
					"name": "",
					"type": "address"
				}
			],
			"stateMutability": "view",
			"type": "function"
		},
		{
			"inputs": [],
			"name": "token",
			"outputs": [
				{
					"internalType": "contract ERC20Votes",
					"name": "",
					"type": "address"
				}
			],
			"stateMutability": "view",
			"type": "function"
		},
		{
			"inputs": [
				{
					"internalType": "uint256",
					"name": "newQuorumNumerator",
					"type": "uint256"
				}
			],
			"name": "updateQuorumNumerator",
			"outputs": [],
			"stateMutability": "nonpayable",
			"type": "function"
		},
		{
			"inputs": [
				{
					"internalType": "contract TimelockController",
					"name": "newTimelock",
					"type": "address"
				}
			],
			"name": "updateTimelock",
			"outputs": [],
			"stateMutability": "nonpayable",
			"type": "function"
		},
		{
			"inputs": [],
			"name": "version",
			"outputs": [
				{
					"internalType": "string",
					"name": "",
					"type": "string"
				}
			],
			"stateMutability": "view",
			"type": "function"
		},
		{
			"inputs": [],
			"name": "votingDelay",
			"outputs": [
				{
					"internalType": "uint256",
					"name": "",
					"type": "uint256"
				}
			],
			"stateMutability": "pure",
			"type": "function"
		},
		{
			"inputs": [],
			"name": "votingPeriod",
			"outputs": [
				{
					"internalType": "uint256",
					"name": "",
					"type": "uint256"
				}
			],
			"stateMutability": "pure",
			"type": "function"
		},
		{
			"stateMutability": "payable",
			"type": "receive"
		}
	]
}